:100000000C9498020C94D0020C94D0020C94D00260
:100010000C94D0020C94D0020C94D0020C94D00218
:100020000C94D0020C94D0020C94B9200C948D2125
:100030000C94EC1A0C94D0020C94D0020C94D002C4
:100040000C94D0020C94D0020C94D0020C94D002E8
:100050000C94D0020C94731B0C94D0020C94D0021C
:100060000C94D0020C94D0020C94D0020C94D002C8
:100070000C94D0020C94D0020C94D0020C94D002B8
:100080000C94D0020C94D0020C94D0020C94D002A8
:100090000C94D0020C94D0020C94D0020C94D00298
:1000A0000C94D0020C94D0020C94D00229001E00B3
:1000B0001F0020002100220023002400250026002C
:1000C00027002D002E002A004A002B0014001A00E1
:1000D0000800150017001C0018000C001200130087
:1000E0002F00300031004B003900040016000700DB
:1000F00009000A000B000D000E000F003300340051
:10010000000028004E00E10000001D001B0006005A
:100110001900050011001000360037003800E50016
:1001200052004D00E000E300E2000000000000008B
:100130002C0000000000E6000000015150005100BA
:100140004F0035023A003B003C003D003E003F00BE
:100150004000410042004300440045004C000100C3
:100160000100010001000100010001000100010087
:100170000100010001000100010001000100010077
:100180000100010001000100010001000100010067
:100190000100010001000000010001000100000059
:1001A0000100010001000100010001000100010047
:1001B0000100010001000100010001000100010037
:1001C000000000000000010000000000010000002D
:1001D0000100010001000100010001000100010017
:1001E0000100010001000100010001000100010007
:1001F00001000100010001000100010001000100F7
:1002000001000100010001000100010001000100E6
:1002100001000100010001000100010001000100D6
:1002200001000100010001000100010000000100C7
:1002300001000100000001000100010001000100B7
:1002400001000100010001000100010001000100A6
:10025000010001000100000000000000010000009A
:100260000000010000000100010001000100010088
:100270000100010001000100010001000100010076
:100280000100010001000100010001000100010066
:100290000100010001000100010001000100010056
:1002A0000100010001000100010001000100010046
:1002B0000100010001000100010001000100010036
:1002C0000100000001000100010000000100010028
:1002D0000100010001000100010001000100010016
:1002E0000100010001000100010001000000000008
:1002F00000000100000000000100000001000100FA
:100300000100010000000000000000002A2B28006E
:1003100000000000000000000000000000000029B4
:10032000000000002C1E3420212224342627252EF4
:10033000362D3738271E1F2021222324252633332C
:10034000362E37381F0405060708090A0B0C0D0E58
:100350000F101112131415161718191A1B1C1D2F24
:100360003130232D350405060708090A0B0C0D0E44
:100370000F101112131415161718191A1B1C1D2F04
:100380003130354C0000000000000000000000008B
:10039000000000000000000000000000000000005D
:1003A00000000000000000007E0F00D4FFFFFFC728
:1003B0000000007818034D0069006B0065006E00B6
:1003C00065006B006F00200036003500000012034E
:1003D000740061006B0069007300680069006D00C3
:1003E00000000403090409025B00030100A0FA09EC
:1003F0000400000103010100092111010001224054
:100400000007058103080001090401000203000040
:1004100000092111010001222200070582032000AA
:100420000107050303200001090402000103000085
:1004300000092111010001227B000705840320002F
:100440000112010002000000083479546D0100011E
:100450000200010660FF0961A1010962150026FF83
:10046000009520750881020963150026FF0095207C
:1004700075089102C005010902A10185020901A1C7
:100480000005091901290815002501950875018144
:10049000020501093009311581257F950275088112
:1004A0000609381581257F950175088106050C0A16
:1004B00038021581257F950175088106C0C00501A8
:1004C0000980A101850319012AB700150126B7008B
:1004D000950175108100C0050C0901A10185041961
:1004E000012AA002150126A002950175108100C005
:1004F00005010906A101050719E029E715002501F5
:10050000950875018102950175088101050719009B
:1005100029FF150026FF00950675088100050819BA
:10052000012905950575019102950175039101C099
:1005300011241FBECFEFDAE0DEBFCDBF04B603FE4D
:1005400018C080916F0290917002A0917102B091D9
:1005500072028730904BA740B04B59F410926F0253
:10056000109270021092710210927202E0E0F8E3B1
:10057000099511E0A0E0B1E0E4E3F8E402C00590E1
:100580000D92AC39B107D9F722E0ACE9B1E001C076
:100590001D92AF36B207E1F70E9462120C94EF236E
:1005A0000C94000081E0089581E008950E94D40237
:1005B000089508950E94D9020895A5E0B0E0E3EE01
:1005C000F2E00C94642349835A8330919F0189811E
:1005D0009A81311119C0662399F0222389F00E9473
:1005E0007A09182F682F89819A810E94560969819A
:1005F0007A81812F0E9454182596E3E00C94802381
:100600000E946809182FF3CF0E947A0969817A81C4
:10061000F1CFFC01262F4081518162817381848159
:100620000E94DD02089581E00895CF93DF93EC01ED
:1006300060E00E940903BE010E94DA02DF91CF91BF
:100640000895E1E0F0E0DF0102C0AA0FBB1F6A9548
:10065000E2F7BD01DF0102C0AA0FBB1F4A95E2F716
:100660006A2B01C0EE0F2A95EAF7962F982396136E
:1006700002C08E2B0895E0958E230895242F462FD7
:10068000682F8091BE010E9421030E94B608089540
:100690000E940D1108950E941111089508950E945D
:1006A00053080E944E032FEF84E39CE021508040CA
:1006B0009040E1F700C0000008950E944F030E949F
:1006C000971B08950E944F030E94BB1B08950F9330
:1006D0001F93CF93DF938C0161E00E940903EC012B
:1006E000B8010E945815811106C080E0DF91CF91BA
:1006F0001F910F910895B801CE010E94D602882360
:10070000A1F3B801CE010E949919882371F3B801B1
:10071000CE010E944716882341F3B801CE010E9402
:100720000B19882311F3F8018281882361F0CA35FF
:10073000FDE5DF0701F158F4C115ECE5DE0791F0A6
:10074000CE3DDC4591F0C8010E94D202CFCFCC351E
:100750008DE5D80769F090F0C73ADD45A1F70E9412
:100760006203C3CF0E945D03C0CF0E94330EF7CF58
:100770000E946D0DE8CF0E94770DE5CF0E947B0DA2
:10078000E2CF0E94C81A0E94A50408950E94A904FD
:100790000E94CD1A0895B0E0A0E0E1EDF3E00C94E2
:1007A0006023E82FF0E0EC5FFC4FD490282F2695D3
:1007B0002695269530E0F901EC55FC4F04918770A1
:1007C00010E0082E02C0159507950A94E2F7017013
:1007D0001127F901EC56FC4FE490F12C082E02C0D1
:1007E000F594E7940A94E2F791E0E922FF24F901F5
:1007F000EC57FC4FC491D0E002C0D595C7958A95BF
:10080000E2F7C170DD270115110519F081EE0E9494
:10081000F404E114F10419F086EE0E94F4048D2D25
:100820000E94F605E114F10419F086EE0E94850598
:100830000115110519F081EE0E948505CD2B19F0E7
:100840008CE20E94F605CDB7DEB7E7E00C947C237E
:10085000EF92FF920F931F93CF93DF93EC01162F2C
:100860000AE08881882309F454C0813009F04EC021
:100870008981813099F47E0122E0E20EF11C8A81A7
:100880000E94F605E7012196812F815050F3EFE990
:10089000FFE03197F1F700C00000F7CF823041F45C
:1008A0007E0182E0E80EF11C8A810E94F404EACF06
:1008B000833041F47E01E2E0EE0EF11C8A810E9459
:1008C0008505E0CF843011F02196DDCF2A81229674
:1008D00090E080E0AE014F5F5F4F2053330B2A3032
:1008E000310548F0019778F2EFE9FFE03197F1F731
:1008F00000C00000F7CF089FB001099F700D1124C0
:10090000C901860F971F2981EA01E4CF0E94CB031A
:10091000BACFCDB7DEB7E6E00C947D2360E00E944D
:100920002804089508950E949204089581E008958E
:100930000E94960408950895CF93C82F0E949304AF
:100940008C2F0E949804CF91089580E00E949C040F
:1009500008950E94F5190E949C0408950E94F519BB
:1009600090919E01981721F080939E010E949C0413
:100970000895ABE0B0E0EFEBF4E00C9465234F8317
:10098000588769877A878B8761110E94B80C1E820D
:100990001D8285E0FE013796DE01119601900D92D1
:1009A0008A95E1F78C819D81892B61F449815A8177
:1009B0006B817C818D819E810E94E10B2B96E2E010
:1009C0000C94812389819A8189238F3F79F3CE0109
:1009D00001960E9413038111E9CFF0CFFC018081C1
:1009E00091810E94A7090895CF93C82F8823C9F049
:1009F0008238C9F40E94F51981FD13C089E30E9471
:100A0000700C0E94D90C2FEF81EE94E021508040B1
:100A10009040E1F700C0000089E30E94780C0E943A
:100A2000D90CCF9108958338A1F40E94F51980FD67
:100A3000F8CF83E50E94700C0E94D90C2FEF81EE55
:100A400094E0215080409040E1F700C0000083E531
:100A5000E4CF8438A1F40E94F51982FDE2CF87E447
:100A60000E94700C0E94D90C2FEF81EE94E021506F
:100A700080409040E1F700C0000087E4CECF8CEFCB
:100A80008C0F813A90F46C2F8091000190910101BC
:100A90000E94591A882329F08C2F0E94780C0E94FA
:100AA000D90C8C2F0E94700CBACF80E28C0F88304A
:100AB00048F4C77081E001C0880FCA95EAF70E9428
:100AC0009B0CADCFEBE5EC0FE33040F4F0E0EB5BDB
:100AD000FE4F808190E00E941B1AA3CFE8E5EC0F47
:100AE000E73150F4F0E0EE0FFF1FE95EFE4F80812A
:100AF00091810E94311A95CFC03F08F492CF8C2F7C
:100B00000E94E6120E94B9138CCF882309F455C0C5
:100B1000823879F40E94F51981FF4FC089E30E9461
:100B2000700C0E94D90C89E30E94780C0E94D90CA9
:100B30000895833859F40E94F51980FF3EC083E57B
:100B40000E94700C0E94D90C83E5EECF843859F4D2
:100B50000E94F51982FF31C087E40E94700C0E9448
:100B6000D90C87E4E1CF9CEF980F913AE8F290E23C
:100B7000980F983050F4877091E001C0990F8A95D2
:100B8000EAF7892F0E94A10CD1CF9BE5980F9330F3
:100B900028F490E080E00E941B1A089598E5980FD1
:100BA000973128F490E080E00E94311A0895803F48
:100BB00020F00E9440130E94B91308951F93CF9311
:100BC000DF93182FEB010E94F404209739F4812F52
:100BD0000E948505DF91CF911F9108958FE99FE0D5
:100BE0000197F1F700C000002197EFCF70E060E0BF
:100BF000893311F460E570E00E94DE0508958823D2
:100C000021F00E949B0C0E94D90C0895882321F0AA
:100C10000E94A10C0E94D90C0895B0E0A0E0E3E18D
:100C2000F6E00C945E236C01D62FC72FFC011281D5
:100C3000F580F2949FE0F9220E94910CE82E88231F
:100C4000B9F0E12E1123A1F08C2F807F803421F0A8
:100C500080E28D0F8830D0F08091490282FF16C06B
:100C600082E00E943C0D0E94910C91E0E82EE92662
:100C7000BC2EB2948FE0B822FBE0FB1508F468C0EC
:100C8000EB2DF0E0EF50FC4D0C944823E12CF0CF1D
:100C90000C2F0F70C07F11F00295007F112399F087
:100CA000002359F080E28D0F883010F0D11107C079
:100CB000802F0E949B0C0E94D90C8D2F41C0802F49
:100CC0000E94AB0CF8CF8D2F0E948505002309F4FC
:100CD0003FC080E28D0F883010F0D11104C0802F0A
:100CE0000E94A10C03C0802F0E94B10C0E94D90C5D
:100CF0002FC00C2F0F70C07FC03211F00295007F03
:100D0000DD2381F0D13009F463C0112309F46DC0F3
:100D1000FF2009F463C0F601858180FFCECF8F707C
:100D200085835CC08091490282FD33C0112359F054
:100D3000002329F0802F0E949B0C0E94D90C80E098
:100D40000E94F40405C080E00E9485050111C7CF10
:100D5000EB2DE850FF0B349720F40E94F5190E9408
:100D60009C04EE2089F00E948D0C80FD0DC0F601E0
:100D700012820E94870C0E94CA08C6010E941308B2
:100D80000E94870C0E94D608CDB7DEB7E9E00C942C
:100D90007A23112389F0F11006C00E94BB0C802B2E
:100DA0000E94FF05D5CF21E0F212F7CF0E94BB0CC5
:100DB000802B0E94C20CCCCFF11006C00E94CF0C39
:100DC000802F0E940606C4CF31E0F31609F2F6CF59
:100DD000112331F085E08F1508F4BACF802FE0CFD2
:100DE00094E09F1508F4B4CFEBCFFF2049F3D9333B
:100DF00049F4FFEF27EE33E0F15020403040E1F7B7
:100E000000C000008D2F0E948505A2CF8C2F8695F3
:100E10008695837069F0813009F09ACF8D2F9C2FD1
:100E20009370111102C090E080E00E94311A90CFBF
:100E30008D2F9C2F9370111102C090E080E00E94D2
:100E40001B1A86CF8D2F112329F00E94E6120E94D3
:100E5000B9137ECF0E944013FACF8C2F837079F59F
:100E6000111176CF4D2F429546954770440F440F90
:100E70008D2F8F70042E01C0880F0A94EAF72D2F52
:100E80002071D4FF07C02FE030E001C0220F4A9547
:100E9000EAF72095C695C695C370822BC23049F0FB
:100EA00058F4C13019F00E94A40852CF0E949E0845
:100EB0004FCF0E94AA084CCF0E949B0849CF86952D
:100EC000112311F08C2F8170882309F441CF4D2F0D
:100ED000429546954770440F440F8D2F8F70042E16
:100EE00001C0880F0A94EAF72D2F2071D4FF07C0A4
:100EF0002FE030E001C0220F4A95EAF72095C69511
:100F0000C695C370822BC23049F058F4C13019F035
:100F10000E94F5081DCF0E94EF081ACF0E94FB081F
:100F200017CF0E94B60814CFCF70112329F08C2F51
:100F30000E94CA088D2F34CF8D2F0E9406068C2F59
:100F40000E94D60805CFD23F51F160F4D03FB9F0EE
:100F5000D13F81F0112309F449C0F110AECE8C2F9E
:100F60008F7121C0D33F11F1D43FA1F78091490285
:100F700082FD26C08C2F8F71112311F314C0112311
:100F800049F084E08F1508F4E3CE8C2F8F710E9416
:100F9000E308DECE95E09F1508F4DACEF6CF8C2F6D
:100FA0008F711111CDCF0E94CA08D2CE112329F022
:100FB0008C2F8F710E94C108CBCE0E94BD08C8CE75
:100FC000112349F0CF718C2F0E94CA0863E08C2F47
:100FD0000E941E0DBDCE81E00E943C0DE1E0EF15A8
:100FE00008F0B6CE82E00E943C0DB2CEF110FFCEEA
:100FF0008C2F8F71A5CF0F931F93CF93DF93EC01AD
:10100000688179818A810E94B2098C010E9401095C
:101010000E949A08B801CE010E940D06DF91CF917F
:101020001F910F910895CF93DF93EC018B819C81E9
:10103000892B29F08881998189238F3F51F4DF9191
:10104000CF910895CE010E94FB07CE010E941503A7
:10105000F6CFCE010E9467038111F4CF0E94910C5C
:10106000882369F38A81882351F38091490282FFA2
:10107000E6CF82E00E943C0DE2CF90E080E00E944B
:101080001B1A90E080E00E94311A0E94B80C0E9466
:10109000D90C0E94D5130E94B91308950E94800CA8
:1010A0000E943D0808950E94A80C0E944E080895D1
:1010B00092959F70963091F058F4925F9F709230A5
:1010C00058F4803F19F030F4883E30F481E0089500
:1010D0009A5FF4CF843FD1F380E00895883EB0F367
:1010E000813FD1F7F3CFFC01808191810E94A70954
:1010F0000E9458080895A5E0B0E0E1E8F8E00C94FB
:1011000065232596E2E00C948123A6E0B0E0EBE8AD
:10111000F8E00C9465232696E2E00C948123089570
:101120000E948F0808950E9490088093BF010E943A
:101130003D08089508950E94930808959091BF0175
:10114000892B0E94930808959091BF0189230E94E2
:10115000930808959091BF0189270E9493080895EC
:101160000E948F0808950E94B00808950E94B30855
:101170008093BE010E943D08089580E00E94B60859
:10118000089591E001C0990F8A95EAF7892F0E948E
:10119000B608089521E030E001C0220F8A95EAF7F1
:1011A0008091BE01822B0E94B608089521E030E0B4
:1011B00001C0220F8A95EAF720958091BE01822313
:1011C0000E94B608089521E030E001C0220F8A9500
:1011D000EAF78091BE0182270E94B6080895909197
:1011E000BE01892B0E94B60808959091BE01892303
:1011F0000E94B60808959091BE0189270E94B60802
:1012000008950895262F277091E001C0990F2A951F
:10121000EAF723E0769567952A95E1F7FB01EE0F53
:10122000FF1FE60FF71FE40FF51F50E040E0682FA7
:1012300070E08191DF0111979B01042E02C0369569
:1012400027950A94E2F7217021952827292328273A
:101250002C934F5F5F4F4330510559F70895A82FE6
:10126000A77023E0969587952A95E1F7FC01EE0F8C
:10127000FF1FE80FF91FE60FF71F50E040E080E086
:10128000219130E00A2E02C0369527950A94E2F7A4
:1012900021703327042E01C0220F0A94EAF7822B13
:1012A0004F5F5F4F4330510559F70895262F953012
:1012B00070F48F3060F4682F70E08FE0989F600DBD
:1012C000711D112440EA51E0822F0E940209089505
:1012D000292F953068F48F3058F490E060EA71E07F
:1012E0003FE0239F800D911D11240E942F09089536
:1012F00080E00895CF92DF92FF920F931F93CF93D8
:10130000DF936C010091BE018091BF01082BC7E003
:10131000D0E010E0FC2EC8010C2E02C095958795F8
:101320000A94E2F780FD0CC02197A0F7F12C8F2DD5
:10133000DF91CF911F910F91FF90DF90CF90089593
:10134000B6018C2F0E94F60F019771F3F0CFCF9367
:10135000DF93EC010E947A09BE010E94F60FDF9133
:10136000CF9108951F93CF93DF93EB0190919F014D
:10137000992339F0CB010E94A709DF91CF911F91EA
:101380000895882369F0CB010E947A09182F682FED
:10139000CE010E945609BE01812F0E94F60FEDCFAB
:1013A000CB010E946809182FF6CF1F93CF93DF93CC
:1013B000C091C00116E08091C1018C1304C0DF917F
:1013C000CF911F910895D0E01C9FF0011D9FF00D5B
:1013D0001124EE53FE4F40815181628173818481DB
:1013E00095810E9485082196C770E5CF4091F20152
:1013F0005091F3016091F4017091F5018091F60133
:101400009091F7010E94850808951F93CF93DF9371
:101410008091F701807F09F049C08091F401882311
:1014200009F444C08091C001C091C1016091F201F2
:101430007091F301A091F501B091F601D62FD72359
:1014400016E0C81799F190E0109711F0DF3F19F4FA
:1014500001968770F6CF189F9001199F300D1124C7
:10146000F901EE53FE4F41814713F2CF40814613FD
:10147000EFCF42814111ECCF438154814A1B5B0B7A
:10148000483C510528F78091F7018F708061809367
:10149000F701F901E953FE4F80818F7080618083ED
:1014A00082EF91E00E9413080E94D509DF91CF914D
:1014B0001F910895A1E1B0E0E0E6FAE00C945D230D
:1014C0008C0185E0F801DE011D9601900D928A9550
:1014D000E1F7F801E28082EFC82E81E0D82E60911A
:1014E000F5017091F6016115710509F44EC19091F5
:1014F000F2012091F301892F82238F3F09F445C126
:1015000040815181A380B480F090F401F501E61B85
:10151000F70BFF2009F4EAC08091F701382F307FE4
:10152000E83CF10508F0A3C031116DC0FE2C251375
:1015300016C0941314C0E11012C08F7080618093A4
:10154000F7010E94F609C6010E9413088091F70175
:10155000F80185838F2D6196EAE00C947923A1141C
:10156000B10429F0842F85238F3F09F027C180E043
:10157000F82FF170DF2E80FF3CC08091C0012091D8
:10158000C10136E0821315C04D875E878D859E852B
:101590000E94A709292F22952F702230F0F02430C5
:1015A00018F59F70F1F0F8019581907FD1F4D12C5E
:1015B0001EC090E0389FF001399FF00D1124EE53CA
:1015C000FE4F6181651306C06081641303C06281B0
:1015D000E6120FC001968770D5CF9F7011F0882357
:1015E00031F3805E883018F3C8010E941308FD2C87
:1015F000B1CFEE2009F4AECF8091F70181608093E6
:10160000F701F12CA7CF251306C0941304C0F801ED
:10161000EE2009F487C0C8010E947308882319F1DD
:10162000EE2009F18091F701803270F02091F201F3
:101630003091F30138872F831986BB86AA868C8761
:10164000CE0107960E94130886E0F801A2EFB1E0F0
:1016500001900D928A95E1F70E94050A0E94F60911
:10166000FF24F39477CFC8010E941308F9CF3111FA
:1016700013C07A2DB98AA88A6E2D89890E947B08A9
:1016800082EF91E00E94130886E0F60111928A959C
:10169000E9F70E94F609B5CF25130FC094130DC0CA
:1016A000E1100BC0F8018583C8010E94130886E091
:1016B000F60111928A95E9F74DCFC8010E9473088F
:1016C000882389F2EE2079F28091F701803208F4C4
:1016D000BBCF2091F2013091F3013A8329831B8221
:1016E000BD82AC828E83CE010196ACCFE83CF10581
:1016F00008F03EC0FE2CEE2009F4B5CF25132AC019
:10170000941328C08091F70180FD1BC0982F907F13
:10171000C1F0F8018583903F31F0982F907F905F62
:101720008F70892B8583C8010E94130886E0F80119
:10173000A2EFB1E001900D928A95E1F70E94F609BF
:1017400009CF86E0F801A2EFB1E001900D928A95F1
:10175000E1F700CFC8010E947308811175CF809115
:10176000F70181608093F701C8010E941308F2CE4F
:101770007A2DB98AA88A6E2D89890E947B0886E015
:10178000F60111928A95E9F7D9CFEE2009F46BCFD3
:10179000C8010E947308F82E882309F464CF86E0FC
:1017A000F801A2EFB1E001900D928A95E1F782EF86
:1017B00091E00E94EE040E94050AC0CF81E08E25D0
:1017C000D7CEACE0B0E0E7EEFBE00C9464234F83AF
:1017D000588769877A878B879C87CE0107960E94F6
:1017E0005A0A882369F08A859B85892B39F04F81B5
:1017F0005885842F85238F3F09F06BC016E05FC0AA
:1018000086E0FE013796DE01119601900D928A95D1
:10181000E1F78A859B85892B89F38F8198858923B8
:101820008F3F61F32091C10130E0C90101968770BB
:1018300099274091C0014817190671F40E94530876
:101840001092C1011092C00186E0E2EFF1E0DF01E9
:101850001D928A95E9F7D2CF96E0929FD001939F8F
:10186000B00D1124AE53BE4FFE01319601900D9282
:101870009A95E1F78093C1010E94D509BFCF819F5E
:10188000C00111248E539E4F0E945A0A8823E9F00A
:10189000E091C0011E9FF0011124EE53FE4F4081E4
:1018A000518162817381848195810E948508809134
:1018B000C00190E00196877099278093C0018091C4
:1018C000C0019091C1018913DACF2C96E3E00C940A
:1018D000802369857A858B859C850E9485088ECFBB
:1018E000682F80910001909101010E948F1A089544
:1018F000682F80910001909101010E94921A089531
:1019000080910001909101010E94951A08958091A3
:1019100000028595859585950895809100028770D0
:10192000089590910002977081E009F480E0089595
:1019300080910B02089590910B02892B80930B02EA
:101940000895809590910B02982390930B0208952F
:1019500010920B02089590910A02892B80930A023B
:101960000895809590910A02982390930A02089511
:1019700010920A02089580910102089508950E942C
:10198000BE0C08959091490292FF08C09091010207
:10199000981721F0809301020E94BF0C0895809156
:1019A0000102882329F01092010280E00E94BF0CFE
:1019B0000895CF93DF93E0910001F09101018091B0
:1019C0000B028083E0910001F091010180819091F0
:1019D0000A02892B808390910102992381F0E09182
:1019E0000001F09101018081892B808380910001A9
:1019F000909101010E94471A81110E94CF0CC09161
:101A00000001D091010148E050E068EF71E0CE01A3
:101A10000E94A023892B59F088E0FE01A8EFB1E0D5
:101A200001900D928A95E1F7CE010E94021ADF9192
:101A3000CF91089508950E941A0D0895909149023A
:101A400092FF11C098E0899F90011124622B60934E
:101A500000020E94CA0880910002859585958595AF
:101A60000E941B0D08950E94CA080895109200025A
:101A700080E00E941B0D08959091000280958923BB
:101A800080930002282F277091F4282F082E000C35
:101A9000330B9217130659F09091490292FF07C039
:101AA0008595859585950E94D6080E94360D0895E6
:101AB0009091490292FB222720F9281769F080FBB8
:101AC00092F99093490280914802909149020E94B4
:101AD000AA0D82E00E943C0D08958091490282FB8C
:101AE000882780F991E089270E94580D089581E0A8
:101AF0000E94580D089580E00E94580D08956FEFE0
:101B00007FEF90E080E00E94D923089590E080E08C
:101B10000E94B523883E9E4F19F40E94F314089545
:101B200080E0089582E090E00E94AD23089583E074
:101B300090E00E94AD230895CF9384E090E00E944E
:101B4000AD23C82F82E290E00E94AD23982F8C2F06
:101B5000CF910895CF93C92F682F84E090E00E9421
:101B6000BB236C2F82E290E00E94BB23CF910895AB
:101B7000AB01BC018FE090E00E94CD230895AB0142
:101B8000BC0183E190E00E94CD23089560E070E005
:101B9000CB010E94BF0D089560E070E0CB010E9470
:101BA000B80D0E94C60D089568EE7EEF90E080E0CB
:101BB0000E94D92360E082E090E00E94BB2360E0B5
:101BC00083E090E00E94BB231092BF0160E084E0BC
:101BD00090E00E94BB2364E082E290E00E94BB237D
:101BE00060E085E090E00E94BB2360E086E090E04A
:101BF0000E94BB236FEF87E090E00E94BB2340E090
:101C000050E0BA0188E090E00E94CD2360E08DE0D2
:101C100090E00E94BB2340E050E0BA0188E190E0F0
:101C20000E94CD2360E087E190E00E94BB2340E06A
:101C300050E0BA018CE190E00E94CD2370E060E0BA
:101C400080E290E00E94D92340E050E0BA0188E1B0
:101C500090E00E94CD2380E00E940C150E943B156D
:101C60000E94CC0D08950E94D40D0895682F8EE037
:101C700090E00E94BB2308950E94581B60931A02B3
:101C800070931B0280931C0290931D0260931602B6
:101C90007093170280931802909319020895089583
:101CA00008950E94500E089508950E94540E0895BC
:101CB00085ED90E10E94EB190E944F0E0E94510E9B
:101CC000089581E008950E94610E08950895089591
:101CD0000E94660E0E94670E08950E94F1100E94F5
:101CE0009B0408950E94431B0E944B150E94C9113A
:101CF0000E946D0E0E94550E0895AAE0B0E0E3E840
:101D0000FEE00C945A230E94DF11A82E81110E943C
:101D10003C0E5CE0852E52E0952E10E000E0702E27
:101D2000802F0E9414116C01F401E190F1904F0199
:101D3000E816F90609F444C080911E0281FD0E9454
:101D40001D11C7018C259D25B12CEE24E394F12CA7
:101D50009C012E213F21232B69F10E94630E8823D1
:101D6000B1F0BE827F82CE20DF2081E0C114D10499
:101D700009F480E088870E944C1B8160782F9A8745
:101D800089874E815F8168858A850E94B904000F2A
:101D9000111FF801E45FFD4F80819181E826F9264B
:101DA000F182E08281E0A11001C080E02A96EDE09E
:101DB0000C947623B394EE0CFF1CFFE0BF12C8CF47
:101DC0000F5F1F4F0530110509F0A9CF8FEF8983F1
:101DD0008A831B820E944C1B8160782F9D838C8399
:101DE00049815A816B818D810E94B904DBCF0E94A9
:101DF0007D0E0E94F7130E94AE040895CF93DF93E7
:101E00000E94FB0FEC01811521E5920708F042C00A
:101E1000811530E5930708F09DC0883E910530F5A7
:101E2000803E910508F092C0883A910588F4853A81
:101E3000910508F084C08130910509F487C00097AE
:101E400009F484C0049708F081C0D0E0C0E07EC0EF
:101E50008F3B9105D0F7C85AD0E0CC0FDD1FC85B8F
:101E6000DE4F0990D881C02DD46470C08115904296
:101E700050F4C11581E0D80708F068C0C03FD10513
:101E800020F3D06563C0C11590E4D907F0F2DF708C
:101E9000D06A5CC0811525E5920700F5811534E50F
:101EA000930708F08BC0811543E5940708F073C0D1
:101EB000C11582E5D80708F469C0CE01837099275F
:101EC00021E030E002C0220F331F8A95E2F7C69569
:101ED000C69580E2C89FE001112454C0C11599E560
:101EE000D907A8F4C11528E5D20708F06CC0C115C0
:101EF00036E5D30708F0A9CF8C2F0E949210C82F87
:101F0000D0E0DC2FCC27CC27DF71D0621FC0C115F9
:101F10004AE5D40708F45CC0CE0190568115904282
:101F200008F093CF8D2F8F710E94921090E0982F20
:101F3000882788279F719C012C2BE901E6CFC55A81
:101F4000D0E0CA58DE4FC881D0E0D064CE01DF9126
:101F5000CF910895E4E096958795EA95E1F783702F
:101F60002C2F26952695237040E2249F9001112462
:101F7000382B8C2F8370C1E0D0E002C0CC0FDD1F66
:101F80008A95E2F7C22BD32BDC68E0CFDC2FCC277D
:101F9000C16FD06ADBCF8370992721E030E002C0A7
:101FA000220F331F8A95E2F7C695C69590E2C99F26
:101FB000E0011124C22BD32BDA68C8CFD82FCC274D
:101FC000C46FD06AC3CFDC2FCC27C06FD06ABECF1E
:101FD0008C2F8F700E94921034E0D695C7953A9559
:101FE000E1F7CF709C2FEC01D069B0CF0E9454185C
:101FF0000E94FE0E089582389105B1F1B0F481334C
:10200000910509F475C048F48932910509F469C055
:102010008A32910509F473C008958533910509F456
:1020200059C08933910501F10895833E9105A9F1C5
:1020300038F4803E9105F9F0823E910549F108950A
:10204000863E9105A9F1873E9105C9F1843E91052F
:1020500019F52091490221FF1FC08091480284FD9B
:1020600014C087EE90E00895209148022370A1F0FB
:1020700080EE90E008952091480220FD47C0309105
:10208000490230FF09C024FF44C090E080E004C052
:102090002091480222FDF7CF08952091480222FDA9
:1020A0003BC03091490230FDE3CF24FFF5CFEDCFA7
:1020B0002091480223FFF0CF24FDE7CFD2CF20911B
:1020C000480223FD2CC03091490231FFEECF84EE4F
:1020D00090E008952091480225FFDECF89E290E04C
:1020E00008952091480225FFD7CF85E390E0089519
:1020F0002091480226FFD0CF8AE290E008952091F7
:10210000480226FFC9CF81E390E0089589E390E07B
:10211000089583EE90E0089582EE90E0089586EEB3
:1021200090E008959091480292FF06C0282F2871F0
:102130002830F9F4877F846093FF06C0282F287128
:102140002831F1F4877E84612091490220FF06C086
:10215000382F38713830D9F4877F816021FF06C06D
:10216000282F28712831D1F4877E816194FD877EE4
:102170000895282F24712430F9F68B7F8860DCCFF6
:10218000282F2471243101F78B7E8861DDCF382F11
:102190003171313019F78E7F8860E0CF282F21719F
:1021A000213121F78E7E8861E1CF80E008950E9481
:1021B0007F0D08950E94DF118FE39CE90197F1F7ED
:1021C00000C000000E94DF1180E00E94141180FF17
:1021D00004C00E94D7100E94971B08950E94DA1035
:1021E00008950E94860D811102C00E94330E0E9444
:1021F000920D80931E020E949C0D90934902809341
:1022000048020E94EE100E94970D0E949B08809148
:10221000BE010E94B308089508950E940C1108950C
:1022200008950E9410110895E82FF0E0EE0FFF1FAF
:10223000EC5AFD4F808191810895089580EA8A9536
:10224000F1F7089500C008950E941E110895F894B2
:10225000E82FE295EF70F0E031A1282F2F7081E098
:1022600090E001C0880F2A95EAF7982F9095932364
:1022700091A392A1892B82A378940895CF93DF93A1
:10228000C8E8D1E089918F3F11F00E94271181E0C9
:10229000CD38D807B9F7C9E7D1E089918F3F11F060
:1022A0000E94271181E0C838D807B9F7DF91CF9194
:1022B0000895AF92BF92DF92EF92FF920F931F9318
:1022C000CF93DF938C01D62EC62FD0E0CE01885756
:1022D0009E4F7C01FC0120812F3F09F44DC0F894F2
:1022E000E22FE295EF70F0E031A12F7081E090E0F5
:1022F00001C0880F2A95EAF7932F982B91A392A1FA
:102300008095892382A378940E942211E9E7F1E065
:1023100048E851E021E030E0B12CA12C61916F3F01
:10232000A9F1A62FA295AF70B0E090968C9190E0A5
:102330006F7002C0959587956A95E2F780FD26C07B
:10234000C901A82AB92A220F331F4E175F0731F798
:10235000F70180818F3F11F00E94271161E0A114E5
:10236000B10409F460E08D2D0E942411CC0FDD1F13
:10237000C00FD11FB982A882DF91CF911F910F9119
:10238000FF90EF90DF90BF90AF90089590E080E0D5
:10239000D8CF0E943E118AE0E4E5F2E0DF01982FF9
:1023A0001D929A95E9F7EAE4F2E0DF011D928A9521
:1023B000E9F785E00E941B120E9448030895AAE0F5
:1023C000B0E0E5EEF1E10C9462238E010F5F1F4F48
:1023D0008AE0F80111928A95E9F7F12C6F2DC80176
:1023E0000E945911F394F5E0FF12F8CF4AE050E053
:1023F000B8018AE492E00E94A023FF24F39400979E
:1024000009F4F12C892B41F08AE0F801AAE4B2E04A
:1024100001900D928A95E1F72F2D45E064E572E079
:102420008AE492E00E941C120E944B038F2D2A9690
:10243000E5E00C947E230895FF920F931F93CF93B2
:10244000DF93F82E092F162FD72FC42F222349F000
:1024500081E0809321020E944C1B90932002809384
:102460001F02809121028823A1F080911F02909188
:1024700020020E94641B059760F0EF2DF02FA12F22
:10248000BD2F90E080E0D0E08C179D073CF01092CB
:102490002102CDB7DEB7E5E00C947E232191319186
:1024A0002D933D930196F0CF0E94931D0E94720ED2
:1024B0000E94A01D08950E94A51D0E94F70E0E9473
:1024C000BF1D08950E94E51A0E94791D0E94580EB2
:1024D0000E9454120E945B120E94680EFBCF8091F2
:1024E000280280FF0DC06091070170E0660F771F22
:1024F0006038710570F56115710569F1862F0895D1
:1025000081FF07C06091070184E0689FB00111243A
:10251000EFCF6091070182FD0AC0809127028823D6
:10252000A9F02091060160910701821710F088E060
:10253000ECCF869FC001112433E0880F991F3A9594
:10254000E1F7622F70E00E943423D2CF68E070E0A0
:10255000D5CF8FE7089581E008958091280280FF0C
:102560000CC06091030170E075956795759567954E
:102570006115710549F1862F089581FF06C06091AC
:10258000030170E075956795F3CF6091030182FDBB
:102590000BC0909126029923A1F0609102018091D5
:1025A0000301961738F0682F70E06038710500F36A
:1025B0008FE70895899FC001112470E00E943423A1
:1025C000F4CF61E070E0D7CF81E00895803F31F42F
:1025D0000E946F12819580932C020895813F19F417
:1025E0000E946F12F8CF823F31F40E946F128195E2
:1025F00080932B020895833F19F40E946F12F8CF45
:10260000893F29F40E94AD1280932D0208958A3FDC
:1026100021F40E94AD128195F7CF8B3F31F40E94D7
:10262000AD12819580932E0208958C3F19F40E947B
:10263000AD12F8CF9CE0980F953070F4845F990B41
:1026400021E030E001C0220F8A95EAF780912A024A
:10265000822B80932A0208958D3F31F480912802C5
:1026600081608093280208958E3F21F48091280292
:102670008260F7CF8F3FB9F7809128028460F1CF55
:1026800040912B02803F59F480912C0287FF0DC0AE
:1026900010922C0241110BC01092270208C0813FFA
:1026A00081F480912C0218169CF3442381F08091D0
:1026B0002D0290912E02892B09F05AC01092260209
:1026C0000895823F49F447FFF0CF10922B0280918A
:1026D0002C028111ECCFE0CF833F19F41416ACF338
:1026E000E4CF90912D02893F29F41916F4F6109247
:1026F0002D02DBCF8A3F19F497FFD7CFF8CF909107
:102700002E028B3F29F497FFD0CF10922E02CDCF0F
:102710008C3F19F41916CCF3C8CF9CE0980F953074
:1027200090F4845F990B21E030E0B90102C0660F9C
:10273000771F8A95E2F7CB01809590912A02892331
:1027400080932A02B2CF8D3F31F4809128028E7F90
:1027500080932802AACF8E3F21F4809128028D7F9A
:10276000F7CF8F3F09F0A1CF809128028B7FF0CF68
:1027700008950E944C1B9C0190912B0280912C0289
:10278000982B21F0309325022093240290912D0262
:1027900080912E02982B21F0309323022093220265
:1027A00089E292E00E940D1A089586E0E9E2F2E0E3
:1027B000DF011D928A95E9F71092270210922602F6
:1027C000109228020895FC01828181110EC083813C
:1027D00081110BC08481811108C091E08581811134
:1027E00001C090E0892F8170089581E0FCCFA6E0C0
:1027F000B0E0EDEFF3E10C94642386E0E9E2F2E06F
:10280000DE01119601900D928A95E1F710922B024C
:1028100010922C0210922D0210922E028B819C811C
:10282000892B89F080912402909125020E94641BDB
:10283000AC01909127029923C9F180910801841776
:10284000150608F440C08D819E81892B91F08091FE
:102850002202909123020E94641BAC0190912602F7
:10286000992309F471C0809104018417150608F4B6
:1028700079C0BE016F5F7F4F89E292E00E949C1A8F
:10288000811105C089E292E00E94E31381110E9448
:10289000B91386E0FE013196A9E2B2E001900D92F3
:1028A0008A95E1F72696E3E00C94802320910901B4
:1028B0008AE0289F900111242417350720F69F5F96
:1028C0009093270202C09F3FD1F71B81112359F03B
:1028D0000E946F129FEF11160CF491E0899F802DDA
:1028E000112480932B021C81112359F00E946F1236
:1028F0009FEF11160CF491E0899F802D1124809395
:102900002C0230912B02332309F49DCF20912C020D
:10291000222309F498CF45EB3403C00111249923F5
:1029200059F090932B0245EB24039001112433239B
:1029300039F030932C0287CF81E080932B02F3CFC4
:1029400081E080932C027FCF209105018AE0289FAF
:10295000900111242417350708F08BCF9F5F9093C7
:10296000260202C09F3FD1F71D81112359F00E941A
:10297000AD129FEF11160CF491E0899F802D112468
:1029800080932D021E81112359F00E94AD129FEFFA
:1029900011160CF491E0899F802D112480932E0252
:1029A00030912D02332309F464CF20912E0222238B
:1029B00009F45FCF45EB3403C0011124992359F08A
:1029C00090932D0245EB240390011124332339F019
:1029D00030932E024ECF81E080932D02F3CF81E021
:1029E00080932E0246CF83E290E00E94AD23823294
:1029F00089F484E290E00E94AD23823159F485E2AB
:102A000090E00E94AD2391E0833009F090E0892F9F
:102A10008170089580E0FCCFCF93C82F6FEF8111B4
:102A200062E283E290E00E94BB236FEFC11162E19A
:102A300084E290E00E94BB236FEFC11163E085E266
:102A400090E00E94BB23CF910895089586E290E024
:102A50000E94AD23682F70E090E080E00895089513
:102A6000CF93C62F0E942F156C2F86E290E00E9414
:102A7000BB23CF91089580E00E940C1560E070E0C8
:102A8000CB010E9430150E94D4170E94B11881E03A
:102A90000E940C1508950E9425150E9426150E947B
:102AA0002F150E94F314811102C00E943B15089556
:102AB000CF93FB01C281CC2309F19C0122513F45F8
:102AC0002031310520F582510E94C118C0E08C2FC1
:102AD000CF91089581E00E94CA0843E062E081E05E
:102AE0000E943E03F3CF81E00E94D60843E062E0FB
:102AF00081E00E943E03EBCF82E0F6CF8031FFE51C
:102B00009F0789F381319F45B9F3C1E0E0CF803160
:102B1000EFE59E07F9F281319F45C9F682E0DBCFF0
:102B20002FEFFC0120830895EF92FF920F931F93E4
:102B3000CF93DF93EC01062FE881E150E33108F0F9
:102B40005DC0F0E0E350FC4D0C944823198289E00D
:102B50008A83602FCE010E944C1CCDB7DEB7E6E021
:102B60000C947D238981823069F0833071F081304B
:102B7000D9F40E94581B0E944E236A837B838C8366
:102B80009D83E7CF0E942615F6CF7E0110E0812FAE
:102B90000E941411F701928383831F5FF2E0EF0E0E
:102BA000F11C1530A1F7D5CF602FCE010E949015F2
:102BB000D0CF89818230C1F76A817B818C819D81F0
:102BC0000E944E230E943015C4CF4B816A818981B7
:102BD0000E9496179827892798279D838C83B9CFC1
:102BE0002C813D813227232732274B816A818981BD
:102BF0000E94B817AECF0E94D417ABCF8FEF888357
:102C0000A8CF0E9462188983A4CF0E9464189827D5
:102C1000892798279A8389839CCF6B8170E089816B
:102C20009A81AE014C5F5F4F9827892798270E94B1
:102C300067188FCF6B8170E089819A81AE014C5FFC
:102C40005F4F9827892798270E948C1882CF0E946F
:102C5000B1187FCF0E948417D6CF6B8170E0898135
:102C60009A81AE014C5F5F4F9827892798270E9471
:102C70000C186FCF6B8170E089819A81AE014C5F37
:102C80005F4F9827892798270E94301862CFCF93EB
:102C9000DF93EC01FB018281882309F433C1C33047
:102CA000FDE5DF07C0F5CA3F9CE5D90730F49E017A
:102CB00022503C4524313105B0F50E949C0D909383
:102CC000490280934802C1318CE5D80709F4EEC06F
:102CD00008F069C0C930ECE5DE0709F4D5C0C8F5D5
:102CE000C5308CE5D80709F4C7C000F5C330ECE562
:102CF000DE0709F4B9C008F0BBC0C230DC4509F4F6
:102D0000ADC080914802909149020E94AA0D0E9494
:102D1000530880E008C0C136EDE5DE0771F2C53A20
:102D2000FDE5DF0751F2DF91CF91089580914802D0
:102D30008062C7309CE5D90709F493C080914802AE
:102D40008061C830DC4508F48CC080914802806402
:102D500088C0809148028B7FCD30FCE5DF0709F405
:102D600080C098F4809148028E7FCB309CE5D907D3
:102D700009F477C0809148028C60CC30DC4508F4BF
:102D800070C0809148028D7F6CC0809148028F7E18
:102D9000CF30FCE5DF0709F464C008F47BC0809104
:102DA00048028F7D5EC0CD3F9CE5D90709F47AC00B
:102DB00050F5C531FCE5DF0709F486C098F4809131
:102DC0004802837FC3319CE5D90709F44AC008F45F
:102DD00071C00E94530890914802892F97FB87F990
:102DE00080583FC0CB3FFCE5DF0709F449C008F03D
:102DF00055C0809149028160CA3FDC4509F081CF0E
:102E0000809349027ECFC130EDE5DE0709F468C04A
:102E1000A8F4CF3F8CE5D80709F452C0809149024D
:102E20008360C115DD4560F380914902982F90952C
:102E300091708E7F892B90FB81F9E2CFC136EDE551
:102E4000DE0709F451C0C53AFDE5DF0709F453C0B8
:102E5000C230DD4509F055CF80E043C08091480283
:102E60008160809348024DCF809148028260F9CF03
:102E7000809148028460F5CF809148028860F1CF4C
:102E8000809149028260BCCF0E9453088091480221
:102E90008068E7CF80914802877FE3CF8091490225
:102EA0008E7FAECF809149028D7FAACF809148025C
:102EB0008F7BD7CF0E945308809148028F77D1CF64
:102EC000809149028C7F9CCF8091480282FB992798
:102ED00090F921E0922790FB82F990FB83F9C1CF12
:102EE00081E00E94360E0DCF90914802892F8F7E8F
:102EF00094FF8061B6CF90914802892F8E7F90FF1A
:102F00008160AFCF81E00FCF84E0089550E0440F9F
:102F1000551F9EE1699F400D511D112496E9899F1F
:102F2000400D511D1124CA01879608950F931F93D8
:102F3000CF93DF938430C8F46530B8F44F30A8F4F1
:102F40000E9486178C010E94AD23C82FD0E0DC2F91
:102F5000CC27C80101960E94AD239E01282BC901F0
:102F6000DF91CF911F910F91089590E080E0F8CF0D
:102F70000F931F93CF93DF93122F032F843078F496
:102F8000653068F44F3058F40E948617EC01602FCA
:102F90000E94BB23612FCE0101960E94BB23DF91CB
:102FA000CF911F910F910895AF92BF92CF92DF9270
:102FB000EF92FF921F93CF93DF938CEAC82E80E0AD
:102FC000D82ED0E07601C0E014C0F50125913491EF
:102FD000412F6C2F8D2F0E94B81782E0A80EB11CD4
:102FE0001F5F1F3091F78EE1E80EF11CCF5FC530F7
:102FF00019F0570110E0E9CFDF5F86E9C80ED11C58
:10300000D43001F7DF91CF911F91FF90EF90DF90C7
:10301000CF90BF90AF900895EF92FF920F931F93C0
:10302000CF93DF93EC018A017C01E60EF71ECE01FF
:103030008796CE15DF0529F4CDB7DEB7E6E00C9410
:103040007D23C83522E0D20740F40E94AD23F80169
:1030500080830F5F1F4F2196EACFF8011082F9CFCE
:10306000B0E0A0E0E6E3F8E10C945F237C016A01A4
:103070008C01060F171FEC01CE018796C017D107F0
:1030800029F4CDB7DEB7E8E00C947B23C83522E005
:10309000D20740F4FE01EE19FF09EC0DFD1D608121
:1030A0000E94BB232196E8CF462F843040F4753030
:1030B00030F46F3020F4672F0E949617089590E047
:1030C00080E0089580E1089581E891E00895EF920D
:1030D000FF920F931F93CF93DF93EC018A017C0142
:1030E000E60EF71ECE0181589D4FCE15DF0529F45F
:1030F000CDB7DEB7E6E00C947D23C13821E0D207DE
:1031000040F40E94AD23F80180830F5F1F4F21968A
:10311000E9CFF8011082F9CFB0E0A0E0E2E9F8E1F0
:103120000C945F237C016A018C01060F171FEC01D0
:10313000CE0181589D4FC017D10729F4CDB7DEB716
:10314000E8E00C947B23C13821E0D20740F4FE0173
:10315000EE19FF09EC0DFD1D60810E94BB23219635
:10316000E7CFCF93DF93CFE7D2E060E0CE010E94BC
:10317000BB232196C11584E0D807B9F7DF91CF9121
:103180000895A4E0B0E0E7ECF8E10C946023F82E99
:103190008FE08F1548F18FEF93E00E94AD238111EE
:1031A00023C00FE712E0F11023C019821A821B829C
:1031B0001C82DD24D39478018FEFE81AF80AC80145
:1031C0000E94AD2389831A82882371F09FEF980FA4
:1031D0009330D8F48A83D9820E5F1F4FC7010E94B3
:1031E000AD238B83811112C02496E7E00C947C23DD
:1031F000011584E01807C1F3C8010E94AD238111B5
:1032000001C0FA940F5F1F4FCECF8701CE01019608
:103210000E948E04D0CFCF93DF93EB0186319C4583
:1032200011F50E94980C9A81992399F08A7A91E07D
:1032300009F490E090932F02811109C089E20E9465
:10324000700C0E94D90C80E0DF91CF91089585E346
:10325000F6CF80912F02811104C089E20E94780C80
:10326000F0CF85E3FBCF81E0EFCF0F931F93CF9398
:10327000DF93C42FD22FFC0182818823C9F04093B1
:1032800032020E944C1B909331028093300280E204
:103290008C0F883040F4C77081E001C0880FCA9558
:1032A000EAF70E94FF05DF91CF911F910F910895DA
:1032B00010913202141332C0809130029091310289
:1032C0000E94641B883C910548F5C0E2CD0F1D1794
:1032D000B9F080E2810F883040F4177081E001C0BE
:1032E000880F1A95EAF70E940606C83048F481E074
:1032F0009D2F977001C0880F9A95EAF70E94FF05ED
:10330000802F0E94F605C83070F6D77081E001C0AA
:10331000880FDA95EAF70E940606C5CF80E28C0F87
:10332000883008F6C77081E001C0880FCA95EAF7B7
:10333000F2CF0F939C01CB01233F4CE5340759F1A9
:10334000A8F4283DFCE53F0701F1293D4CE5340791
:10335000D1F1273D3C4591F406E221EE41EE67EDC7
:103360007CE50E94351980E00F910895253FFCE52A
:103370003F07E9F0B0F0263F3C45F9F0FC018281BF
:10338000882339F110923202EFCF07E225EE45EEA5
:1033900068ED7CE5E6CF06E221EE40EE63EF7CE5EA
:1033A000E0CF07E225EE44EE64EF7CE5DACF06E2FB
:1033B00021EE42EE65EF7CE5D4CF07E225EE46EE46
:1033C00066EF7CE5CECF08E221E045EE69ED7CE5D5
:1033D000C8CF81E0C9CF90939D0180939C0108954F
:1033E00090933802809337020895E0913702F0916C
:1033F0003802309729F00190F081E02D0995089569
:1034000080E00895E0913702F0913802309721F082
:103410000280F381E02D09950895E0913702F09143
:103420003802309739F022E0DC012C930480F581DA
:10343000E02D099508952091350230913602281724
:10344000390771F09093360280933502E09137028C
:10345000F0913802309721F00680F781E02D099530
:10346000089520913302309134022817390771F002
:103470009093340280933302E0913702F091380246
:10348000309721F00084F185E02D099508959C0185
:103490002E5F3F4FAC01485F5F4F80E02417350738
:1034A00009F40895F90191919F019923B9F38F5F70
:1034B000F5CF662349F0FC01329608962191261734
:1034C00029F0E817F907D1F780E0089581E0089521
:1034D0009C01FC0132969FEF80E04191461751F02C
:1034E0009F3F19F4411101C0982F8F5F8630A9F7D3
:1034F0009F3F09F40895290F311D97FD3A95F90171
:1035000062830895FC01329608962191261303C028
:10351000DF0111971C92E817F907B9F708950E9487
:10352000681A08950E94821A0895029626E0FC0106
:1035300011922A95E9F7089546E050E00E94A023F1
:1035400021E0892B09F420E0822F089508950E943C
:10355000A61A0895811106C081E0809339020E9465
:10356000A71A089582E0F9CF83E0809339020E9480
:10357000A71A08950E94AA1A089581E0809339023B
:103580000E94A71A08950E94BD1A089508950895EB
:103590000E94C71A0895089508950E94C61A0895B2
:1035A000CF930E94CB1A0E94DF110E94CC1AC0E078
:1035B0008C2F0E941411892B31F4CF5FC530C1F7D5
:1035C00080E0CF91089581E0FCCF85B7806885BF0A
:1035D00085B7806885BF08951F921FB61F9211247A
:1035E0008F939F93AF93BF9380913A02811113C041
:1035F00080915E0290915F02A0916002B0916102A1
:103600004196A11DB11D80935E0290935F02A0932D
:103610006002B0936102BF91AF919F918F911F9013
:103620001FBE1F90189580916602843031F10E9470
:10363000C10310923A0288E190E020E40FB6F894BA
:10364000A895809360000FBE2093600083B7817FB0
:10365000846083BF83B7816083BF7894889583B784
:103660008E7F83BF0FB6F894A89580916000886123
:1036700080936000109260000FBE08950E9453086E
:103680000E94C603089582E084BD93E095BD9AEF41
:1036900097BD80936E0008952FB7F89480915E02D5
:1036A00090915F02A0916002B09161022FBF0895D6
:1036B0002FB7F89460915E0270915F028091600272
:1036C000909161022FBF08959C014FB7F8948091AB
:1036D0005E0290915F02A0916002B09161024FBFC3
:1036E000821B930B089578941F921FB61F9211248A
:1036F0008F939F93AF93BF9380915E0290915F02EF
:10370000A0916002B09161020196A11DB11D80934C
:103710005E0290935F02A0936002B0936102BF913A
:10372000AF919F918F911F901FBE1F90189581E0C0
:103730008093E00080E28093D8001092C9008FE16E
:103740009EE40197F1F700C0000087E090EBDC01F8
:1037500080936F0290937002A0937102B0937202F3
:1037600088E19CE00FB6F894A895809360000FBEA6
:1037700090936000FFCF88E19CE00FB6F894A89585
:10378000809360000FBE90936000FFCF809146024F
:10379000089508959C0184E08093E9009FEF809153
:1037A000E800915085FD06C085ED8A95F1F700008F
:1037B0009111F5CF8091E80085FF0CC050E040E00A
:1037C00066E070E0C9010E945E1E8091E8008E777D
:1037D0008093E8000895CF93DF93EC0181E080931C
:1037E000E9008FEF9091E800815095FD06C095EDBE
:1037F0009A95F1F700008111F5CF8091E80085FFDF
:1038000014C050E040E068E070E0CE010E945E1E0F
:103810008091E8008E778093E80088E0FE01AEE3B7
:10382000B2E001900D928A95E1F7DF91CF91089572
:1038300080933B0270933D0260933C02809166024C
:103840008430F9F48093E9008FEF9091E800815083
:1038500095FD06C095ED9A95F1F700008111F5CF21
:103860008091E80085FF0DC050E040E063E070E02B
:103870008BE392E00E945E1E8091E8008E77809339
:10388000E8000895BC0184E00E94181C0895BC0162
:1038900083E00E94181C0895CF93FC01603221F54B
:1038A00080916602843001F5C091E900CF702091CB
:1038B000EC00922F917020FD90E8C92B82E080935C
:1038C000E9008091E80080FF0CC050E040E060E239
:1038D00070E0CF010E945E1E8091E8008E77809399
:1038E000E800CF70C093E900CF9108958091650200
:1038F000811109C00E943D200E949A208091E2001F
:1039000084608093E20008951092650208950E94F9
:10391000BD1A08956091620281E0611101C080E0EA
:103920000E94B41A08959091660281E0943009F0E3
:1039300080E0609162020E94BA1A089542E061EC50
:1039400081E00E94B91F42E261EC84E00E94B91F4D
:1039500042E261EC82E00E94B91F42E260EC83E047
:103960000E94B91F9091660281E0943009F080E0D6
:10397000609162020E94AA1A0895809168028330C1
:1039800009F463C030F48130E1F1823009F4A0C061
:1039900008958A3009F48CC08B3009F471C08930E5
:1039A00009F052C080916702813209F04DC08091C8
:1039B0006B0290916C02009719F0029709F044C0D5
:1039C0008091E800877F8093E8008091E80082FF83
:1039D00037C09091F3008091F200029731F480910A
:1039E000F100813011F0863021F48091F100809354
:1039F00046028091E8008B778093E8000E94ED1FDB
:103A000023C080916702813AF9F48091E800877FB2
:103A10008093E80080916B0290916C02892B61F495
:103A200068E08EE392E070E00E94FC1E8091E80066
:103A30008B778093E800089560E090E080E0F3CF1A
:103A4000809166028111C1CF089580916702813A09
:103A5000D9F780916B0290916C02892BA9F7809124
:103A6000E800877F8093E8008091E80080FFFCCF2A
:103A7000809116018093F1008091E8008E77BCCF91
:103A800080916702813201F780916B0290916C0204
:103A9000892BD1F68091E800877F8093E8000E940F
:103AA000ED1F80916902809316010E9453080895CA
:103AB00080916702813241F68091E800877F809390
:103AC000E8000E94ED1F80916A02809347020895EA
:103AD00080916702813A09F0B7CF8091E800877F33
:103AE0008093E8008091E80080FFFCCF809147023E
:103AF000C1CF84B7877F84BF0FB6F894A895809113
:103B00006000886180936000109260000FBE80E8C2
:103B100090E00FB6F89480936100909361000FBE1F
:103B20000E94C31A08950E943D200E949A20E2EE4E
:103B3000F0E080818460808378940E941923089546
:103B40008AE091E00E94F019089580916602853024
:103B500031F480916602853019F00E943E1B089571
:103B60000E94131B80916402882399F30E94D01A4B
:103B7000882379F30E94481E0E945308EACFA0E2EE
:103B8000B0E0E5ECFDE10C946523809166028430A1
:103B900009F583E08093E9008091E80082FF1AC074
:103BA0008091E80090E085FF09C050E040E060E2CD
:103BB00070E0CE0101960E94AD1E91E08091E80078
:103BC0008B778093E800992329F060E2CE0101967B
:103BD0000E949415A096E2E00C9481230E94F11DAE
:103BE0000895292F33272330310521F168F421303E
:103BF000310509F443C02230310509F444C090E096
:103C000080E030E020E026C02132310551F122323F
:103C10003105A9F76330710590F7FB01EE0FFF1F27
:103C2000E057FE4F2081318163577E4FFB01808139
:103C300090E010C099278130910581F0009729F01C
:103C40000297E9F6E4EBF3E002C0E2EEF3E08491E0
:103C500090E09F01FA01318320830895EEECF3E0B8
:103C6000F6CF6330710558F6660F771FFB01EA56F1
:103C7000FE4F2081318189E090E0ECCF82E190E03D
:103C800021E434E0E7CF8BE590E026EE33E0E2CFAD
:103C900080E189BD82E189BD09B400FEFDCF80913C
:103CA000D8008F7D8093D8008091E000826080935F
:103CB000E0008091E00081FDFCCF0895AF92BF92BB
:103CC000CF92DF92FF920F931F93CF93DF936C01FC
:103CD000EB018A010E940C20F82E811123C00115EE
:103CE000110539F0F80180819181C81BD90BC80EEC
:103CF000D91EB12CA12C2097A9F08091E80085FD58
:103D000022C08091E8008E778093E80001151105AC
:103D1000A1F0F80180819181A80EB91EB182A08224
:103D200085E0F82E8F2DDF91CF911F910F91FF909D
:103D3000DF90CF90BF90AF9008950E940C20882311
:103D4000D1F2F82EEFCFF60181916F018093F1004F
:103D50002197FFEFAF1ABF0ACECFAF92BF92CF929B
:103D6000DF92FF920F931F93CF93DF936C01EB01D0
:103D70008A010E940C20F82E811123C00115110523
:103D800039F0F80180819181C81BD90BC80ED91E6A
:103D9000B12CA12C2097A9F08091E80085FD22C0CC
:103DA0008091E8008B778093E80001151105A1F060
:103DB000F80180819181A80EB91EB182A08285E0B0
:103DC000F82E8F2DDF91CF911F910F91FF90DF90F3
:103DD000CF90BF90AF9008950E940C208823D1F21D
:103DE000F82EEFCF8091F100F60181936F012197BA
:103DF000FFEFAF1ABF0ACECFFC0180916D02909108
:103E00006E0286179707A0F06115710529F490914D
:103E1000E8009E779093E80090E06115710551F4F9
:103E2000911108C08091E80082FF34C080E00895BD
:103E3000BC01F2CF809166028823C1F18530C1F1C7
:103E40008091E80083FD30C08091E80082FDEACFD8
:103E50008091E80080FFE1CF8091F3002091F20093
:103E6000382F6115710519F02830310558F091E0AF
:103E70002830310509F090E02091E8002E7720935A
:103E8000E800CBCF81918093F100615071092F5FE1
:103E90003F4FE7CF80916602882341F0853041F0A3
:103EA0008091E80083FFBECF81E0089582E008950D
:103EB00083E00895FC0180916D0290916E02861757
:103EC0009707A0F06115710529F48091E8008E77BD
:103ED0008093E80090E06115710551F4911108C0DC
:103EE0008091E80082FF35C080E00895BC01F2CFE8
:103EF000809166028823C9F18530C9F18091E8007C
:103F000083FD31C08091E80082FDEACF8091E80016
:103F100080FFE1CF8091F3002091F200382F6115EE
:103F2000710519F02830310558F091E0283031053D
:103F300009F090E08091E8008E778093E800CBCF85
:103F400084918093F1003196615071092F5F3F4F4A
:103F5000E6CF80916602882341F0853041F0809160
:103F6000E80083FFBDCF81E0089582E0089583E0FB
:103F70000895982F973028F08F708093E90081E0A2
:103F800008959093E900242F762F50E0981731F090
:103F90007091EC002091ED005091F00021FD02C0E5
:103FA0009F5FE8CF3091EB003E7F3093EB00309184
:103FB000ED003D7F3093ED003091EB0031603093A8
:103FC000EB007093EC002093ED005093F0002091F3
:103FD000EE0027FDE5CF80E008958091670287FF1E
:103FE00013C08091E80082FF06C08091E8008B77C3
:103FF0008093E80004C0809166028111F2CF089599
:10400000809166028823D9F38091E80080FFF8CF81
:104010008091E8008E77ECCF2091E4003091E500AC
:1040200095E6A9012091EC00822F817020FF06C047
:104030008091E80080FF06C080E008952091E800AC
:1040400022FD1AC080916602882389F0853089F0AC
:104050008091EB0085FD0FC02091E4003091E500D8
:1040600042175307F9F29150E1F684E0089582E097
:10407000089583E0089581E008950E94AC200E9495
:10408000B420E0EEF0E0808181608083E8EDF0E034
:1040900080818F77808319BCA7EDB0E08C918E7FF3
:1040A0008C9380818F7E80831092650208950F9398
:1040B0001F93CF93DF930E94AC200E94B420C8EDE1
:1040C000D0E088818F778883888180688883888121
:1040D0008F7D888319BC1092660210926202109242
:1040E00064021092630200EE10E0F80180818B7F81
:1040F000808388818160888342E060E080E00E9464
:10410000B91FE1EEF0E080818E7F8083E2EEF0E087
:10411000808181608083808188608083F8018081D4
:104120008E7F8083888180618883DF91CF911F910A
:104130000F910895E8EDF0E080818F7E8083E7EDB8
:10414000F0E080818160808384E082BF81E08093A1
:1041500065020E9457200895E8EDF0E080818E7F8F
:1041600080831092E20008951092DA001092E1002C
:1041700008951F920F920FB60F9211242F933F9321
:104180004F935F936F937F938F939F93AF93BF935F
:10419000EF93FF938091E10082FF0BC08091E200DA
:1041A00082FF07C08091E1008B7F8093E1000E9435
:1041B00018238091DA0080FF19C08091D80080FF19
:1041C00015C08091DA008E7F8093DA008091D9004B
:1041D00080FF96C080E189BD82E189BD09B400FEFF
:1041E000FDCF81E0809366020E94761C8091E10001
:1041F00080FF19C08091E20080FF15C08091E2002D
:104200008E7F8093E2008091E20080618093E200E3
:104210008091D80080628093D80019BC85E080939B
:1042200066020E948A1C8091E10084FF2BC080916D
:10423000E20084FF27C080E189BD82E189BD89B5A4
:10424000982F917080FFFBCF8091D8008F7D809355
:10425000D8008091E1008F7E8093E1008091E200A0
:104260008F7E8093E2008091E20081608093E20083
:1042700080916202882309F449C084E08093660239
:104280000E94931C8091E10083FF29C08091E2008D
:1042900083FF25C08091E100877F8093E10082E069
:1042A00080936602109262028091E1008E7F80937B
:1042B000E1008091E2008E7F8093E2008091E20035
:1042C00080618093E20042E060E080E00E94B91FDC
:1042D0008091F00088608093F0000E94871CFF911D
:1042E000EF91BF91AF919F918F917F916F915F916E
:1042F0004F913F912F910F900FBE0F901F901895E7
:1043000019BC109266020E94841C70CF8091E30059
:1043100087FD93E090936602B3CF1F920F920FB682
:104320000F9211242F933F934F935F936F937F933B
:104330008F939F93AF93BF93CF93DF93EF93FF93AD
:10434000D091E900DF708091EC00C82FC17080FD32
:10435000C0E81092E9008091F000877F8093F00020
:1043600078940E94D1211092E9008091F000886039
:104370008093F000CD2BCF70C093E900FF91EF91B7
:10438000DF91CF91BF91AF919F918F917F916F916D
:104390005F914F913F912F910F900FBE0F901F9003
:1043A0001895AAE2B0E0E7EDF1E20C94642387E609
:1043B00092E02091F100FC012193CF01F2E08F36D1
:1043C0009F07B9F70E94BD1C8091E80083FF1EC1C2
:1043D00080916702909168029A3008F017C1E92F26
:1043E000F0E0E05FFB4D0C944823803899F0823870
:1043F00009F00CC180916B028F70873008F006C104
:104400008093E9008091EB0085FB882780F910926A
:10441000E90006C08091630290916402911182606C
:104420009091E800977F9093E8008093F1001092BC
:10443000F1008091E8008E77E5C0882309F4D3C0AD
:10444000823009F0E3C0809169028111D6C0809169
:104450006B028F702FEF280F263008F0D7C08093A3
:10446000E9002091EB0020FFC8C0933031F4809127
:10447000EB0080628093EB00C0C09091EB009061F4
:104480009093EB0021E030E001C0220F8A95EAF71B
:104490002093EA001092EA008091EB008860EACF56
:1044A0008111B4C0109169021F778091E300807878
:1044B000812B8093E3008091E800877F8093E80060
:1044C0000E94ED1F8091E80080FFFCCF8091E30007
:1044D00080688093E30082E0111183E0809366029C
:1044E00095C08058823008F091C080916902909107
:1044F0006A028C3D23E09207A1F583E08A838AE279
:1045000089834FB7F894DE01139620E03EE051E234
:10451000E32FF0E050935700E49120FF03C0E295B1
:10452000EF703F5FEF708E2F90E0EA30C0F0C796DB
:104530008D939D932F5F243159F74FBF8091E800F1
:10454000877F8093E8006AE270E0CE0101960E94C6
:10455000FC1E8091E8008B778093E80057C0C096DE
:10456000E7CF60916B0270916C02AE014F5F5F4FBD
:104570000E94EE1DBC01892B09F448C09091E8000F
:10458000977F9093E80089819A810E945A1FE1CF1A
:104590008038E1F58091E800877F8093E800809182
:1045A00062028093F10045CF811130C09091690281
:1045B000923060F58091E800877F8093E8009093C7
:1045C00062020E94ED1F80916202882311F084E054
:1045D00005C08091E30087FDFACF81E080936602F9
:1045E0000E949E1C13C080916902813079F481E0A1
:1045F000933009F080E0809364021092E90080918A
:10460000E800877F8093E8000E94ED1F8091E8001A
:1046100083FF0AC08091E800877F8093E800809143
:10462000EB0080628093EB00AA96E3E00C94802379
:104630000895CF93809166028823A1F0C091E9008C
:10464000CF709091EC00892F817090FD80E8C82B8D
:104650001092E9008091E80083FD0E94D121CF7083
:10466000C093E900CF91089597FB072E16F40094AC
:1046700007D077FD09D00E948C2307FC05D03EF4BB
:10468000909581959F4F0895709561957F4F0895FE
:10469000EE0FFF1F0590F491E02D099469279627EE
:1046A000692778278727782708952F923F924F927E
:1046B0005F926F927F928F929F92AF92BF92CF92B2
:1046C000DF92EF92FF920F931F93CF93DF93CDB7BB
:1046D000DEB7CA1BDB0B0FB6F894DEBF0FBECDBF33
:1046E00009942A88398848885F846E847D848C8404
:1046F0009B84AA84B984C884DF80EE80FD800C810D
:104700001B81AA81B981CE0FD11D0FB6F894DEBFEF
:104710000FBECDBFED010895AA1BBB1B51E107C021
:10472000AA1FBB1FA617B70710F0A61BB70B881F41
:10473000991F5A95A9F780959095BC01CD010895D0
:10474000FB01DC0104C08D910190801921F44150DE
:104750005040C8F7881B990B0895F999FECF92BD78
:1047600081BDF89A992780B50895A8E1B0E042E0AC
:1047700050E00C94E123262FF999FECF92BD81BD24
:10478000F89A019700B4021639F01FBA20BD0FB68F
:10479000F894FA9AF99A0FBE08950396272F0E946B
:1047A000BC230E94BB23252F0E94BC23242F0C94E2
:1047B000BC230196272F0E94BC230C94BB23DC0151
:1047C000CB01FC01F999FECF06C0F2BDE1BDF89A1C
:1047D000319600B40D9241505040B8F70895F894C6
:1047E000FFCF480648067906790606072207A8067D
:1047F000A8062D079407A307A307A615B215D91578
:10480000E515F015FB15FE15FE15FE15FE15FE153A
:10481000011605160D161A1627162A162D163A1603
:10482000F5211D2206231D22062350227122062374
:04483000C822D422A4
:104834000202280850011E0A1401C61BEB1BCA1BE6
:10484400471C421CC91B01E200E900EA00B500B69E
:1048540000B700CD008301CC008A019201940121AC
:1048640002230224022502260227022A02B300B4EC
:10487400006F007000818283E200E900EA00B50065
:10488400B600B700CD008301CC008A0192019401E7
:104894002102230224022502260227022A02B3004F
:1048A400B4006F007000818283F7F6F5F4F1F0C66E
:1048B4003037949697363534909192936740227BA3
:0C48C400F00453047504F80311043104DF
:00000001FF
