:100000000C9489010C94C1010C94C1010C94C101A0
:100010000C94C1010C94C1010C94C1010C94C10158
:100020000C94C1010C94C1010C942D1C0C94011D65
:100030000C9411170C94C1010C94C1010C94C101D2
:100040000C94C1010C94C1010C94C1010C94C10128
:100050000C94C1010C9498170C94C1010C94C1012B
:100060000C94C1010C94C1010C94C1010C94C10108
:100070000C94C1010C94C1010C94C1010C94C101F8
:100080000C94C1010C94C1010C94C1010C94C101E8
:100090000C94C1010C94C1010C94C1010C94C101D8
:1000A0000C94C1010C94C1010C94C10129001E00E3
:1000B0001F0020002100220023002400250026002C
:1000C00027002D002E002A004A002B0014001A00E1
:1000D0000800150017001C0018000C001200130087
:1000E0002F00300031004B003900040016000700DB
:1000F00009000A000B000D000E000F003300340051
:10010000000028004E00E10000001D001B0006005A
:100110001900050011001000360037003800E50016
:1001200052004D00E000E300E2000000000000008B
:100130002C0000000000E6000000015150005100BA
:100140004F0035023A003B003C003D003E003F00BE
:100150004000410042004300440045004C000100C3
:100160000100010001000100010001000100010087
:100170000100010001000100010001000100010077
:100180000100010001000100010001000100010067
:100190000100010001000000010001000100000059
:1001A0000100010001000100010001000100010047
:1001B0000100010001000100010001000100010037
:1001C000000000000000010000000000010000002D
:1001D000010001000100010018034D0069006B00DF
:1001E00065006E0065006B006F0020003600350072
:1001F00000001203740061006B0069007300680066
:1002000069006D0000000403090409023B000201BB
:1002100000A0FA09040000010301010009211101F5
:1002200000012240000705810308000109040100C4
:100230000103000000092111010001227B000705D4
:1002400082032000011201000200000008347954EA
:100250006D01000102000105010902A101850209E9
:1002600001A1000509190129081500250195087546
:100270000181020501093009311581257F9502753B
:1002800008810609381581257F95017508810605C5
:100290000C0A38021581257F950175088106C0C0BA
:1002A00005010980A101850319012AB7001501265E
:1002B000B700950175108100C0050C0901A10185E9
:1002C0000419012AA002150126A0029501751081CA
:1002D00000C005010906A101050719E029E715007D
:1002E00025019508750181029501750881010507B1
:1002F000190029FF150026FF0095067508810005E5
:10030000081901290595057501910295017503915B
:1003100001C011241FBECFEFDAE0DEBFCDBF04B6AF
:1003200003FE18C080917B0290917C02A0917D0217
:10033000B0917E028730904BA740B04B59F4109299
:100340007B0210927C0210927D0210927E02E0E00D
:10035000F8E3099511E0A0E0B1E0E8EEFEE302C0A9
:1003600005900D92AE38B107D9F722E0AEE8B1E0C2
:1003700001C01D92AB37B207E1F70E9462110C94E5
:100380005C1F0C94000081E0089581E008950E94B4
:10039000C501089508950E94CA010895A5E0B0E03E
:1003A000E4EDF1E00C94D11E49835A833091910120
:1003B00089819A81311119C0662399F0222389F02D
:1003C0000E944A08182F682F89819A810E94260866
:1003D00069817A81812F0E94D10E2596E3E00C94E9
:1003E000ED1E0E943808182FF3CF0E944A08698139
:1003F0007A81F1CFFC01262F408151816281738186
:1004000084810E94CE01089581E00895CF93DF9307
:10041000EC0160E00E94FA01BE010E94CB01DF9175
:10042000CF9108950E940D1008950E941110089513
:1004300008950E9475060E9418022FEF84E39CE045
:10044000215080409040E1F700C0000008950E94D4
:1004500019020E94BC1708950E9419020E94E01719
:1004600008950F931F93CF93DF938C0161E00E9457
:10047000FA01EC01B8010E94C701811106C080E0B9
:10048000DF91CF911F910F910895B801CE010E9485
:10049000BE158823A1F3B801CE010E94F31388236F
:1004A00071F3B801CE010E943015882341F3F801A1
:1004B0008281882361F0CB35FDE5DF0701F158F437
:1004C000C115ECE5DE0791F0CF3DDC4591F0C801A8
:1004D0000E94C301D5CFCD358DE5D80769F090F0E6
:1004E000C83ADD45A1F70E942C02C9CF0E9427021D
:1004F000C6CF0E94100DF7CF0E944A0CE8CF0E9491
:10050000540CE5CF0E94580CE2CF0E94ED160E94D9
:10051000A20208950E94A6020E94F216089508956C
:100520000E948F02089581E008950E949302089529
:100530000895CF93C82F0E9490028C2F0E9495029D
:10054000CF91089580E00E94990208950E941A16A2
:100550000E94990208950E941A169091900198178E
:1005600021F0809390010E9499020895ABE0B0E0E1
:10057000ECEBF2E00C94D21E4F83588769877A87A0
:100580008B8761110E94950B1E821D8285E0FE0102
:100590003796DE01119601900D928A95E1F78C81D4
:1005A0009D81892B61F449815A816B817C818D8188
:1005B0009E810E94BE0A2B96E2E00C94EE1E898179
:1005C0009A8189238F3F79F3CE0101960E9404021C
:1005D0008111E9CFF0CFFC01808191810E948408D4
:1005E0000895CF93C82F8823C9F08238C9F40E9498
:1005F0001A1681FD13C089E30E944D0B0E94B60BB1
:100600002FEF81EE94E0215080409040E1F700C050
:10061000000089E30E94550B0E94B60BCF9108950C
:100620008338A1F40E941A1680FDF8CF83E50E945A
:100630004D0B0E94B60B2FEF81EE94E021508040CD
:100640009040E1F700C0000083E5E4CF8438A1F4D6
:100650000E941A1682FDE2CF87E40E944D0B0E9491
:10066000B60B2FEF81EE94E0215080409040E1F7EF
:1006700000C0000087E4CECF8CEF8C0F813A90F45D
:100680006C2F80910001909101010E947E168823B9
:1006900029F08C2F0E94550B0E94B60B8C2F0E94C4
:1006A0004D0BBACF80E28C0F883048F4C77081E0E0
:1006B00001C0880FCA95EAF70E94780BADCFEBE531
:1006C000EC0FE33040F4F0E0EB5BFE4F808190E014
:1006D0000E944016A3CFE8E5EC0FE73150F4F0E0BC
:1006E000EE0FFF1FE95EFE4F808191810E9456163A
:1006F00095CFCD3E08F492CF8C2F0E94E6110E9438
:10070000B9128CCF882309F455C0823879F40E943D
:100710001A1681FF4FC089E30E944D0B0E94B60B51
:1007200089E30E94550B0E94B60B0895833859F453
:100730000E941A1680FF3EC083E50E944D0B0E9466
:10074000B60B83E5EECF843859F40E941A1682FF67
:1007500031C087E40E944D0B0E94B60B87E4E1CFC5
:100760009CEF980F913AE8F290E2980F983050F48D
:10077000877091E001C0990F8A95EAF7892F0E944E
:100780007E0BD1CF9BE5980F933028F490E080E06A
:100790000E944016089598E5980F973128F490E04C
:1007A00080E00E94561608958D3E20F00E9440126F
:1007B0000E94B91208951F93CF93DF93182FEB0176
:1007C0000E94F102209739F4812F0E948203DF9169
:1007D000CF911F9108958FE99FE00197F1F700C035
:1007E00000002197EFCF70E060E0893311F460E5FD
:1007F00070E00E94DB030895882321F00E94780BAB
:100800000E94B60B0895882321F00E947E0B0E945F
:10081000B60B0895B0E0A0E0E0E1F4E00C94CB1E4C
:100820006C01D62FC72FFC011281F580F2949FE056
:10083000F9220E946E0BE82E8823B9F0E12E1123D5
:10084000A1F08C2F807F803421F080E28D0F8830E2
:10085000D0F08091550282FF16C082E00E94190CF0
:100860000E946E0B91E0E82EE926BC2EB2948FE038
:10087000B822FBE0FB1508F468C0EB2DF0E0E25A6B
:10088000F04E0C94BC1EE12CF0CF0C2F0F70C07FEB
:1008900011F00295007F112399F0002359F080E2B6
:1008A0008D0F883010F0D11107C0802F0E94780B77
:1008B0000E94B60B8D2F41C0802F0E94880BF8CF6D
:1008C0008D2F0E948203002309F43FC080E28D0F28
:1008D000883010F0D11104C0802F0E947E0B03C01D
:1008E000802F0E948E0B0E94B60B2FC00C2F0F7012
:1008F000C07FC03211F00295007FDD2381F0D1303E
:1009000009F463C0112309F46DC0FF2009F463C02A
:10091000F601858180FFCECF8F7085835CC080918A
:10092000550282FD33C0112359F0002329F0802F96
:100930000E94780B0E94B60B80E00E94F10205C075
:1009400080E00E9482030111C7CFEB2DE850FF0B1E
:10095000349720F40E941A160E949902EE2089F022
:100960000E946A0B80FD0DC0F60112820E94640B8A
:100970000E942E07C6010E9435060E94640B0E9449
:100980005007CDB7DEB7E9E00C94E71E112389F0DC
:10099000F11006C00E94980B802B0E94FC03D5CF5B
:1009A00021E0F212F7CF0E94980B802B0E949F0B40
:1009B000CCCFF11006C00E94AC0B802F0E94030424
:1009C000C4CF31E0F31609F2F6CF112331F085E000
:1009D0008F1508F4BACF802FE0CF94E09F1508F46C
:1009E000B4CFEBCFFF2049F3D93349F4FFEF27EE23
:1009F00033E0F15020403040E1F700C000008D2F7F
:100A00000E948203A2CF8C2F86958695837069F011
:100A1000813009F09ACF8D2F9C2F9370111102C055
:100A200090E080E00E94561690CF8D2F9C2F9370FF
:100A3000111102C090E080E00E94401686CF8D2FF9
:100A4000112329F00E94E6110E94B9127ECF0E9464
:100A50004012FACF8C2F837009F041C0111175CF6D
:100A60004D2F429546954770440F440F0D2F0F7040
:100A700010E030E020E0042E04C0000F111F221F00
:100A8000331F0A94D2F760E070E0CB01D4FF0FC0AF
:100A90006FE070E080E090E004C0660F771F881F71
:100AA000991F4A95D2F76095709580959095C69557
:100AB000C695C370602B712B822B932BC23049F0EB
:100AC00058F4C13019F00E94D9063FCF0E94C606E3
:100AD0003CCF0E94EC0639CF0E94C30636CF8695E4
:100AE000112311F08C2F8170882309F42ECF4D2F04
:100AF000429546954770440F440F0D2F0F7010E03C
:100B000030E020E0042E04C0000F111F221F331F0D
:100B10000A94D2F760E070E0CB01D4FF0FC06FE021
:100B200070E080E090E004C0660F771F881F991F77
:100B30004A95D2F76095709580959095C695C69523
:100B4000C370602B712B822B932BC23049F058F469
:100B5000C13019F00E94A907F8CE0E949607F5CE81
:100B60000E94BC07F2CE0E940507EFCECF70112382
:100B700029F08C2F0E942E078D2F0FCF8D2F0E94D2
:100B800003048C2F0E945007E0CED23F51F160F455
:100B9000D03FB9F0D13F81F0112309F449C0F110E1
:100BA00089CE8C2F8F7121C0D33F11F1D43FA1F793
:100BB0008091550282FD26C08C2F8F71112311F375
:100BC00014C0112349F084E08F1508F4BECE8C2F99
:100BD0008F710E947407B9CE95E09F1508F4B5CEC9
:100BE000F6CF8C2F8F711111CDCF0E942E07ADCE75
:100BF000112329F08C2F8F710E941807A6CE0E9416
:100C00001207A3CE112349F0CF718C2F0E942E071B
:100C100063E08C2F0E94FB0B98CE81E00E94190CA0
:100C2000E1E0EF1508F091CE82E00E94190C8DCE24
:100C3000F110DACE8C2F8F71A5CF0F931F93CF9326
:100C4000DF93EC01688179818A810E948F088C0191
:100C50000E94CF070E94C206B801CE010E940A047A
:100C6000DF91CF911F910F910895CF93DF93EC0106
:100C70008B819C81892B29F08881998189238F3FE1
:100C800051F4DF91CF910895CE010E941D06CE014F
:100C90000E940602F6CFCE010E9431028111F4CFEC
:100CA0000E946E0B882369F38A81882351F3809117
:100CB000550282FFE6CF82E00E94190CE2CF90E05D
:100CC00080E00E94401690E080E00E9456160E944C
:100CD000950B0E94B60B0E94D5120E94B91208957E
:100CE0000E945D0B0E945F0608950E94850B0E9482
:100CF0007006089592959F70963091F058F4925F27
:100D00009F70923058F4803F19F030F4883E30F4F0
:100D100081E008959A5FF4CF843FD1F380E0089595
:100D2000883EB0F3813FD1F7F3CFFC018081918100
:100D30000E9484080E947A060895A5E0B0E0E3EAE4
:100D4000F6E00C94D21E2596E2E00C94EE1EA6E08E
:100D5000B0E0EDEAF6E00C94D21E2696E2E00C94A8
:100D6000EE1E08950E94B10608950E94B206609397
:100D7000C8017093C9018093CA019093CB010E946E
:100D80005F06089508950E94B50608950F931F9376
:100D90000091C8011091C9012091CA013091CB0185
:100DA000602B712B822B932B0E94B5061F910F9104
:100DB00008950F931F930091C8011091C9012091CC
:100DC000CA013091CB0160237123822393230E94B7
:100DD000B5061F910F9108950F931F930091C801BD
:100DE0001091C9012091CA013091CB016027712770
:100DF000822793270E94B5061F910F9108950E94A4
:100E0000B10608950E94FF0608950E9402076093AC
:100E1000C4017093C5018093C6019093C7010E94DD
:100E20005F06089560E070E0CB010E940507089519
:100E30000F931F9341E050E060E070E08A019B0156
:100E400004C0000F111F221F331F8A95D2F7C9015A
:100E5000B8010E9405071F910F9108950F931F93EA
:100E600041E050E060E070E004C0440F551F661F91
:100E7000771F8A95D2F78091C4019091C501A09106
:100E8000C601B091C7018A019B01082B192B2A2B9F
:100E90003B2BC901B8010E9405071F910F910895CE
:100EA0000F931F9341E050E060E070E004C0440FF6
:100EB000551F661F771F8A95D2F7CB01BA0160953F
:100EC0007095809590950091C4011091C501209175
:100ED000C6013091C70160237123822393230E94AE
:100EE00005071F910F9108950F931F9341E050E064
:100EF00060E070E004C0440F551F661F771F8A959D
:100F0000D2F78091C4019091C501A091C601B09122
:100F1000C7018A019B01082719272A273B27C901F6
:100F2000B8010E9405071F910F9108950F931F9319
:100F30000091C4011091C5012091C6013091C701F3
:100F4000602B712B822B932B0E9405071F910F9111
:100F500008950F931F930091C4011091C501209132
:100F6000C6013091C70160237123822393230E941D
:100F700005071F910F9108950F931F930091C401CE
:100F80001091C5012091C6013091C70160277127DA
:100F9000822793270E9405071F910F9108950895B6
:100FA000262F277091E001C0990F2A95EAF723E0D8
:100FB000769567952A95E1F725E0269FF001279F12
:100FC000F00D1124E40FF51F50E040E0682F70E0B1
:100FD0008191DF0111979B01042E02C03695279560
:100FE0000A94E2F7217021952827292328272C939A
:100FF0004F5F5F4F4530510559F70895A82FA770EF
:1010000023E0969587952A95E1F725E0289FF00142
:10101000299FF00D1124E60FF71F50E040E080E01B
:10102000219130E00A2E02C0369527950A94E2F706
:1010300021703327042E01C0220F0A94EAF7822B75
:101040004F5F5F4F4530510559F70895262F953072
:1010500070F48F3060F4682F70E08FE0989F600D1F
:10106000711D112442E951E0822F0E94D00708959A
:10107000292F953068F48F3058F490E062E971E0E0
:101080003FE0239F800D911D11240E94FE070895CB
:1010900080E00895B0E0A0E0E0E5F8E00C94CB1E1D
:1010A0008C01C090C401D090C501E090C601F090C1
:1010B000C7018091C8019091C901A091CA01B09166
:1010C000CB01C82AD92AEA2AFB2ACFE1D0E0BC2EDC
:1010D000D701C6010C2E04C0B695A79597958795A4
:1010E0000A94D2F780FD09C0219788F7B12C8B2D87
:1010F000CDB7DEB7E9E00C94E71EB8018C2F0E9453
:10110000EC0E019789F3F3CFCF93DF93EC010E94AC
:101110004A08BE010E94EC0EDF91CF9108951F9303
:10112000CF93DF93EB0190919101992339F0CB019B
:101130000E948408DF91CF911F910895882369F060
:10114000CB010E944A08182F682FCE010E94260862
:10115000BE01812F0E94EC0EEDCFCB010E9438081A
:10116000182FF6CF1F93CF93DF93C091CC0116E0D9
:101170008091CD018C1304C0DF91CF911F91089510
:10118000D0E01C9FF0011D9FF00D1124E253FE4F93
:101190004081518162817381848195810E94A7067B
:1011A0002196C770E5CF4091FE015091FF016091FB
:1011B00000027091010280910202909103020E944C
:1011C000A70608951F93CF93DF9380910302807F3A
:1011D00009F049C080910002882309F444C080913D
:1011E000CC01C091CD016091FE017091FF01A091F1
:1011F0000102B0910202D62FD72316E0C81799F149
:1012000090E0109711F0DF3F19F401968770F6CF48
:10121000189F9001199F300D1124F901E253FE4FE0
:1012200041814713F2CF40814613EFCF42814111F4
:10123000ECCF438154814A1B5B0B483C510528F796
:10124000809103028F70806180930302F901ED5257
:10125000FE4F80818F70806180838EEF91E00E94CD
:1012600035060E94B208DF91CF911F910895A1E148
:10127000B0E0EDE3F9E00C94CA1E8C0185E0F801C2
:10128000DE011D9601900D928A95E1F7F801E2804A
:101290008EEFC82E81E0D82E60910102709102027B
:1012A0006115710509F44EC19091FE012091FF0175
:1012B000892F82238F3F09F445C140815181A3804A
:1012C000B480F0900002F501E61BF70BFF2009F453
:1012D000EAC080910302382F307FE83CF10508F026
:1012E000A3C031116DC0FE2C251316C0941314C079
:1012F000E11012C08F708061809303020E94D308B6
:10130000C6010E94350680910302F80185838F2D66
:101310006196EAE00C94E61EA114B10429F0842F32
:1013200085238F3F09F027C180E0F82FF170DF2E71
:1013300080FF3CC08091CC012091CD0136E082132A
:1013400015C04D875E878D859E850E948408292F54
:1013500022952F702230F0F0243018F59F70F1F0B4
:10136000F8019581907FD1F4D12C1EC090E0389F78
:10137000F001399FF00D1124E253FE4F6181651396
:1013800006C06081641303C06281E6120FC001963B
:101390008770D5CF9F7011F0882331F3805E88303D
:1013A00018F3C8010E943506FD2CB1CFEE2009F4D8
:1013B000AECF80910302816080930302F12CA7CF0E
:1013C000251306C0941304C0F801EE2009F487C069
:1013D000C8010E949506882319F1EE2009F1809139
:1013E0000302803270F02091FE013091FF013887B6
:1013F0002F831986BB86AA868C87CE0107960E940A
:10140000350686E0F801AEEFB1E001900D928A95C5
:10141000E1F70E94E2080E94D308FF24F39477CFFB
:10142000C8010E943506F9CF311113C07A2DB98A4F
:10143000A88A6E2D89890E949D068EEF91E00E94F8
:10144000350686E0F60111928A95E9F70E94D308E5
:10145000B5CF25130FC094130DC0E1100BC0F801D8
:101460008583C8010E94350686E0F60111928A95AF
:10147000E9F74DCFC8010E949506882389F2EE2036
:1014800079F280910302803208F4BBCF2091FE01F3
:101490003091FF013A8329831B82BD82AC828E8307
:1014A000CE010196ACCFE83CF10508F03EC0FE2C21
:1014B000EE2009F4B5CF25132AC0941328C08091DB
:1014C000030280FD1BC0982F907FC1F0F801858337
:1014D000903F31F0982F907F905F8F70892B85839C
:1014E000C8010E94350686E0F801AEEFB1E0019038
:1014F0000D928A95E1F70E94D30809CF86E0F801A2
:10150000AEEFB1E001900D928A95E1F700CFC801EE
:101510000E949506811175CF8091030281608093AE
:101520000302C8010E943506F2CE7A2DB98AA88A34
:101530006E2D89890E949D0686E0F60111928A959A
:10154000E9F7D9CFEE2009F46BCFC8010E949506C8
:10155000F82E882309F464CF86E0F801AEEFB1E0FD
:1015600001900D928A95E1F78EEF91E00E94EB02D7
:101570000E94E208C0CF81E08E25D7CEACE0B0E07B
:10158000E4ECFAE00C94D11E4F83588769877A8780
:101590008B879C87CE0107960E943709882369F0C4
:1015A0008A859B85892B39F04F815885842F852327
:1015B0008F3F09F06BC016E05FC086E0FE013796F2
:1015C000DE01119601900D928A95E1F78A859B853F
:1015D000892B89F38F81988589238F3F61F320912F
:1015E000CD0130E0C9010196877099274091CC0167
:1015F0004817190671F40E9475061092CD011092D9
:10160000CC0186E0EEEFF1E0DF011D928A95E9F76B
:10161000D2CF96E0929FD001939FB00D1124A25398
:10162000BE4FFE01319601900D929A95E1F780939D
:10163000CD010E94B208BFCF819FC0011124825307
:101640009E4F0E9437098823E9F0E091CC011E9F4C
:10165000F0011124E253FE4F408151816281738178
:10166000848195810E94A7068091CC0190E001962B
:10167000877099278093CC018091CC019091CD0106
:101680008913DACF2C96E3E00C94ED1E69857A85F8
:101690008B859C850E94A7068ECF682F80910001C4
:1016A000909101010E94B4160895682F8091000165
:1016B000909101010E94B7160895809100019091C8
:1016C00001010E94BA16089580910C0285958595B6
:1016D0008595089580910C028770089590910C0271
:1016E000977081E009F480E00895809117020895D1
:1016F00090911702892B80931702089580959091FD
:1017000017029823909317020895109217020895D4
:1017100090911602892B80931602089580959091DE
:1017200016029823909316020895109216020895B7
:1017300080910D02089508950E949B0B0895909149
:10174000550292FF08C090910D02981721F08093E6
:101750000D020E949C0B089580910D02882329F0B0
:1017600010920D0280E00E949C0B0895CF93DF93AE
:10177000E0910001F0910101809117028083E091D6
:101780000001F0910101808190911602892B8083E4
:1017900090910D02992381F0E0910001F0910101F7
:1017A0008081892B808380910001909101010E94AA
:1017B0006C1681110E94AC0BC0910001D091010107
:1017C00048E050E064E072E0CE010E940D1F892BDA
:1017D00059F088E0FE01A4E0B2E001900D928A95F4
:1017E000E1F7CE010E942716DF91CF910895089569
:1017F0000E94F70B08959091550292FF11C098E056
:10180000899F90011124622B60930C020E942E0785
:1018100080910C028595859585950E94F80B089519
:101820000E942E07089510920C0280E00E94F80B8F
:10183000089590910C028095892380930C02282FA3
:10184000277091F4282F082E000C330B92171306E3
:1018500059F09091550292FF07C085958595859521
:101860000E9450070E94130C08959091550292FB1C
:10187000222720F9281769F080FB92F990935502EE
:1018800080915402909155020E94860C82E00E9441
:10189000190C08958091550282FB882780F991E008
:1018A00089270E94350C089581E00E94350C089527
:1018B00080E00E94350C08956FEF7FEF90E080E0AC
:1018C0000E94461F089590E080E00E94221F21E0C0
:1018D000883E9E4F09F020E0822F089582E090E03C
:1018E0000E941A1F089583E090E00E941A1F089535
:1018F000CF9384E090E00E941A1FC82F82E290E00C
:101900000E941A1F982F8C2FCF910895CF93C92F23
:10191000682F84E090E00E94281F6C2F82E290E004
:101920000E94281FCF910895AB01BC018FE090E089
:101930000E943A1F0895AB01BC0183E190E00E9430
:101940003A1F089560E070E0CB010E949B0C08955F
:1019500060E070E0CB010E94940C0E94A20C0895FC
:1019600068EE7EEF90E080E00E94461F60E082E03B
:1019700090E00E94281F60E083E090E00E94281F12
:101980001092C8011092C9011092CA011092CB01A5
:1019900060E084E090E00E94281F64E082E290E032
:1019A0000E94281F60E085E090E00E94281F60E010
:1019B00086E090E00E94281F6FEF87E090E00E9491
:1019C000281F40E050E0BA0188E090E00E943A1FF2
:1019D00060E08DE090E00E94281F40E050E0BA01F6
:1019E00088E190E00E943A1F60E087E190E00E9469
:1019F000281F40E050E0BA018CE190E00E943A1FBD
:101A000070E060E080E290E00E94461F40E050E01D
:101A1000BA0188E190E00E943A1F0E94A80C089544
:101A20000E94B00C0895682F8EE090E00E94281F5D
:101A300008950E947D176093260270932702809379
:101A400028029093290260932202709323028093CC
:101A50002402909325020895089508950E942D0D63
:101A6000089508950E94310D08958BEC9FE00E9427
:101A700010160E942C0D0E942E0D089581E00895ED
:101A80000E943E0D0895089508950E94430D0E94FE
:101A9000440D08950E94E70F0E94980208950E9445
:101AA00068170E94C9100E944A0D0E94320D0895C5
:101AB000AAE0B0E0EEE5FDE00C94C71E0E94DF1046
:101AC000A82E81110E94190D58E1852E52E0952E05
:101AD00010E000E0702E802F0E9414106C01F401C1
:101AE000E190F1904F01E816F90609F444C08091A5
:101AF0002A0281FD0E941D10C7018C259D25B12C55
:101B0000EE24E394F12C9C012E213F21232B69F13B
:101B10000E94400D8823B1F0BE827F82CE20DF205C
:101B200081E0C114D10409F480E088870E94711714
:101B30008160782F9A8789874E815F8168858A8541
:101B40000E94B602000F111FF801E85EFD4F808170
:101B50009181E826F926F182E08281E0A11001C09E
:101B600080E02A96EDE00C94E31EB394EE0CFF1C8B
:101B7000FFE0BF12C8CF0F5F1F4F0530110509F0FE
:101B8000A9CF8FEF89838A831B820E94711781609E
:101B9000782F9D838C8349815A816B818D810E942E
:101BA000B602DBCF0E94580D0E94F7120E94AB02D2
:101BB0000895CF93DF930E94F10EEC01811521E58A
:101BC000920708F042C0811530E5930708F09DC0E8
:101BD000883E910530F5803E910508F092C0883A24
:101BE000910588F4853A910508F084C0813091050B
:101BF00009F487C0009709F484C0049708F081C0F5
:101C0000D0E0C0E07EC08F3B9105D0F7C85AD0E04D
:101C1000CC0FDD1FC85BDE4F0990D881C02DD46486
:101C200070C08115904250F4C11581E0D80708F0CA
:101C300068C0CD3ED10520F3D06563C0C11590E4E6
:101C4000D907F0F2DF70D06A5CC0811525E59207F4
:101C500000F5811534E5930708F08BC0811543E545
:101C6000940708F073C0C11582E5D80708F469C06D
:101C7000CE018370992721E030E002C0220F331F8C
:101C80008A95E2F7C695C69580E2C89FE0011124C7
:101C900054C0C11599E5D907A8F4C11528E5D207A4
:101CA00008F06CC0C11536E5D30708F0A9CF8C2F1A
:101CB0000E94880FC82FD0E0DC2FCC27CC27DF7103
:101CC000D0621FC0C1154AE5D40708F45CC0CE013C
:101CD00090568115904208F093CF8D2F8F710E94FE
:101CE000880F90E0982F882788279F719C012C2BC4
:101CF000E901E6CFC55AD0E0CA58DE4FC881D0E02E
:101D0000D064CE01DF91CF910895E4E09695879558
:101D1000EA95E1F783702C2F26952695237040E2F3
:101D2000249F90011124382B8C2F8370C1E0D0E0C8
:101D300002C0CC0FDD1F8A95E2F7C22BD32BDC68E3
:101D4000E0CFDC2FCC27C16FD06ADBCF837099271F
:101D500021E030E002C0220F331F8A95E2F7C695DA
:101D6000C69590E2C99FE0011124C22BD32BDA68FB
:101D7000C8CFD82FCC27C46FD06AC3CFDC2FCC27D5
:101D8000C06FD06ABECF8C2F8F700E94880F34E056
:101D9000D695C7953A95E1F7CF709C2FEC01D069A5
:101DA000B0CF972F7530A8F46F3098F470E02FE023
:101DB000929F600D711D1124FB019BE4899FE00D32
:101DC000F11D1124EE0FFF1FE455FF4F85919491F3
:101DD000089580E090E008950E94D10E0E94D90DF0
:101DE000089582389105B1F1B0F48133910509F479
:101DF00075C048F48932910509F469C08A329105A9
:101E000009F473C008958533910509F459C08933E5
:101E1000910501F10895833E9105A9F138F4803EC2
:101E20009105F9F0823E910549F10895863E9105AC
:101E3000A9F1873E9105C9F1843E910519F52091DC
:101E4000550221FF1FC08091540284FD14C087EE0B
:101E500090E00895209154022370A1F080EE90E06C
:101E600008952091540220FD47C03091550230FF63
:101E700009C024FF44C090E080E004C020915402D7
:101E800022FDF7CF08952091540222FD3BC03091EE
:101E9000550230FDE3CF24FFF5CFEDCF2091540262
:101EA00023FFF0CF24FDE7CFD2CF2091540223FDB2
:101EB0002CC03091550231FFEECF84EE90E00895B2
:101EC0002091540225FFDECF89E290E00895209111
:101ED000540225FFD7CF85E390E008952091540266
:101EE00026FFD0CF8AE290E008952091540226FF89
:101EF000C9CF81E390E0089589E390E0089583EEEF
:101F000090E0089582EE90E0089586EE90E00895C6
:101F10009091540292FF06C0282F28712830F9F4BE
:101F2000877F846093FF06C0282F28712831F1F441
:101F3000877E84612091550220FF06C0382F3871BA
:101F40003830D9F4877F816021FF06C0282F28719F
:101F50002831D1F4877E816194FD877E0895282FF2
:101F600024712430F9F68B7F8860DCCF282F247110
:101F7000243101F78B7E8861DDCF382F317131300C
:101F800019F78E7F8860E0CF282F2171213121F74A
:101F90008E7E8861E1CF80E008950E945C0C0895F8
:101FA0000E94DF108FE39CE90197F1F700C0000069
:101FB0000E94DF1080E00E94141080FF04C00E9485
:101FC000CD0F0E94BC1708950E94D00F08950E9463
:101FD000630C811102C00E94100D0E946E0C809350
:101FE0002A020E94780C90935502809354020E941A
:101FF000E40F0E94730C682F70E090E080E00E9474
:10200000C3066091C4017091C5018091C601909191
:10201000C7010E940207089508950E940C100895B8
:1020200008950E9410100895E82FF0E0EE0FFF1FB2
:10203000E05AFD4F808191810895089580EA8A9544
:10204000F1F7089500C008950E941E100895F894B5
:10205000E82FE295EF70F0E031A1282F2F7081E09A
:1020600090E001C0880F2A95EAF7982F9095932366
:1020700091A392A1892B82A378940895CF93DF93A3
:10208000C8E8D1E089918F3F11F00E94271081E0CC
:10209000CD38D807B9F7C9E7D1E089918F3F11F062
:1020A0000E94271081E0C838D807B9F7DF91CF9197
:1020B0000895AF92BF92DF92EF92FF920F931F931A
:1020C000CF93DF938C01D62EC62FD0E0CE01885758
:1020D0009E4F7C01FC0120812F3F09F44DC0F894F4
:1020E000E22FE295EF70F0E031A12F7081E090E0F7
:1020F00001C0880F2A95EAF7932F982B91A392A1FC
:102100008095892382A378940E942210E9E7F1E068
:1021100048E851E021E030E0B12CA12C61916F3F03
:10212000A9F1A62FA295AF70B0E090968C9190E0A7
:102130006F7002C0959587956A95E2F780FD26C07D
:10214000C901A82AB92A220F331F4E175F0731F79A
:10215000F70180818F3F11F00E94271061E0A114E8
:10216000B10409F460E08D2D0E942410CC0FDD1F16
:10217000C00FD11FB982A882DF91CF911F910F911B
:10218000FF90EF90DF90BF90AF90089590E080E0D7
:10219000D8CF0E943E108AE0E0E6F2E0DF01982FFF
:1021A0001D929A95E9F7E6E5F2E0DF011D928A9526
:1021B000E9F785E00E941B110E9412020895AAE02F
:1021C000B0E0E5EEF0E10C94CF1E8E010F5F1F4FE3
:1021D0008AE0F80111928A95E9F7F12C6F2DC80178
:1021E0000E945910F394F5E0FF12F8CF4AE050E056
:1021F000B80186E592E00E940D1FFF24F39400973A
:1022000009F4F12C892B41F08AE0F801A6E5B2E04F
:1022100001900D928A95E1F72F2D45E060E672E07E
:1022200086E592E00E941C110E9415028F2D2A96CD
:10223000E5E00C94EB1E0895FF920F931F93CF934C
:10224000DF93F82E092F162FD72FC42F222349F002
:1022500081E080932D020E94711790932C0280934D
:102260002B0280912D028823A1F080912B02909166
:102270002C020E948917059760F0EF2DF02FA12FF7
:10228000BD2F90E080E0D0E08C179D073CF01092CD
:102290002D02CDB7DEB7E5E00C94EB1E2191319114
:1022A0002D933D930196F0CF0E9483190E944F0D0C
:1022B0000E94901908950E9495190E94D20D0E94C3
:1022C000AF1908950E940A170E9469190E94350DDE
:1022D0000E9454110E945B110E94450DFBCF80911A
:1022E000340280FF0DC06091070170E0660F771F18
:1022F0006038710570F56115710569F1862F0895D3
:1023000081FF07C06091070184E0689FB00111243C
:10231000EFCF6091070182FD0AC0809133028823CC
:10232000A9F02091060160910701821710F088E062
:10233000ECCF869FC001112433E0880F991F3A9596
:10234000E1F7622F70E00E94A81ED2CF68E070E033
:10235000D5CF8FE7089581E008958091340280FF02
:102360000CC06091030170E0759567957595679550
:102370006115710549F1862F089581FF06C06091AE
:10238000030170E075956795F3CF6091030182FDBD
:102390000BC0909132029923A1F0609102018091CB
:1023A0000301961738F0682F70E06038710500F36C
:1023B0008FE70895899FC001112470E00E94A81E34
:1023C000F4CF61E070E0D7CF81E008958D3E31F425
:1023D0000E946F1181958093380208958E3E19F402
:1023E0000E946F11F8CF8F3E31F40E946F118195DA
:1023F000809337020895803F19F40E946F11F8CF3F
:10240000893F29F40E94AD118093390208958A3FD3
:1024100021F40E94AD118195F7CF8B3F31F40E94DA
:10242000AD11819580933A0208958C3F19F40E9472
:10243000AD11F8CF9FE0980F983070F4815F990B41
:1024400021E030E001C0220F8A95EAF78091360240
:10245000822B8093360208958D3F31F480913402AF
:1024600081608093340208958E3F21F4809134027C
:102470008260F7CF8F3FB9F7809134028460F1CF4B
:10248000409137028D3E59F48091380287FF0DC08C
:102490001092380241110BC01092330208C08E3ED8
:1024A00081F48091380218169CF3442381F08091C6
:1024B000390290913A02892B09F05AC010923202E7
:1024C00008958F3E49F447FFF0CF10923702809174
:1024D00038028111ECCFE0CF803F19F41416ACF331
:1024E000E4CF90913902893F29F41916F4F610923D
:1024F0003902DBCF8A3F19F497FFD7CFF8CF9091FD
:102500003A028B3F29F497FFD0CF10923A02CDCFF9
:102510008C3F19F41916CCF3C8CF9FE0980F983070
:1025200090F4815F990B21E030E0B90102C0660FA1
:10253000771F8A95E2F7CB01809590913602892327
:1025400080933602B2CF8D3F31F4809134028E7F7A
:1025500080933402AACF8E3F21F4809134028D7F84
:10256000F7CF8F3F09F0A1CF809134028B7FF0CF5E
:1025700008950E9471179C01909137028091380252
:10258000982B21F030933102209330029091390240
:1025900080913A02982B21F030932F0220932E0243
:1025A00085E392E00E943216089586E0E5E3F2E0CA
:1025B000DF011D928A95E9F71092330210923202E0
:1025C000109234020895FC01828181110EC0838132
:1025D00081110BC08481811108C091E08581811136
:1025E00001C090E0892F8170089581E0FCCFA6E0C2
:1025F000B0E0EDEFF2E10C94D11E86E0E5E3F2E00D
:10260000DE01119601900D928A95E1F71092370242
:10261000109238021092390210923A028B819C81FA
:10262000892B89F080913002909131020E948917A4
:10263000AC01909133029923C9F18091080184176C
:10264000150608F440C08D819E81892B91F0809100
:102650002E0290912F020E948917AC0190913202B4
:10266000992309F471C0809104018417150608F4B8
:1026700079C0BE016F5F7F4F85E392E00E94C11673
:10268000811105C085E392E00E94E31281110E944E
:10269000B91286E0FE013196A5E3B2E001900D92F9
:1026A0008A95E1F72696E3E00C94ED1E209109014E
:1026B0008AE0289F900111242417350720F69F5F98
:1026C0009093330202C09F3FD1F71B81112359F031
:1026D0000E946F119FEF11160CF491E0899F802DDD
:1026E0001124809337021C81112359F00E946F112D
:1026F0009FEF11160CF491E0899F802D1124809397
:10270000380230913702332309F49DCF20913802EB
:10271000222309F498CF45EB3403C00111249923F7
:1027200059F09093370245EB240390011124332391
:1027300039F03093380287CF81E080933702F3CFAE
:1027400081E0809338027FCF209105018AE0289FA5
:10275000900111242417350708F08BCF9F5F9093C9
:10276000320202C09F3FD1F71D81112359F00E9410
:10277000AD119FEF11160CF491E0899F802D11246B
:10278000809339021E81112359F00E94AD119FEFF1
:1027900011160CF491E0899F802D112480933A0248
:1027A00030913902332309F464CF20913A02222375
:1027B00009F45FCF45EB3403C0011124992359F08C
:1027C0009093390245EB240390011124332339F00F
:1027D00030933A024ECF81E080933902F3CF81E00B
:1027E00080933A0246CFCF93DF93EC01FB018281C5
:1027F000882309F433C1C430FDE5DF07C0F5CB3FC2
:102800009CE5D90730F49E0122503C452431310526
:10281000B0F50E94780C9093550280935402C13118
:102820008CE5D80709F4EEC008F069C0C930ECE5C2
:10283000DE0709F4D5C0C8F5C5308CE5D80709F422
:10284000C7C000F5C330ECE5DE0709F4B9C008F0F5
:10285000BBC0C230DC4509F4ADC0809154029091F8
:1028600055020E94860C0E94750680E008C0C236A0
:10287000EDE5DE0771F2C63AFDE5DF0751F2DF91C3
:10288000CF910895809154028062C7309CE5D907AA
:1028900009F493C0809154028061C830DC4508F48B
:1028A0008CC080915402806488C0809154028B7FD8
:1028B000CD30FCE5DF0709F480C098F48091540224
:1028C0008E7FCB309CE5D90709F477C08091540204
:1028D0008C60CC30DC4508F470C0809154028D7F50
:1028E0006CC0809154028F7ECF30FCE5DF0709F485
:1028F00064C008F47BC0809154028F7D5EC0CE3FDF
:102900009CE5D90709F47AC050F5C531FCE5DF072D
:1029100009F486C098F480915402837FC3319CE50A
:10292000D90709F44AC008F471C00E947506909155
:102930005402892F97FB87F980583FC0CC3FFCE5B4
:10294000DF0709F449C008F055C080915502816045
:10295000CB3FDC4509F081CF809355027ECFC2305A
:10296000EDE5DE0709F468C0A8F4C1158DE5D807C8
:1029700009F452C0809155028360C130DD4560F397
:1029800080915502982F909591708E7F892B90FBA6
:1029900081F9E2CFC236EDE5DE0709F451C0C63A4F
:1029A000FDE5DF0709F453C0C330DD4509F055CF1D
:1029B00080E043C0809154028160809354024DCFE7
:1029C000809154028260F9CF809154028460F5CFE7
:1029D000809154028860F1CF809155028260BCCF13
:1029E0000E947506809154028068E7CF809154025E
:1029F000877FE3CF809155028E7FAECF80915502C5
:102A00008D7FAACF809154028F7BD7CF0E9475060D
:102A1000809154028F77D1CF809155028C7F9CCFCB
:102A20008091540282FB992790F921E0922790FB34
:102A300082F990FB83F9C1CF81E00E94130D0DCF85
:102A400090915402892F8F7E94FF8061B6CF909130
:102A50005402892F8E7F90FF8160AFCF81E00FCF2E
:102A6000CF93DF93EB0186319C4511F50E94750BE6
:102A70009A81992399F08A7A91E009F490E09093F1
:102A80003B02811109C089E20E944D0B0E94B60BE6
:102A900080E0DF91CF91089585E3F6CF80913B02EE
:102AA000811104C089E20E94550BF0CF85E3FBCF72
:102AB00081E0EFCF0F931F93CF93DF93C42FD22FDB
:102AC000FC0182818823C9F040933E020E94711765
:102AD00090933D0280933C0280E28C0F883040F45A
:102AE000C77081E001C0880FCA95EAF70E94FC0315
:102AF000DF91CF911F910F91089510913E02141311
:102B000032C080913C0290913D020E948917883C1E
:102B1000910548F5C0E2CD0F1D17B9F080E2810F95
:102B2000883040F4177081E001C0880F1A95EAF7E9
:102B30000E940304C83048F481E09D2F977001C0C3
:102B4000880F9A95EAF70E94FC03802F0E94F303F6
:102B5000C83070F6D77081E001C0880FDA95EAF7C7
:102B60000E940304C5CF80E28C0F883008F6C7703E
:102B700081E001C0880FCA95EAF7F2CF0F939C015C
:102B8000CB01243F4CE5340759F1A8F4293DFCE57D
:102B90003F0701F12A3D4CE53407D1F1283D3C4582
:102BA00091F406E221EE41EE68ED7CE50E945A15B3
:102BB00080E00F910895263FFCE53F07E9F0B0F073
:102BC000273F3C45F9F0FC018281882339F11092BE
:102BD0003E02EFCF07E225EE45EE69ED7CE5E6CF5C
:102BE00006E221EE40EE64EF7CE5E0CF07E225EE61
:102BF00044EE65EF7CE5DACF06E221EE42EE66EFC9
:102C00007CE5D4CF07E225EE46EE67EF7CE5CECF3C
:102C100008E221E045EE6AED7CE5C8CF81E0C9CF4E
:102C200090938F0180938E01089590934402809336
:102C300043020895E0914302F0914402309729F055
:102C40000190F081E02D0995089580E00895E091CC
:102C50004302F0914402309721F00280F381E02D8D
:102C600009950895E0914302F0914402309739F0BC
:102C700022E0DC012C930480F581E02D0995089574
:102C800020914102309142022817390771F0909348
:102C9000420280934102E0914302F0914402309756
:102CA00021F00680F781E02D0995089520913F02DB
:102CB000309140022817390771F0909340028093B9
:102CC0003F02E0914302F0914402309721F00084EA
:102CD000F185E02D099508959C012E5F3F4FAC01D1
:102CE000485F5F4F80E02417350709F40895F90124
:102CF00091919F019923B9F38F5FF5CF662349F036
:102D0000FC01329608962191261729F0E817F90759
:102D1000D1F780E0089581E008959C01FC0132968E
:102D20009FEF80E04191461751F09F3F19F4411108
:102D300001C0982F8F5F8630A9F79F3F09F408954F
:102D4000290F311D97FD3A95F90162830895FC0121
:102D5000329608962191261303C0DF0111971C9229
:102D6000E817F907B9F708950E948D1608950E9493
:102D7000A7160895029626E0FC0111922A95E9F71C
:102D8000089546E050E00E940D1F21E0892B09F4D0
:102D900020E0822F089508950E94CB160895811196
:102DA00006C081E0809345020E94CC16089582E01F
:102DB000F9CF83E0809345020E94CC1608950E94CB
:102DC000CF16089581E0809345020E94CC160895A5
:102DD0000E94E2160895089508950E94EC16089541
:102DE000089508950E94EB160895CF930E94F0165F
:102DF0000E94DF100E94F116C0E08C2F0E94141078
:102E0000892B31F4CF5FC530C1F780E0CF910895B1
:102E100081E0FCCF85B7806885BF85B7806885BFB6
:102E200008951F921FB61F9211248F939F93AF9303
:102E3000BF9380914602811113C080916A029091E4
:102E40006B02A0916C02B0916D024196A11DB11D63
:102E500080936A0290936B02A0936C02B0936D0210
:102E6000BF91AF919F918F911F901FBE1F9018959A
:102E700080917202843031F10E94850210924602E4
:102E800088E190E020E40FB6F894A8958093600064
:102E90000FBE2093600083B7817F846083BF83B7B8
:102EA000816083BF7894889583B78E7F83BF0FB688
:102EB000F894A895809160008861809360001092DA
:102EC00060000FBE08950E9475060E948A02089550
:102ED00082E084BD93E095BD9AEF97BD80936E002C
:102EE00008952FB7F89480916A0290916B02A09197
:102EF0006C02B0916D022FBF08952FB7F8946091C6
:102F00006A0270916B0280916C0290916D022FBFEA
:102F100008959C014FB7F89480916A0290916B02DA
:102F2000A0916C02B0916D024FBF821B930B08956C
:102F300078941F921FB61F9211248F939F93AF9383
:102F4000BF9380916A0290916B02A0916C02B09144
:102F50006D020196A11DB11D80936A0290936B02D0
:102F6000A0936C02B0936D02BF91AF919F918F912E
:102F70001F901FBE1F90189581E08093E00080E2B3
:102F80008093D8001092C9008FE19EE40197F1F779
:102F900000C0000087E090EBDC0180937B029093FF
:102FA0007C02A0937D02B0937E0288E19CE00FB684
:102FB000F894A895809360000FBE90936000FFCFB7
:102FC00088E19CE00FB6F894A895809360000FBE4E
:102FD00090936000FFCF80915202089508959C0164
:102FE00082E08093E9009FEF8091E800915085FD99
:102FF00006C085ED8A95F1F700009111F5CF80911B
:10300000E80085FF0CC050E040E066E070E0C901D8
:103010000E94211A8091E8008E778093E80008953D
:10302000CF93DF93EC0181E08093E9008FEF9091E3
:10303000E800815095FD06C095ED9A95F1F70000E6
:103040008111F5CF8091E80085FF14C050E040E089
:1030500068E070E0CE010E94211A8091E8008E772E
:103060008093E80088E0FE01AAE4B2E001900D92AE
:103070008A95E1F7DF91CF9108958093470270938D
:1030800049026093480280917202843001F582E027
:103090008093E9008FEF9091E800815095FD06C084
:1030A00095ED9A95F1F700008111F5CF8091E80038
:1030B00085FF0DC050E040E063E070E087E492E0FF
:1030C0000E94211A8091E8008E778093E80008958D
:1030D000BC0184E00E943D180895BC0183E00E9479
:1030E0003D18089580917102811109C00E94B11BA1
:1030F0000E940E1C8091E20084608093E20008959B
:103100001092710208950E94E216089560916E0275
:1031100081E0611101C080E00E94D916089590916C
:10312000720281E0943009F080E060916E020E94AA
:10313000DF16089542E061EC81E00E942D1B42E21F
:1031400061EC82E00E942D1B9091720281E094302C
:1031500009F080E060916E020E94CF160895809180
:103160007402833009F461C030F48130D1F18230CF
:1031700009F49EC008958A3009F48AC08B3009F49E
:103180006FC0893009F050C080917302813209F01C
:103190004BC08091770290917802029708F044C06A
:1031A0008091E800877F8093E8008091E80082FFAB
:1031B00037C09091F3008091F200029731F4809132
:1031C000F100813011F0863021F48091F10080937C
:1031D00052028091E8008B778093E8000E94611B87
:1031E00023C080917302813AF9F48091E800877FCF
:1031F0008093E8008091770290917802892B61F4A6
:1032000068E08AE492E070E00E94701A8091E80021
:103210008B778093E800089560E090E080E0F3CF42
:10322000809172028111C1CF089580917302813A19
:10323000D9F78091770290917802892BA9F7809134
:10324000E800877F8093E8008091E80080FFFCCF52
:10325000809116018093F1008091E8008E77BCCFB9
:1032600080917302813201F7809177029091780208
:10327000892BD1F68091E800877F8093E8000E9437
:10328000611B80917502809316010E947506089556
:1032900080917302813241F68091E800877F8093AC
:1032A000E8000E94611B809176028093530208958A
:1032B00080917302813A09F0B7CF8091E800877F4F
:1032C0008093E8008091E80080FFFCCF809153025A
:1032D000C1CF84B7877F84BF0FB6F894A89580913B
:1032E0006000886180936000109260000FBE80E8EB
:1032F00090E00FB6F89480936100909361000FBE48
:103300000E94E81608950E94B11B0E940E1CE2EE76
:10331000F0E080818460808378940E948D1E0895FF
:103320008AE091E00E94151608958091720285301E
:1033300031F480917202853019F00E94631708956C
:103340000E94381780917002882399F30E94F51625
:10335000882379F30E940B1A0E947506EACF08951C
:103360000E94B3190895292F33272330310519F10D
:1033700068F42130310509F444C02230310509F4E4
:1033800045C090E080E030E020E025C021323105EA
:1033900049F122323105A9F780E490E022ED32E0D4
:1033A00061157105C1F08BE790E027E532E06130EF
:1033B000710589F0E6CF99278130910581F000975A
:1033C00029F00297F1F6E8EDF1E002C0E6E0F2E064
:1033D000849190E09F01FA01318320830895E2EF08
:1033E000F1E0F6CF89E090E02CE132E06115710563
:1033F00091F389E090E025E332E06130710559F303
:10340000C0CF82E190E025E432E0E5CF8BE390E0AD
:103410002AE032E0E0CF80E189BD82E189BD09B4D4
:1034200000FEFDCF8091D8008F7D8093D8008091E1
:10343000E00082608093E0008091E00081FDFCCF9D
:103440000895AF92BF92CF92DF92FF920F931F9396
:10345000CF93DF936C01EB018A010E94801BF82E51
:10346000811123C00115110539F0F8018081918186
:10347000C81BD90BC80ED91EB12CA12C2097A9F0BE
:103480008091E80085FD22C08091E8008E778093CE
:10349000E80001151105A1F0F80180819181A80EC5
:1034A000B91EB182A08285E0F82E8F2DDF91CF91D9
:1034B0001F910F91FF90DF90CF90BF90AF90089534
:1034C0000E94801B8823D1F2F82EEFCFF601819164
:1034D0006F018093F1002197FFEFAF1ABF0ACECFA3
:1034E000FC018091790290917A0286179707A0F0EB
:1034F0006115710529F49091E8009E779093E8009A
:1035000090E06115710551F4911108C08091E800B7
:1035100082FF34C080E00895BC01F2CF8091720236
:103520008823C1F18530C1F18091E80083FD30C06E
:103530008091E80082FDEACF8091E80080FFE1CF32
:103540008091F3002091F200382F6115710519F078
:103550002830310558F091E02830310509F090E02D
:103560002091E8002E772093E800CBCF81918093C3
:10357000F100615071092F5F3F4FE7CF80917202D8
:10358000882341F0853041F08091E80083FFBECF71
:1035900081E0089582E0089583E00895FC01809120
:1035A000790290917A0286179707A0F0611571054C
:1035B00029F48091E8008E778093E80090E061150F
:1035C000710551F4911108C08091E80082FF35C067
:1035D00080E00895BC01F2CF809172028823C9F186
:1035E0008530C9F18091E80083FD31C08091E80009
:1035F00082FDEACF8091E80080FFE1CF8091F30067
:103600002091F200382F6115710519F0283031052D
:1036100058F091E02830310509F090E08091E80001
:103620008E778093E800CBCF84918093F100319620
:10363000615071092F5F3F4FE6CF8091720288235E
:1036400041F0853041F08091E80083FFBDCF81E0FB
:10365000089582E0089583E00895982F973028F028
:103660008F708093E90081E008959093E900242F02
:10367000762F50E0981731F07091EC002091ED001A
:103680005091F00021FD02C09F5FE8CF3091EB0028
:103690003E7F3093EB003091ED003D7F3093ED00A5
:1036A0003091EB0031603093EB007093EC0020938D
:1036B000ED005093F0002091EE0027FDE5CF80E073
:1036C00008958091730287FF13C08091E80082FF04
:1036D00006C08091E8008B778093E80004C0809159
:1036E00072028111F2CF0895809172028823D9F37A
:1036F0008091E80080FFF8CF8091E8008E77ECCFD2
:103700002091E4003091E50095E6A9012091EC00BC
:10371000822F817020FF06C08091E80080FF06C0E4
:1037200080E008952091E80022FD1AC08091720285
:10373000882389F0853089F08091EB0085FD0FC0EA
:103740002091E4003091E50042175307F9F29150BF
:10375000E1F684E0089582E0089583E0089581E031
:1037600008950E94201C0E94281CE0EEF0E0808159
:1037700081608083E8EDF0E080818F77808319BCE1
:10378000A7EDB0E08C918E7F8C9380818F7E8083BB
:103790001092710208950F931F93CF93DF930E94AD
:1037A000201C0E94281CC8EDD0E088818F77888378
:1037B00088818068888388818F7D888319BC109276
:1037C000720210926E021092700210926F0200EE5E
:1037D00010E0F80180818B7F8083888181608883FD
:1037E00042E060E080E00E942D1BE1EEF0E080818D
:1037F0008E7F8083E2EEF0E0808181608083808133
:1038000088608083F80180818E7F808388818061D9
:103810008883DF91CF911F910F910895E8EDF0E03B
:1038200080818F7E8083E7EDF0E0808181608083FE
:1038300084E082BF81E0809371020E94CB1B0895D7
:10384000E8EDF0E080818E7F80831092E2000895A1
:103850001092DA001092E10008951F920F920FB6B5
:103860000F9211242F933F934F935F936F937F9306
:103870008F939F93AF93BF93EF93FF938091E1005A
:1038800082FF0BC08091E20082FF07C08091E100BF
:103890008B7F8093E1000E948C1E8091DA0080FF74
:1038A00019C08091D80080FF15C08091DA008E7F0A
:1038B0008093DA008091D90080FF96C080E189BDB5
:1038C00082E189BD09B400FEFDCF81E080937202E0
:1038D0000E9472188091E10080FF19C08091E2007F
:1038E00080FF15C08091E2008E7F8093E20080917E
:1038F000E20080618093E2008091D8008062809332
:10390000D80019BC85E0809372020E9486188091CD
:10391000E10084FF2BC08091E20084FF27C080E19A
:1039200089BD82E189BD89B5982F917080FFFBCF59
:103930008091D8008F7D8093D8008091E1008F7EA8
:103940008093E1008091E2008F7E8093E20080917D
:10395000E20081608093E20080916E02882309F486
:1039600049C084E0809372020E948F188091E10028
:1039700083FF29C08091E20083FF25C08091E10090
:10398000877F8093E10082E08093720210926E0242
:103990008091E1008E7F8093E1008091E2008E7F34
:1039A0008093E2008091E20080618093E20042E037
:1039B00060E080E00E942D1B8091F0008860809381
:1039C000F0000E948318FF91EF91BF91AF919F91FA
:1039D0008F917F916F915F914F913F912F910F90B8
:1039E0000FBE0F901F90189519BC109272020E9482
:1039F000801870CF8091E30087FD93E0909372026E
:103A0000B3CF1F920F920FB60F9211242F933F93B3
:103A10004F935F936F937F938F939F93AF93BF93D6
:103A2000CF93DF93EF93FF93D091E900DF70809104
:103A3000EC00C82FC17080FDC0E81092E9008091B1
:103A4000F000877F8093F00078940E94451D1092CB
:103A5000E9008091F00088608093F000CD2BCF705A
:103A6000C093E900FF91EF91DF91CF91BF91AF91AA
:103A70009F918F917F916F915F914F913F912F9186
:103A80000F900FBE0F901F901895AAE2B0E0EBE4E4
:103A9000FDE10C94D11E83E792E02091F100FC013E
:103AA0002193CF01F2E08B379F07B9F70E94AF183F
:103AB0008091E80083FF1EC180917302909174028F
:103AC0009A3008F017C1E92FF0E0E659F04E0C9457
:103AD000BC1E803899F0823809F00CC180917702C1
:103AE0008F70873008F006C18093E9008091EB0069
:103AF00085FB882780F91092E90006C080916F024B
:103B000090917002911182609091E800977F90935C
:103B1000E8008093F1001092F1008091E8008E7728
:103B2000E5C0882309F4D3C0823009F0E3C0809156
:103B300075028111D6C0809177028F702FEF280F08
:103B4000263008F0D7C08093E9002091EB0020FFD9
:103B5000C8C0933031F48091EB0080628093EB0019
:103B6000C0C09091EB0090619093EB0021E030E0B9
:103B700001C0220F8A95EAF72093EA001092EA002A
:103B80008091EB008860EACF8111B4C0109175027A
:103B90001F778091E3008078812B8093E3008091F0
:103BA000E800877F8093E8000E94611B8091E80015
:103BB00080FFFCCF8091E30080688093E30082E087
:103BC000111183E08093720295C08058823008F012
:103BD00091C080917502909176028C3D23E092070E
:103BE000A1F583E08A838AE289834FB7F894DE01E6
:103BF000139620E03EE051E2E32FF0E050935700AF
:103C0000E49120FF03C0E295EF703F5FEF708E2FCD
:103C100090E0EA30C0F0C7968D939D932F5F2431DA
:103C200059F74FBF8091E800877F8093E8006AE2F0
:103C300070E0CE0101960E94701A8091E8008B77A7
:103C40008093E80057C0C096E7CF609177027091EB
:103C50007802AE014F5F5F4F0E94B019BC01892B03
:103C600009F448C09091E800977F9093E80089811B
:103C70009A810E94CE1AE1CF8038E1F58091E80068
:103C8000877F8093E80080916E028093F10045CF9A
:103C9000811130C090917502923060F58091E800FA
:103CA000877F8093E80090936E020E94611B809151
:103CB0006E02882311F084E005C08091E30087FD47
:103CC000FACF81E0809372020E949A1813C080910B
:103CD0007502813079F481E0933009F080E08093BF
:103CE00070021092E9008091E800877F8093E800DD
:103CF0000E94611B8091E80083FF0AC08091E80068
:103D0000877F8093E8008091EB0080628093EB00D6
:103D1000AA96E3E00C94ED1E0895CF938091720271
:103D20008823A1F0C091E900CF709091EC00892F19
:103D3000817090FD80E8C82B1092E9008091E80026
:103D400083FD0E94451DCF70C093E900CF91089577
:103D500097FB072E16F4009407D077FD09D00E9438
:103D6000F91E07FC05D03EF4909581959F4F08956C
:103D7000709561957F4F0895EE0FFF1F0590F491A8
:103D8000E02D09942F923F924F925F926F927F9213
:103D90008F929F92AF92BF92CF92DF92EF92FF925B
:103DA0000F931F93CF93DF93CDB7DEB7CA1BDB0B07
:103DB0000FB6F894DEBF0FBECDBF09942A883988AC
:103DC00048885F846E847D848C849B84AA84B984B3
:103DD000C884DF80EE80FD800C811B81AA81B981BF
:103DE000CE0FD11D0FB6F894DEBF0FBECDBFED01D3
:103DF0000895AA1BBB1B51E107C0AA1FBB1FA61732
:103E0000B70710F0A61BB70B881F991F5A95A9F783
:103E100080959095BC01CD010895FB01DC0104C0A3
:103E20008D910190801921F441505040C8F7881BB2
:103E3000990B0895F999FECF92BD81BDF89A992703
:103E400080B50895A8E1B0E042E050E00C944E1F28
:103E5000262FF999FECF92BD81BDF89A019700B443
:103E6000021639F01FBA20BD0FB6F894FA9AF99AE3
:103E70000FBE08950396272F0E94291F0E94281F16
:103E8000252F0E94291F242F0C94291F0196272FCC
:103E90000E94291F0C94281FDC01CB01FC01F99919
:103EA000FECF06C0F2BDE1BDF89A319600B40D9286
:103EB00041505040B8F70895F894FFCF45044504A9
:103EC0007604760403051F05A504A5042A05B60596
:103ED000C505C505691D911D7A1E911D7A1EC41D5B
:083EE000E51D7A1E3C1E481E80
:103EE8000E02280850011E0A1401EB171018EF17CC
:103EF8006D186818EE1701E200E900EA00B500B68F
:103F080000B700CD008301CC008A01920194012101
:103F180002230224022502260227022A02B300B441
:103F2800006F007000818283E200E900EA00B500BA
:103F3800B600B700CD008301CC008A01920194013C
:103F48002102230224022502260227022A02B300A4
:103F5800B4006F007000818283F7F6F5F4F1F0C6C3
:0E3F68003037949697363534909192936700D7
:00000001FF
