:100000000C9489010C94C1010C94C1010C94C101A0
:100010000C94C1010C94C1010C94C1010C94C10158
:100020000C94C1010C94C1010C94181C0C94EC1C90
:100030000C9415170C94C1010C94C1010C94C101CE
:100040000C94C1010C94C1010C94C1010C94C10128
:100050000C94C1010C949B170C94C1010C94C10128
:100060000C94C1010C94C1010C94C1010C94C10108
:100070000C94C1010C94C1010C94C1010C94C101F8
:100080000C94C1010C94C1010C94C1010C94C101E8
:100090000C94C1010C94C1010C94C1010C94C101D8
:1000A0000C94C1010C94C1010C94C10129001E00E3
:1000B0001F0020002100220023002400250026002C
:1000C00027002D002E002A004A002B0014001A00E1
:1000D0000800150017001C0018000C001200130087
:1000E0002F00300031004B003900040016000700DB
:1000F00009000A000B000D000E000F003300340051
:10010000000028004E00E10000001D001B0006005A
:100110001900050011001000360037003800E50016
:1001200052004D00E000E300E2000000000000008B
:100130002C0000000000E6000000015150005100BA
:100140004F0035023A003B003C003D003E003F00BE
:100150004000410042004300440045004C000100C3
:100160000100010001000100010001000100010087
:100170000100010001000100010001000100010077
:100180000100010001000100010001000100010067
:100190000100010001000000010001000100000059
:1001A0000100010001000100010001000100010047
:1001B0000100010001000100010001000100010037
:1001C000000000000000010000000000010000002D
:1001D000010001000100010018034D0069006B00DF
:1001E00065006E0065006B006F0020003600350072
:1001F00000001203740061006B0069007300680066
:1002000069006D0000000403090409023B000201BB
:1002100000A0FA09040000010301010009211101F5
:1002200000012240000705810308000109040100C4
:100230000103000000092111010001227B000705D4
:1002400082032000011201000200000008347954EA
:100250006D01000102000105010902A101850209E9
:1002600001A1000509190129081500250195087546
:100270000181020501093009311581257F9502753B
:1002800008810609381581257F95017508810605C5
:100290000C0A38021581257F950175088106C0C0BA
:1002A00005010980A101850319012AB7001501265E
:1002B000B700950175108100C0050C0901A10185E9
:1002C0000419012AA002150126A0029501751081CA
:1002D00000C005010906A101050719E029E715007D
:1002E00025019508750181029501750881010507B1
:1002F000190029FF150026FF0095067508810005E5
:10030000081901290595057501910295017503915B
:1003100001C011241FBECFEFDAE0DEBFCDBF04B6AF
:1003200003FE18C080917D0290917E02A0917F0211
:10033000B09180028730904BA740B04B59F4109297
:100340007D0210927E0210927F0210928002E0E005
:10035000F8E3099511E0A0E0B1E0E6E6FEE302C0B3
:1003600005900D92A039B107D9F722E0A0E9B1E0DC
:1003700001C01D92AD37B207E1F70E947E110C94C7
:100380001B1F0C94000081E0089581E008950C94F7
:10039000C50108950C94C9011F93CF93DF9300D03A
:1003A00000D00F92CDB7DEB749835A836B8330916B
:1003B000930189819A8131111DC06623B9F02223EE
:1003C000A9F00E942108182F682F89819A810E9424
:1003D000CD0769817A81812F0F900F900F900F9038
:1003E0000F90DF91CF911F910C94EE0E0E94F907B0
:1003F000182FEFCF0E94210869817A81EDCFFC018F
:10040000262F408151816281738184810C94CC01BB
:1004100081E00895CF93DF93EC0160E00E94FF013B
:10042000BE01DF91CF910C94CA010C941F100C9463
:10043000221008950E947A060E9419022FEF84E389
:100440009CE0215080409040E1F700C000000C94F7
:10045000BF170F931F93CF93DF938C0161E00E942E
:10046000FF01EC01B8010E94C7018823A9F1B8017E
:10047000CE010E94DD15882379F1B801CE010E94DA
:100480000A14882349F1B801CE010E944715882338
:1004900019F1F8018281882361F0CB35FDE5DF0792
:1004A00021F170F4C115ECE5DE07A1F0CF3DDC458C
:1004B000C9F0C801DF91CF911F910F910C94C30136
:1004C000CC358DE5D807A1F0CD35DD4591F70E94FB
:1004D000560CEFCF0E941A0280E0DF91CF911F915E
:1004E0000F9108950E94100DF7CF0E945F0CE1CF8D
:1004F0000E94620CDECF0E94F9160C9493020E94B7
:1005000096020C94FD1608950C94830281E00895E0
:100510000C9486020895CF93C82F0E9484028C2FDA
:10052000CF910C94880280E00C948B020E943916C3
:100530000C948B020E94391690919201981721F029
:10054000809392010C948B020895CF93DF93CDB7E3
:10055000DEB72B970FB6F894DEBF0FBECDBF4F832B
:10056000588769877A878B8761110E94A40B1E8246
:100570001D8285E0FE013796DE01119601900D92F5
:100580008A95E1F78C819D81892B89F449815A8173
:100590006B817C818D819E810E94C50A2B960FB64E
:1005A000F894DEBF0FBECDBFDF91CF910895898152
:1005B0009A8189238F3F51F3CE0101960E94080250
:1005C0008111E4CFEBCFFC01808191810C94630811
:1005D000CF93C82F882309F48BC08238C1F40E94BE
:1005E000391681FD85C089E30E945F0B0E94C40B10
:1005F0002FEF81EE94E0215080409040E1F700C061
:10060000000089E30E94660BCF910C94C40B8338E1
:10061000A1F40E94391680FD6BC083E50E945F0B38
:100620000E94C40B2FEF81EE94E021508040904057
:10063000E1F700C0000083E5E5CF8438A1F40E9413
:10064000391682FD55C087E40E945F0B0E94C40BDF
:100650002FEF81EE94E0215080409040E1F700C000
:10066000000087E4CFCF8CEF8C0F813A90F46C2F91
:1006700080910201909103010E949C16882329F029
:100680008C2F0E94660B0E94C40B8C2F0E945F0B64
:10069000BBCF80E28C0F883048F4C77081E001C086
:1006A000880FCA95EAF70E94870BAECFEBE5EC0FF7
:1006B000E33040F4F0E0E95BFE4F808190E0CF91C1
:1006C0000C945E16E8E5EC0FE73150F4F0E0EE0F25
:1006D000FF1FE75EFE4F80819181CF910C947416CD
:1006E000CD3E30F08C2F0E940212CF910C94D51287
:1006F000CF910895882309F452C0823871F40E9482
:10070000391681FF4CC089E30E945F0B0E94C40B25
:1007100089E30E94660B0C94C40B833859F40E9441
:10072000391680FF3CC083E50E945F0B0E94C40B1A
:1007300083E5EFCF843859F40E94391682FF2FC029
:1007400087E40E945F0B0E94C40B87E4E2CF9CEF1A
:10075000980F913AF0F290E2980F983050F4877029
:1007600091E001C0990F8A95EAF7892F0E948D0BBD
:10077000D2CF9BE5980F933020F490E080E00C946A
:100780005E1698E5980F973120F490E080E00C9485
:1007900074168D3E20F00E945C120C94D5120895C0
:1007A0001F93CF93DF93182FEB010E94E80220974D
:1007B00031F4812FDF91CF911F910C947A038FE94F
:1007C0009FE00197F1F700C000002197F0CF70E0A3
:1007D00060E0893311F460E570E00C94D003882365
:1007E00021F00E94870B0C94C40B0895882321F0FC
:1007F0000E948D0B0C94C40B0895BF92CF92DF9290
:10080000EF92FF920F931F93CF93DF936C01D62F3C
:10081000C72FFC011281F580F2949FE0F9220E941B
:100820007D0BE82E8823B9F0E12E1123A1F08C2F47
:10083000807F803421F080E28D0F8830D0F080916D
:10084000570282FD16C082E00E94250C0E947D0B9B
:1008500091E0E82EE926BC2EB2948FE0B822FBE0AE
:10086000FB1508F468C0EB2DF0E0E35EF04E0C944D
:10087000B21EE12CF0CF0C2F0F70C07F11F002954B
:10088000007F112399F0002359F080E28D0F88300A
:1008900010F0D11107C0802F0E94870B0E94C40B5B
:1008A0008D2F41C0802F0E94970BF8CF8D2F0E9473
:1008B0007A03002309F43FC080E28D0F883010F0E6
:1008C000D11104C0802F0E948D0B03C0802F0E9485
:1008D0009D0B0E94C40B2FC00C2F0F70C07FC03225
:1008E00011F00295007FDD2381F0D13009F469C059
:1008F000112309F473C0FF2009F469C0F601858152
:1009000080FFCECF8F70858362C08091570282FFB7
:1009100038C0112359F0002329F0802F0E94870B43
:100920000E94C40B80E00E94E80205C080E00E94A3
:100930007A030111C7CFEB2DE850FF0B349720F459
:100940000E9439160E948B02EE2009F472C10E94A7
:10095000790B80FD6EC1F60112820E94730B0E941A
:100960003107C6010E943A060E94730BDF91CF91B6
:100970001F910F91FF90EF90DF90CF90BF900C945C
:100980005207112389F0F11006C00E94A70B802B9B
:100990000E94EF03D0CF21E0F212F7CF0E94A70B05
:1009A000802B0E94AD0BC7CFF11006C00E94BA0B7E
:1009B000802F0E94F603BFCF31E0F31609F4BBCFBE
:1009C000F5CF112331F085E08F1508F4B4CF802FD7
:1009D000DFCF94E09F1508F4AECFEACFFF2041F3BC
:1009E000D93349F4FFEF27EE33E0F1502040304097
:1009F000E1F700C000008D2F0E947A039CCF8C2F5E
:100A000086958695837069F0813009F094CF8D2F9B
:100A10009C2F9370111102C090E080E00E94741628
:100A20008ACF8D2F9C2F9370111102C090E080E02F
:100A30000E945E1680CF8D2F112329F00E94021292
:100A40000E94D51278CF0E945C12FACF8C2F83704F
:100A500009F041C011116FCF4D2F42954695477057
:100A6000440F440F0D2F0F7010E030E020E0042EF3
:100A700004C0000F111F221F331F0A94D2F760E039
:100A800070E0CB01D4FF0FC06FE070E080E090E039
:100A900004C0660F771F881F991F4A95D2F760958B
:100AA000709580959095C695C695C370602B712BF7
:100AB000822B932BC23049F058F4C13019F00E94B8
:100AC000E30639CF0E94D10636CF0E94F50633CF18
:100AD0000E94CF0630CF8695112311F08C2F8170A4
:100AE000882309F428CF4D2F429546954770440F2F
:100AF000440F0D2F0F7010E030E020E0042E04C0F2
:100B0000000F111F221F331F0A94D2F760E070E01C
:100B1000CB01D4FF0FC06FE070E080E090E004C034
:100B2000660F771F881F991F4A95D2F760957095B9
:100B300080959095C695C695C370602B712B822BBE
:100B4000932BC23049F058F4C13019F00E94A80725
:100B5000F2CE0E949607EFCE0E94BA07ECCE0E941A
:100B60000B07E9CECF70112329F08C2F0E9431079B
:100B70008D2F0ECF8D2F0E94F6038C2F0E945207CF
:100B8000DACED23F51F160F4D03FB9F0D13F81F0DD
:100B9000112309F449C0F11083CE8C2F8F7121C02D
:100BA000D33F11F1D43FA1F78091570282FF26C0B5
:100BB0008C2F8F71112311F314C0112349F084E09D
:100BC0008F1508F4B8CE8C2F8F710E947507B3CEA5
:100BD00095E09F1508F4AFCEF6CF8C2F8F711111D1
:100BE000CDCF0E943107A7CE112329F08C2F8F7112
:100BF0000E941C07A0CE0E9417079DCE112349F02A
:100C0000CF718C2F0E94310763E08C2F0E940A0C59
:100C100092CE81E00E94250CE1E0EF1508F08BCE2A
:100C200082E00E94250C87CEF110DACE8C2F8F71D6
:100C3000A5CFDF91CF911F910F91FF90EF90DF90A3
:100C4000CF90BF9008950F931F93CF93DF93EC0144
:100C5000688179818A810E946D088C010E94CC078D
:100C60000E94CE06B801CE01DF91CF911F910F9166
:100C70000C94FD03CF93DF93EC018B819C81892B36
:100C800029F08881998189238F3F59F4DF91CF9191
:100C90000895CE010E942306CE01DF91CF910C94DE
:100CA0000A02CE010E9429028111F3CF0E947D0B1E
:100CB000882361F38A81882349F38091570282FD5A
:100CC000E5CF82E0DF91CF910C94250C90E080E09D
:100CD0000E945E1690E080E00E9474160E94A40BB1
:100CE0000E94C40B0E94FC130C94D5120E946D0B41
:100CF0000C9466060E94940B0C94760692959F7055
:100D0000963091F058F4925F9F70923058F4803F83
:100D100019F030F4883E30F481E008959A5FF4CF02
:100D2000843FD1F380E00895883EB0F3813FD1F74E
:100D3000F3CFFC01808191810E9463080C947E06B0
:100D4000CF93DF9300D000D00F92CDB7DEB70F90D6
:100D50000F900F900F900F90DF91CF910895CF9348
:100D6000DF9300D000D000D0CDB7DEB726960FB607
:100D7000F894DEBF0FBECDBFDF91CF9108950895E7
:100D80000C94BF060E94C0066093CA017093CB0109
:100D90008093CC019093CD010C94660608950C9439
:100DA000C2060F931F930091CA011091CB012091AD
:100DB000CC013091CD01602B712B822B932B1F9195
:100DC0000F910C94C2060F931F930091CA011091CA
:100DD000CB012091CC013091CD016023712382237E
:100DE00093231F910F910C94C2060F931F930091B0
:100DF000CA011091CB012091CC013091CD01602727
:100E00007127822793271F910F910C94C2060C948F
:100E1000BF060C9407070E9409076093C6017093F0
:100E2000C7018093C8019093C9010C94660660E0E5
:100E300070E0CB010C940B070F931F9341E050E03F
:100E400060E070E08A019B0104C0000F111F221FA7
:100E5000331F8A95D2F7C901B8011F910F910C94E5
:100E60000B070F931F9341E050E060E070E004C077
:100E7000440F551F661F771F8A95D2F78091C601D0
:100E80009091C701A091C801B091C9018A019B014D
:100E9000082B192B2A2B3B2BC901B8011F910F914D
:100EA0000C940B070F931F9341E050E060E070E05B
:100EB00004C0440F551F661F771F8A95D2F7CB01D8
:100EC000BA0160957095809590950091C60110913A
:100ED000C7012091C8013091C90160237123822389
:100EE00093231F910F910C940B070F931F9341E0D5
:100EF00050E060E070E004C0440F551F661F771F8C
:100F00008A95D2F78091C6019091C701A091C8013E
:100F1000B091C9018A019B01082719272A273B277D
:100F2000C901B8011F910F910C940B070F931F93E8
:100F30000091C6011091C7012091C8013091C901EB
:100F4000602B712B822B932B1F910F910C940B070D
:100F50000F931F930091C6011091C7012091C80102
:100F60003091C90160237123822393231F910F9134
:100F70000C940B070F931F930091C6011091C701AA
:100F80002091C8013091C9016027712782279327DA
:100F90001F910F910C940B0708952FE0929F800DE5
:100FA0001124982F977041E001C0440F9A95EAF7F9
:100FB00086958695869595E0899FF0011124EC56DB
:100FC000FE4F90E080E070E05191DF0111979B01AE
:100FD000082E02C0369527950A94E2F721702195D4
:100FE0002527242325272C9301968530910561F729
:100FF00008952FE0929F800D1124982F9770869569
:101000008695869525E0829FF0011124EC56FE4FCF
:1010100050E040E080E0219130E0092E02C036959A
:1010200027950A94E2F721703327042E01C0220F7E
:101030000A94EAF7822B4F5F5F4F4530510559F70D
:101040000895BF92CF92DF92EF92FF920F931F937A
:10105000CF93DF938C01C090C601D090C701E09080
:10106000C801F090C9018091CA019091CB01A09173
:10107000CC01B091CD01C82AD92AEA2AFB2ACFE1B6
:10108000D0E0BC2ED701C6010C2E04C0B695A795A2
:10109000979587950A94D2F780FD0EC0219788F71F
:1010A000B12C8B2DDF91CF911F910F91FF90EF907D
:1010B000DF90CF90BF900895B8018C2F0E94020F4F
:1010C000019761F3EECFCF93DF93EC010E942108EB
:1010D000BE01DF91CF910C94020F1F93CF93DF934A
:1010E000EB0190919301992331F0CB01DF91CF91E6
:1010F0001F910C946308882379F0CB010E9421088A
:10110000182F682FCE010E94CD07BE01812FDF91DD
:10111000CF911F910C94020FCB010E94F907182F59
:10112000F4CF1F93CF93DF93C091CE0116E080914F
:10113000CF018C1304C0DF91CF911F910895D0E0AF
:101140001C9FF0011D9FF00D1124E053FE4F4081C4
:10115000518162817381848195810E94AF062196BD
:10116000C770E5CF409100025091010260910202E8
:101170007091030280910402909105020C94AF06D5
:10118000FF920F931F93CF93DF9380910502807F8F
:10119000D1F4809102028823B1F08091CE011091A8
:1011A000CF016091000270910102A0910302B09101
:1011B0000402062F0723C0910001D091010196E09F
:1011C000F92E181306C0DF91CF911F910F91FF9058
:1011D000089590E0109711F00F3F19F40196877071
:1011E000F0CFF89E9001F99E300D1124F901E053E3
:1011F000FE4F41814713F2CF40814613EFCF42812A
:101200004111ECCF438154814A1B5B0B4C175D07A6
:1012100028F7809105028F70806180930502F901A3
:10122000EB52FE4F80818F708061808380E092E07E
:101230000E943A06DF91CF911F910F91FF900C947D
:101240009108AF92BF92CF92DF92EF92FF920F93ED
:101250001F93CF93DF93CDB7DEB761970FB6F894A6
:10126000DEBF0FBECDBF8C0185E0F801DE011D960B
:1012700001900D928A95E1F7F801E28080E0C82E96
:1012800082E0D82E6091030270910402611571050D
:1012900009F45FC19091000220910102892F8223FD
:1012A0008F3F09F456C140815181A380B480F090F2
:1012B0000202F501E61BF70BBF01E0910001F0917E
:1012C0000101FF2009F4F6C080910502382F307F1C
:1012D0006E177F0708F0AFC0311179C0FE2C2513BF
:1012E00023C0941321C0E1101FC08F7080618093D0
:1012F00005020E94B208C6010E943A0680910502CA
:10130000F80185838F2D61960FB6F894DEBF0FBE6E
:10131000CDBFDF91CF911F910F91FF90EF90DF90A4
:10132000CF90BF90AF900895AB2829F0842F8523EC
:101330008F3F09F027C180E0F82FF170DF2E80FF8A
:101340003CC08091CE012091CF0136E0821315C0C0
:101350004D875E878D859E850E946308292F229583
:101360002F702230F0F0243018F59F70F1F0F80162
:101370009581907FD1F4D12C1EC090E0389FF00170
:10138000399FF00D1124E053FE4F6181651306C0B3
:101390006081641303C062816E110FC00196877073
:1013A000D5CF9F7011F0882331F3805E883018F319
:1013B000C8010E943A06FD2CA5CFEE2009F4A2CF69
:1013C00080910502816080930502F12C9BCF25134B
:1013D00006C0941304C0F801EE2009F487C0C801C8
:1013E0000E949906882319F1EE2009F180910502E7
:1013F000803270F0209100023091010238872F83F3
:101400001986BB86AA868C87CE0107960E943A066B
:1014100086E0F801A0E0B2E001900D928A95E1F734
:101420000E94C0080E94B208FF24F3946BCFC80149
:101430000E943A06F9CF311113C07A2DB98AA88AD1
:101440006E2D89890E94A00680E092E00E943A06F3
:1014500086E0F60111928A95E9F70E94B208B5CFAD
:1014600025130FC094130DC0E1100BC0F801858344
:10147000C8010E943A0686E0F60111928A95E9F7C2
:1014800041CFC8010E949906882389F2EE2079F2A3
:1014900080910502803208F4BBCF20910002309188
:1014A00001023A8329831B82BD82AC828E83CE01E6
:1014B0000196ACCF6E177F0708F03EC0FE2CEE20E1
:1014C00009F4B5CF25132AC0941328C080910502D2
:1014D00080FD1BC0982F907FC1F0F8018583903F5D
:1014E00031F0982F907F905F8F70892B8583C80192
:1014F0000E943A0686E0F801A0E0B2E001900D9269
:101500008A95E1F70E94B208FDCE86E0F801A0E0DE
:10151000B2E001900D928A95E1F7F4CEC8010E94E5
:101520009906811175CF8091050281608093050233
:10153000C8010E943A06E6CE7A2DB98AA88A6E2D95
:1015400089890E94A00686E0F60111928A95E9F742
:10155000D9CFEE2009F46BCFC8010E949906F82E6E
:10156000882309F464CF86E0F801A0E0B2E001909E
:101570000D928A95E1F780E092E00E94E3020E94DA
:10158000C008C0CF81E08E25D7CE1F93CF93DF93C5
:10159000CDB7DEB72C970FB6F894DEBF0FBECDBF28
:1015A0004F83588769877A878B879C87CE010796F8
:1015B0000E942109882369F08A859B85892B39F04F
:1015C0004F815885842F85238F3F09F071C016E025
:1015D0005FC086E0FE013796DE01119601900D9204
:1015E0008A95E1F78A859B85892B89F38F81988578
:1015F00089238F3F61F32091CF0130E0C90101962B
:10160000877099274091CE014817190671F40E94FE
:101610007A061092CF011092CE0186E0E0E0F2E06F
:10162000DF011D928A95E9F7D2CF96E0929FD00113
:10163000939FB00D1124A053BE4FFE01319601902F
:101640000D929A95E1F78093CF010E949108BFCF48
:10165000819FC001112480539E4F0E94210988233D
:10166000E9F0E091CE011E9FF0011124E053FE4FFE
:101670004081518162817381848195810E94AF068E
:101680008091CE0190E00196877099278093CE01DA
:101690008091CE019091CF018913DACF2C960FB6AD
:1016A000F894DEBF0FBECDBFDF91CF911F9108959B
:1016B00069857A858B859C850E94AF0688CF682FC7
:1016C00080910201909103010C94D216682F8091B1
:1016D0000201909103010C94D41680910201909123
:1016E00003010C94D61680910E02859585958595FB
:1016F000089580910E028770089590910E02977060
:1017000081E009F480E00895809119020895909194
:101710001902892B809319020895809590911902DE
:1017200098239093190208951092190208959091A8
:101730001802892B809318020895809590911802C1
:10174000982390931802089510921802089580919A
:101750000F02089508950C94AA0B9091570292FDE0
:1017600008C090910F02981721F080930F020C94FB
:10177000AB0B089580910F02882329F010920F027D
:1017800080E00C94AB0B0895CF93DF93E0910201BE
:10179000F0910301809119028083E0910201F091A0
:1017A0000301808190911802892B808390910F0210
:1017B000992381F0E0910201F09103018081892B4E
:1017C000808380910201909103010E948A16811109
:1017D0000E94BA0BC0910201D091030148E050E091
:1017E00066E072E0CE010E94CC1E892B69F088E091
:1017F000FE01A6E0B2E001900D928A95E1F7CE01DC
:10180000DF91CF910C944516DF91CF910895089503
:101810000C94070C9091570292FD10C098E0899F9C
:1018200090011124622B60930E020E943107809177
:101830000E028595859585950C94080C0C943107BE
:1018400010920E0280E00C94080C90910E0280958C
:10185000892380930E02282F277091F4282F082EB9
:10186000000C330B9217130659F09091570292FD1A
:1018700007C08595859585950E9452070C94200C8C
:1018800008959091570292FB222720F9281769F0BA
:1018900080FB92F9909357028091560290915702E3
:1018A0000E948C0C82E00C94250C089580915702C4
:1018B00082FB882780F991E089270C94410C81E014
:1018C0000C94410C80E00C94410C6FEF7FEF90E0A2
:1018D00080E00C94051F90E080E00E94E11E21E072
:1018E000893E9E4F09F020E0822F089582E090E02B
:1018F0000C94D91E83E090E00C94D91ECF9384E021
:1019000090E00E94D91EC82F82E290E00E94D91E6A
:10191000982F8C2FCF910895CF93C92F682F84E0F3
:1019200090E00E94E71E6C2F82E290E0CF910C9431
:10193000E71EAB01BC018FE090E00C94F91EAB01F7
:10194000BC0183E190E00C94F91E60E070E0CB01F3
:101950000C949F0C60E070E0CB010E94990C0C94F9
:10196000A50C69EE7EEF90E080E00E94051F60E02C
:1019700082E090E00E94E71E60E083E090E00E9439
:10198000E71E1092CA011092CB011092CC01109266
:10199000CD0160E084E090E00E94E71E60E082E21A
:1019A00090E00E94E71E60E085E090E00E94E71E64
:1019B00060E086E090E00E94E71E6FEF87E090E035
:1019C0000E94E71E40E050E0BA0188E090E00E94EB
:1019D000F91E60E08DE090E00E94E71E40E050E0DC
:1019E000BA0188E190E00E94F91E60E087E190E092
:1019F0000E94E71E40E050E0BA018CE190E00E94B6
:101A0000F91E70E060E080E290E00E94051F40E077
:101A100050E0BA0188E190E00E94F91E0C94AA0CF3
:101A20000C94B10C682F8EE090E00C94E71E0E949D
:101A30008017609328027093290280932A02909362
:101A40002B026093240270932502809326029093C8
:101A50002702089585B7806885BF85B7806885BFF0
:101A60000895089508950C94320D08950C94350D41
:101A70000E942A0D80EE9FE00E942F160E94310DD9
:101A80000C94330D81E008950C94420D089508954F
:101A90000E94460D0C94470D0E94FA0F0C948A0286
:101AA0000E946B170E94D8100E944C0D0C94360DAA
:101AB0007F928F929F92AF92BF92CF92DF92EF92DE
:101AC000FF920F931F93CF93DF93CDB7DEB72A9783
:101AD0000FB6F894DEBF0FBECDBF0E94ED10A82E4A
:101AE00081110E94170D5AE1852E52E0952E10E0CB
:101AF00000E0702E802F0E9424106C01F401E19010
:101B0000F1904F01E816F90609F453C080912C02B8
:101B100081FD0E942D10C7018C259D25B12CEE243E
:101B2000E394F12C9C012E213F21232BE1F10E9413
:101B3000440D8823A9F0BE827F82CE20DF2081E081
:101B4000CD2809F480E088870E9474178160782F7F
:101B50009A8789874E815F8168858A850E94A50260
:101B6000000F111FF801E65EFD4F80819181E8268C
:101B7000F926F182E08281E0A11001C080E02A967E
:101B80000FB6F894DEBF0FBECDBFDF91CF911F918E
:101B90000F91FF90EF90DF90CF90BF90AF909F900C
:101BA0008F907F900895B394EE0CFF1CFFE0BF125E
:101BB000B9CF0F5F1F4F0530110509F09ACF8FEF96
:101BC00089838A831B820E9474178160782F9D838A
:101BD0008C8349815A816B818D810E94A502CBCF74
:101BE0000E94580D0E94F0120C949A02CF93DF933A
:101BF0000E94060FEC01811521E5920708F042C012
:101C0000811530E5930708F09DC0883E910530F5B9
:101C1000803E910508F092C0883A910588F4853A93
:101C2000910508F084C08130910509F487C00097C0
:101C300009F484C0049708F081C0D0E0C0E07EC001
:101C40008F3B9105D0F7C85AD0E0CC0FDD1FC65BA3
:101C5000DE4F0990D881C02DD46470C081159042A8
:101C600050F4C11581E0D80708F068C0CD3ED10519
:101C700020F3D06563C0C11590E4D907F0F2DF709E
:101C8000D06A5CC0811525E5920700F5811534E521
:101C9000930708F08BC0811543E5940708F073C0E3
:101CA000C11582E5D80708F469C0CE018370992771
:101CB00021E030E002C0220F331F8A95E2F7C6957B
:101CC000C69580E2C89FE001112454C0C11599E572
:101CD000D907A8F4C11528E5D20708F06CC0C115D2
:101CE00036E5D30708F0A9CF8C2F0E949D0FC82F8F
:101CF000D0E0DC2FCC27CC27DF71D0621FC0C1150C
:101D00004AE5D40708F45CC0CE0190568115904294
:101D100008F093CF8D2F8F710E949D0F90E0982F28
:101D2000882788279F719C012C2BE901E6CFC55A93
:101D3000D0E0C858DE4FC881D0E0D064CE01DF913A
:101D4000CF910895E4E096958795EA95E1F7837041
:101D50002C2F26952695237040E2249F9001112474
:101D6000382B8C2F8370C1E0D0E002C0CC0FDD1F78
:101D70008A95E2F7C22BD32BDC68E0CFDC2FCC278F
:101D8000C16FD06ADBCF8370992721E030E002C0B9
:101D9000220F331F8A95E2F7C695C69590E2C99F38
:101DA000E0011124C22BD32BDA68C8CFD82FCC275F
:101DB000C46FD06AC3CFDC2FCC27C06FD06ABECF30
:101DC0008C2F8F700E949D0F34E0D695C7953A9561
:101DD000E1F7CF709C2FEC01D069B0CF972F70E066
:101DE0002FE0929F600D711D1124FB019BE4899FE0
:101DF000E00DF11D1124EE0FFF1FE455FF4F8591FB
:101E0000949108950E94EE0E0C94F60D823891057F
:101E1000B1F1B0F48133910509F475C048F4893209
:101E2000910509F469C08A32910509F473C00895D7
:101E30008533910509F459C08933910501F108955D
:101E4000833E9105A9F138F4803E9105F9F0823E78
:101E5000910549F10895863E9105A9F1873E9105C6
:101E6000C9F1843E910519F52091570221FF1FC049
:101E70008091560284FD14C087EE90E00895209171
:101E800056022370A1F080EE90E008952091560252
:101E900020FD47C03091570230FF09C024FF44C0E5
:101EA00090E080E004C02091560222FDF7CF089513
:101EB0002091560222FD3BC03091570230FDE3CF06
:101EC00024FFF5CFEDCF2091560223FFF0CF24FD64
:101ED000E7CFD2CF2091560223FD2CC0309157027C
:101EE00031FFEECF84EE90E008952091560225FF59
:101EF000DECF89E290E008952091560225FFD7CFEA
:101F000085E390E008952091560226FFD0CF8AE223
:101F100090E008952091560226FFC9CF81E390E01A
:101F2000089589E390E0089583EE90E0089582EEAD
:101F300090E0089586EE90E008959091560292FF09
:101F400006C0282F28712830F9F4877F846093FF1A
:101F500006C0282F28712831F1F4877E84612091F2
:101F6000570220FF06C0382F38713830D9F4877FE8
:101F7000816021FF06C0282F28712831D1F4877E87
:101F8000816194FD877E0895282F24712430F9F60D
:101F90008B7F8860DCCF282F2471243101F78B7E62
:101FA0008861DDCF382F3171313019F78E7F88602D
:101FB000E0CF282F2171213121F78E7E8861E1CF7A
:101FC00080E008950C94650C0E94ED108FE39CE96D
:101FD0000197F1F700C000000E94ED1080E00E9420
:101FE000241080FF04C00E94E20F0C94BF170895D4
:101FF0000C94E40F0E946B0C811102C00E94100D22
:102000000E94760C80932C020E947E0C90935702C3
:10201000809356020E94F80F0E947A0C682F70E09D
:1020200090E080E00E94CF066091C6017091C701E8
:102030008091C8019091C9010C94090708950C94EE
:102040001E1008950C942110E82FF0E0EE0FFF1FF2
:10205000EE59FD4F808191810895089580EA8A9517
:10206000F1F7089500C008950C942E10F894E82F0D
:10207000E295EF70F0E031A1282F2F7081E090E021
:1020800001C0880F2A95EAF7982F9095932391A382
:1020900092A1892B82A378940895CF93DF93CAE805
:1020A000D1E089918F3F11F00E94361081E0CF3846
:1020B000D807B9F7CBE7D1E089918F3F11F00E94A3
:1020C000361081E0CA38D807B9F7DF91CF9108956B
:1020D000AF92BF92DF92EF92FF920F931F93CF9335
:1020E000DF938C01D62EC62FD0E0CE0186579E4FAF
:1020F0007C01FC0120812F3F09F44DC0F894E22FB0
:10210000E295EF70F0E031A12F7081E090E001C026
:10211000880F2A95EAF7932F982B91A392A1809587
:10212000892382A378940E943210EBE7F1E04AE819
:1021300051E021E030E0B12CA12C61916F3FA9F179
:10214000A62FA295AF70B0E090968C9190E06F7042
:1021500002C0959587956A95E2F780FD26C0C90172
:10216000A82AB92A220F331F4E175F0731F7F7014C
:1021700080818F3F11F00E94361061E0A114B104FC
:1021800009F460E08D2D0E943410CC0FDD1FC00FCC
:10219000D11FB982A882DF91CF911F910F91FF903B
:1021A000EF90DF90BF90AF90089590E080E0D8CF9F
:1021B0000E944D108AE0E2E6F2E0DF01982F1D92C6
:1021C0009A95E9F7E8E5F2E0DF011D928A95E9F7D3
:1021D00085E00E9438110C941502FF920F931F9313
:1021E000CF93DF93CDB7DEB72A970FB6F894DEBF53
:1021F0000FBECDBF8E010F5F1F4F8AE0F801119215
:102200008A95E9F7F12C6F2DC8010E946810F394AC
:10221000F5E0FF12F8CF4AE050E0B80188E592E01F
:102220000E94CC1EFF24F394009709F4F12C892B13
:1022300041F08AE0F801A8E5B2E001900D928A959C
:10224000E1F72F2D45E062E672E088E592E00E941A
:1022500039110E9417028F2D2A960FB6F894DEBF0F
:102260000FBECDBFDF91CF911F910F91FF900895C9
:102270000895FF920F931F93CF93DF93F82E092FAA
:10228000162FD72FC42F222349F081E080932F02ED
:102290000E94741790932E0280932D0280912F023A
:1022A0008823A1F080912D0290912E020E948C171C
:1022B000059760F0EF2DF02FA12FBD2F90E080E06B
:1022C000D0E08C179D0744F010922F02DF91CF9140
:1022D0001F910F91FF900895219131912D933D937E
:1022E0000196EFCF0E9472190E94500D0C947E1936
:1022F0000E9482190E94F00D0C949C190E941417E0
:102300000E9459190E94380D0E9472110E94781182
:102310000E94480DFBCF8091360280FF0DC0609176
:10232000090170E0660F771F6038710570F561155F
:10233000710569F1862F089581FF07C06091090139
:1023400084E0689FB0011124EFCF6091090182FD04
:102350000AC0809135028823A9F02091080160917C
:102360000901821710F088E0ECCF869FC00111248C
:1023700033E0880F991F3A95E1F7622F70E00E94D1
:102380009E1ED2CF68E070E0D5CF8FE7089581E040
:1023900008958091360280FF0CC06091050170E0C5
:1023A00075956795759567956115710549F1862F46
:1023B000089581FF06C06091050170E075956795ED
:1023C000F3CF6091050182FD0BC0909134029923F7
:1023D000A1F06091040180910501961738F0682FF3
:1023E00070E06038710500F38FE70895899FC001A0
:1023F000112470E00E949E1EF4CF61E070E0D7CF00
:1024000081E008958D3E31F40E948B118195809377
:102410003A0208958E3E19F40E948B11F8CF8F3E38
:1024200031F40E948B118195809339020895803F89
:1024300019F40E948B11F8CF893F29F40E94C91129
:1024400080933B0208958A3F21F40E94C91181952F
:10245000F7CF8B3F31F40E94C911819580933C02E4
:1024600008958C3F19F40E94C911F8CF9FE0980F8E
:10247000983070F4815F990B21E030E001C0220FA9
:102480008A95EAF780913802822B8093380208956A
:102490008D3F31F480913602816080933602089539
:1024A0008E3F21F4809136028260F7CF8F3FB9F7DB
:1024B000809136028460F1CF409139028D3E59F40B
:1024C00080913A0287FF0DC010923A0241110BC071
:1024D0001092350208C08E3E81F480913A0218169F
:1024E0009CF3442381F080913B0290913C02892B24
:1024F00009F05AC01092340208958F3E49F447FF04
:10250000F0CF1092390280913A028111ECCFE0CFE6
:10251000803F19F41416ACF3E4CF90913B02893F4D
:1025200029F41916F4F610923B02DBCF8A3F19F416
:1025300097FFD7CFF8CF90913C028B3F29F497FFBC
:10254000D0CF10923C02CDCF8C3F19F41916CCF3AA
:10255000C8CF9FE0980F983090F4815F990B21E0ED
:1025600030E0B90102C0660F771F8A95E2F7CB0110
:10257000809590913802892380933802B2CF8D3FA5
:1025800031F4809136028E7F80933602AACF8E3F3F
:1025900021F4809136028D7FF7CF8F3F09F0A1CFD4
:1025A000809136028B7FF0CF08950E9474179C01B2
:1025B0009091390280913A02982B21F030933302A6
:1025C0002093320290913B0280913C02982B21F0A3
:1025D000309331022093300287E392E00C9450163E
:1025E000EF92FF920F931F93CF93DF9300D000D011
:1025F00000D0CDB7DEB786E0E7E3F2E0DE0111966A
:1026000001900D928A95E1F7E0903902F0903A023C
:1026100000913B0210913C021092390210923A0252
:1026200010923B0210923C028E2D8F2991F08091E6
:102630003202909133020E948C17AC0190913502C6
:10264000992309F43FC080910A018417150608F404
:1026500047C0802F812B91F0809130029091310200
:102660000E948C17AC0190913402992309F477C031
:10267000809106018417150608F47FC08091390205
:1026800090913A02892B90913B02892B90913C02C8
:10269000892B11F00E94D51286E0FE013196A7E346
:1026A000B2E001900D928A95E1F726960FB6F89464
:1026B000DEBF0FBECDBFDF91CF911F910F91FF9075
:1026C000EF90089520910B018AE0289F900111243A
:1026D0002417350708F0BDCF9F5F9093350202C0E5
:1026E0009F3FD1F7EE2059F00E948B119FEF1E14EF
:1026F0000CF491E0899F802D112480933902FF20F2
:1027000059F00E948B119FEF1F140CF491E0899FE8
:10271000802D112480933A0230913902332309F439
:1027200098CF20913A02222309F493CF45EB34034A
:10273000C0011124992359F09093390245EB2403E9
:1027400090011124332339F030933A0282CF81E093
:1027500080933902F3CF81E080933A027ACF2091BF
:1027600007018AE0289F900111242417350708F0FB
:1027700085CF9F5F9093340202C09F3FD1F7002323
:1027800059F00E94C9119FEF10160CF491E0899F37
:10279000802D112480933B02112359F00E94C9110E
:1027A0009FEF11160CF491E0899F802D11248093E6
:1027B0003C0230913B02332309F460CF20913C026C
:1027C000222309F45BCF45EB3403C0011124992384
:1027D00059F090933B0245EB2403900111243323DD
:1027E00039F030933C024ACF81E080933B02F3CF33
:1027F00081E080933C0242CF86E0E7E3F2E0DF0134
:102800001D928A95E9F710923502109234021092C7
:1028100036020895CF93DF93EC01FB018281882378
:1028200009F433C1C430FDE5DF07C0F5CB3F9CE5BB
:10283000D90730F49E0122503C4524313105B0F5D2
:102840000E947E0C9093570280935602C1318CE512
:10285000D80709F4EEC008F069C0C930ECE5DE071E
:1028600009F4D5C0C8F5C5308CE5D80709F4C7C050
:1028700000F5C330ECE5DE0709F4B9C008F0BBC0D1
:10288000C230DC4509F4ADC08091560290915702E8
:102890000E948C0C0E947A0680E008C0C236EDE5EA
:1028A000DE0771F2C63AFDE5DF0751F2DF91CF9105
:1028B0000895809156028062C7309CE5D90709F4DB
:1028C00093C0809156028061C830DC4508F48CC00A
:1028D00080915602806488C0809156028B7FCD30F3
:1028E000FCE5DF0709F480C098F4809156028E7FE2
:1028F000CB309CE5D90709F477C0809156028C60F3
:10290000CC30DC4508F470C0809156028D7F6CC0DD
:10291000809156028F7ECF30FCE5DF0709F464C05A
:1029200008F47BC0809156028F7D5EC0CE3F9CE54F
:10293000D90709F47AC050F5C531FCE5DF0709F481
:1029400086C098F480915602837FC3319CE5D907F5
:1029500009F44AC008F471C00E947A0690915602A8
:10296000892F97FB87F980583FC0CC3FFCE5DF07F4
:1029700009F449C008F055C0809157028160CB3FEF
:10298000DC4509F081CF809357027ECFC230EDE560
:10299000DE0709F468C0A8F4C1158DE5D80709F46D
:1029A00052C0809157028360C130DD4560F3809151
:1029B0005702982F909591708E7F892B90FB81F90B
:1029C000E2CFC236EDE5DE0709F451C0C63AFDE5B7
:1029D000DF0709F453C0C330DD4509F055CF80E06F
:1029E00043C0809156028160809356024DCF809102
:1029F00056028260F9CF809156028460F5CF8091B3
:102A000056028860F1CF809157028260BCCF0E944D
:102A10007A06809156028068E7CF80915602877FC0
:102A2000E3CF809157028E7FAECF809157028D7F8A
:102A3000AACF809156028F7BD7CF0E947A068091D1
:102A400056028F77D1CF809157028C7F9CCF809197
:102A5000560282FB992790F921E0922790FB82F998
:102A600090FB83F9C1CF81E00E94120D0DCF9091B0
:102A70005602892F8F7E94FF8061B6CF90915602C7
:102A8000892F8E7F90FF8160AFCF81E00FCFCF93F2
:102A9000DF93EB0186319C4511F50E94840B9A81EE
:102AA000992399F08A7A91E009F490E090933D029D
:102AB000811109C089E20E945F0B0E94C40B80E073
:102AC000DF91CF91089585E3F6CF80913D0281118A
:102AD00004C089E20E94660BF0CF85E3FBCF81E062
:102AE000EFCF0F931F93CF93DF93C42FD22FFC010F
:102AF00082818823C9F0409340020E94741790930A
:102B00003F0280933E0280E28C0F883008F050C074
:102B1000C77081E001C0880FCA95EAF7DF91CF91B5
:102B20001F910F910C94EF0310914002141335C0C4
:102B300080913E0290913F020E948C17883C910543
:102B400060F5C0E2CD0F1D17B9F080E2810F88302B
:102B500040F4177081E001C0880F1A95EAF70E94CF
:102B6000F603C83048F481E09D2F977001C0880FAC
:102B70009A95EAF70E94EF03802F0E94E703C8307E
:102B8000B8F4D77081E001C0880FDA95EAF7DF91D9
:102B9000CF911F910F910C94F60380E28C0F883037
:102BA00038F4C77081E001C0880FCA95EAF7EFCF0B
:102BB000DF91CF911F910F9108950F939C01CB014D
:102BC000243F4CE5340759F1A8F4293DFCE53F07C3
:102BD00001F12A3D4CE53407D1F1283D3C4591F403
:102BE00006E221EE41EE68ED7CE50E94711580E081
:102BF0000F910895263FFCE53F07E9F0B0F0273F2D
:102C00003C45F9F0FC018281882339F110924002A1
:102C1000EFCF07E225EE45EE69ED7CE5E6CF06E273
:102C200021EE40EE64EF7CE5E0CF07E225EE44EED6
:102C300065EF7CE5DACF06E221EE42EE66EF7CE559
:102C4000D4CF07E225EE46EE67EF7CE5CECF08E273
:102C500021E045EE6AED7CE5C8CF81E0C9CF9093D5
:102C600091018093900108959093460280934502CC
:102C70000895E0914502F0914602309721F00190CD
:102C8000F081E02D099480E00895E0914502F091F3
:102C90004602309721F00280F381E02D09940895D7
:102CA000E0914502F0914602309739F022E0DC01D4
:102CB0002C930480F581E02D09940895209143021E
:102CC000309144022817390771F0909344028093A1
:102CD0004302E0914502F0914602309721F00680D0
:102CE000F781E02D0994089520914102309142022C
:102CF0002817390771F09093420280934102E091C6
:102D00004502F0914602309721F00084F185E02DD4
:102D1000099408959C012E5F3F4FAC01485F5F4FBF
:102D200080E02417350709F40895F90191919F0176
:102D30009923B9F38F5FF5CF662349F0FC013296F2
:102D400008962191261729F0E817F907D1F780E0B6
:102D5000089581E008959C01FC0132969FEF80E088
:102D60004191461751F09F3F19F4411101C0982F2E
:102D70008F5F8630A9F79F3F09F40895290F311D11
:102D800097FD3A95F90162830895FC013296089601
:102D90002191261303C0DF0111971C92E817F90750
:102DA000B9F708950C94AB160C94C516029626E05C
:102DB000FC0111922A95E9F7089508950C94DD1607
:102DC000811105C081E0809347020C94DE1682E0F9
:102DD000FACF83E0809347020C94DE160C94E01641
:102DE00081E0809347020C94DE160C94F01608954F
:102DF00008950C94F816089508950C94F716CF933F
:102E00000E94FB160E94ED100E94FC16C0E08C2F61
:102E10000E942410892B31F4CF5FC530C1F780E0C8
:102E2000CF91089581E0FCCF08951F921FB61F92A5
:102E300011248F939F93AF93BF9380914802811188
:102E400013C080916C0290916D02A0916E02B091BE
:102E50006F024196A11DB11D80936C0290936D028B
:102E6000A0936E02B0936F02BF91AF919F918F912B
:102E70001F901FBE1F90189580917402843031F10D
:102E80000E947B021092480288E190E020E40FB695
:102E9000F894A895809360000FBE2093600083B7DC
:102EA000817F846083BF83B7816083BF7894889576
:102EB00083B78E7F83BF0FB6F894A895809160008A
:102EC000886180936000109260000FBE08950E9498
:102ED0007A060C947F0282E084BD93E095BD9AEF60
:102EE00097BD80936E0008952FB7F89480916C027F
:102EF00090916D02A0916E02B0916F022FBF089564
:102F00002FB7F89460916C0270916D0280916E02FF
:102F100090916F022FBF08959C014FB7F894809154
:102F20006C0290916D02A0916E02B0916F024FBF42
:102F3000821B930B089578941F921FB61F92112441
:102F40008F939F93AF93BF9380916C0290916D028A
:102F5000A0916E02B0916F020196A11DB11D8093E8
:102F60006C0290936D02A0936E02B0936F02BF91BA
:102F7000AF919F918F911F901FBE1F90189581E078
:102F80008093E00080E28093D8001092C9008FE126
:102F90009EE40197F1F700C0000087E090EBDC01B0
:102FA00080937D0290937E02A0937F02B093800273
:102FB00088E19CE00FB6F894A895809360000FBE5E
:102FC00090936000FFCF80915402089508959C0172
:102FD00082E08093E9009FEF8091E800915085FDA9
:102FE00006C085ED8A95F1F700009111F5CF80912B
:102FF000E80085FF0CC050E040E066E070E0C901E9
:103000000E940D1A8091E8008E778093E800089561
:10301000CF93DF93EC0181E08093E9008FEF9091F3
:10302000E800815095FD06C095ED9A95F1F70000F6
:103030008111F5CF8091E80085FF14C050E040E099
:1030400068E070E0CE010E940D1A8091E8008E7752
:103050008093E80088E0FE01ACE4B2E001900D92BC
:103060008A95E1F7DF91CF9108958093490270939B
:103070004B0260934A0280917402843001F582E031
:103080008093E9008FEF9091E800815095FD06C094
:1030900095ED9A95F1F700008111F5CF8091E80048
:1030A00085FF0DC050E040E063E070E089E492E00D
:1030B0000E940D1A8091E8008E778093E8000895B1
:1030C000BC0184E00C943518BC0183E00C943518E5
:1030D00080917302811109C00E949D1B0E94FA1BFE
:1030E0008091E20084608093E20008951092730260
:1030F00008950C94F0166091700281E0611101C096
:1031000080E00C94E9169091740281E0943009F00B
:1031100080E0609170020C94EE1642E061EC81E078
:103120000E94191B42E261EC82E00E94191B9091FF
:10313000740281E0943009F080E0609170020C9498
:10314000E01680917602833009F460C030F481305B
:10315000C9F1823009F49CC008958A3009F488C00E
:103160008B3009F46EC0893009F04FC08091750230
:10317000813209F04AC08091790290917A020297D7
:1031800008F043C08091E800877F8093E800809139
:10319000E80082FF36C09091F3008091F200029720
:1031A00031F48091F100813011F0863021F480916A
:1031B000F100809354028091E8008B778093E800BF
:1031C0000C944D1B80917502813AF9F48091E800CE
:1031D000877F8093E8008091790290917A02892B11
:1031E00061F468E08CE492E070E00E945C1A8091E7
:1031F000E8008B778093E800089560E090E080E03D
:10320000F3CF809174028111C2CF0895809175022D
:10321000813AD9F78091790290917A02892BA9F7A6
:103220008091E800877F8093E8008091E80080FF2C
:10323000FCCF809118018093F1008091E8008E7797
:10324000BDCF80917502813201F780917902909112
:103250007A02892BD1F68091E800877F8093E8007D
:103260000E944D1B80917702809318010C947A067E
:1032700080917502813249F68091E800877F8093C2
:10328000E8000E944D1B80917802809355020895BA
:1032900080917502813A09F0B8CF8091E800877F6C
:1032A0008093E8008091E80080FFFCCF8091550278
:1032B000C2CF84B7877F84BF0FB6F894A89580915A
:1032C0006000886180936000109260000FBE80E80B
:1032D00090E00FB6F89480936100909361000FBE68
:1032E0000C94F5160E949D1B0E94FA1BE2EEF0E082
:1032F00080818460808378940C94831E8CE091E0BC
:103300000C943416809174028530A9F48091740273
:10331000853011F00C9467170E943C17809172025F
:103320008823A1F30E94FF16882381F30E94F719D6
:103330000E947A06EBCF089508950C949F19292FC7
:1033400033272330310519F168F42130310509F4B0
:1033500044C02230310509F445C090E080E030E0FF
:1033600020E025C02132310549F122323105A9F78B
:1033700080E490E022ED32E061157105C1F08BE749
:1033800090E027E532E06130710589F0E6CF9927BA
:103390008130910581F0009729F00297F1F6E8ED70
:1033A000F1E002C0E6E0F2E0849190E09F01FA01D2
:1033B000318320830895E2EFF1E0F6CF89E090E0D9
:1033C0002CE132E06115710591F389E090E025E38D
:1033D00032E06130710559F3C0CF82E190E025E41D
:1033E00032E0E5CF8BE390E02AE032E0E0CF80E10D
:1033F00089BD82E189BD09B400FEFDCF8091D8006E
:103400008F7D8093D8008091E00082608093E000FF
:103410008091E00081FDFCCF0895AF92BF92CF92E2
:10342000DF92FF920F931F93CF93DF936C01EB0119
:103430008A010E946C1BF82E811123C00115110511
:1034400039F0F80180819181C81BD90BC80ED91EB3
:10345000B12CA12C2097A9F08091E80085FD22C015
:103460008091E8008E778093E80001151105A1F0A6
:10347000F80180819181A80EB91EB182A08285E0F9
:10348000F82E8F2DDF91CF911F910F91FF90DF903C
:10349000CF90BF90AF9008950E946C1B8823D1F20B
:1034A000F82EEFCFF60181916F018093F100219703
:1034B000FFEFAF1ABF0ACECFFC0180917B02909143
:1034C0007C0286179707A0F06115710529F4909189
:1034D000E8009E779093E80090E06115710551F443
:1034E000911108C08091E80082FF34C080E0089507
:1034F000BC01F2CF809174028823C1F18530C1F103
:103500008091E80083FD30C08091E80082FDEACF21
:103510008091E80080FFE1CF8091F3002091F200DC
:10352000382F6115710519F02830310558F091E0F8
:103530002830310509F090E02091E8002E772093A3
:10354000E800CBCF81918093F100615071092F5F2A
:103550003F4FE7CF80917402882341F0853041F0DE
:103560008091E80083FFBECF81E0089582E0089556
:1035700083E00895FC0180917B0290917C02861784
:103580009707A0F06115710529F48091E8008E7706
:103590008093E80090E06115710551F4911108C025
:1035A0008091E80082FF35C080E00895BC01F2CF31
:1035B000809174028823C9F18530C9F18091E800B7
:1035C00083FD31C08091E80082FDEACF8091E80060
:1035D00080FFE1CF8091F3002091F200382F611538
:1035E000710519F02830310558F091E02830310587
:1035F00009F090E08091E8008E778093E800CBCFCF
:1036000084918093F1003196615071092F5F3F4F93
:10361000E6CF80917402882341F0853041F080919B
:10362000E80083FFBDCF81E0089582E0089583E044
:103630000895982F973028F08F708093E90081E0EB
:1036400008959093E900242F762F50E0981731F0D9
:103650007091EC002091ED005091F00021FD02C02E
:103660009F5FE8CF3091EB003E7F3093EB003091CD
:10367000ED003D7F3093ED003091EB0031603093F1
:10368000EB007093EC002093ED005093F00020913C
:10369000EE0027FDE5CF80E008958091750287FF59
:1036A00013C08091E80082FF06C08091E8008B770C
:1036B0008093E80004C0809174028111F2CF0895D4
:1036C000809174028823D9F38091E80080FFF8CFBD
:1036D0008091E8008E77ECCF2091E4003091E500F6
:1036E00095E6A9012091EC00822F817020FF06C091
:1036F0008091E80080FF06C080E008952091E800F6
:1037000022FD1AC080917402882389F0853089F0E7
:103710008091EB0085FD0FC02091E4003091E50021
:1037200042175307F9F29150E1F684E0089582E0E0
:10373000089583E0089581E008950E940B1C0E9483
:10374000131CE0EEF0E0808181608083E8EDF0E022
:1037500080818F77808319BCA7EDB0E08C918E7F3C
:103760008C9380818F7E80831092730208950F93D3
:103770001F93CF93DF930E940B1C0E94131CC8ED74
:10378000D0E088818F77888388818068888388816A
:103790008F7D888319BC109274021092700210926F
:1037A00072021092710200EE10E0F80180818B7FAE
:1037B000808388818160888342E060E080E00E94AD
:1037C000191BE1EEF0E080818E7F8083E2EEF0E075
:1037D000808181608083808188608083F80180811E
:1037E0008E7F8083888180618883DF91CF911F9154
:1037F0000F910895E8EDF0E080818F7E8083E7ED02
:10380000F0E080818160808384E082BF81E08093EA
:1038100073020C94B71BE8EDF0E080818E7F80830B
:103820001092E20008951092DA001092E1000895DB
:103830001F920F920FB60F9211242F933F934F9325
:103840005F936F937F938F939F93AF93BF93EF9308
:10385000FF938091E10082FF0BC08091E20082FF24
:1038600007C08091E1008B7F8093E1000E94821E5F
:103870008091DA0080FF19C08091D80080FF15C0C8
:103880008091DA008E7F8093DA008091D90080FFEA
:1038900096C080E189BD82E189BD09B400FEFDCFFB
:1038A00081E0809374020E9468188091E10080FF9B
:1038B00019C08091E20080FF15C08091E2008E7FE8
:1038C0008093E2008091E20080618093E200809129
:1038D000D80080628093D80019BC85E08093740280
:1038E0000E947B188091E10084FF2BC08091E20050
:1038F00084FF27C080E189BD82E189BD89B5982F09
:10390000917080FFFBCF8091D8008F7D8093D8008D
:103910008091E1008F7E8093E1008091E2008F7EB4
:103920008093E2008091E20081608093E2008091C8
:103930007002882309F449C084E0809374020E94D5
:1039400083188091E10083FF29C08091E20083FF0A
:1039500025C08091E100877F8093E10082E0809321
:103960007402109270028091E1008E7F8093E100DA
:103970008091E2008E7F8093E2008091E20080617E
:103980008093E20042E060E080E00E94191B809199
:10399000F00088608093F0000E947918FF91EF9109
:1039A000BF91AF919F918F917F916F915F914F9157
:1039B0003F912F910F900FBE0F901F90189519BC3B
:1039C000109274020E94761870CF8091E30087FDF8
:1039D00093E090937402B3CF1F920F920FB60F92A1
:1039E00011242F933F934F935F936F937F938F9304
:1039F0009F93AF93BF93CF93DF93EF93FF93D091B8
:103A0000E900DF708091EC00C82FC17080FDC0E834
:103A10001092E9008091F000877F8093F000789405
:103A20000E94301D1092E9008091F0008860809320
:103A3000F000CD2BCF70C093E900FF91EF91DF91A3
:103A4000CF91BF91AF919F918F917F916F915F9136
:103A50004F913F912F910F900FBE0F901F9018958F
:103A60001F93CF93DF93CDB7DEB7AA970FB6F89425
:103A7000DEBF0FBECDBF85E792E02091F100FC01D3
:103A80002193CF01F2E08D379F07B9F70E94A1186B
:103A90008091E80083FF1EC18091750290917602AB
:103AA0009A3008F017C1E92FF0E0E75DF04E0C9472
:103AB000B21E803899F0823809F00CC180917902E9
:103AC0008F70873008F006C18093E9008091EB0089
:103AD00085FB882780F91092E90006C08091710269
:103AE00090917202911182609091E800977F90937B
:103AF000E8008093F1001092F1008091E8008E7749
:103B0000E5C0882309F4D3C0823009F0E3C0809176
:103B100077028111D6C0809179028F702FEF280F24
:103B2000263008F0D7C08093E9002091EB0020FFF9
:103B3000C8C0933031F48091EB0080628093EB0039
:103B4000C0C09091EB0090619093EB0021E030E0D9
:103B500001C0220F8A95EAF72093EA001092EA004A
:103B60008091EB008860EACF8111B4C01091770298
:103B70001F778091E3008078812B8093E300809110
:103B8000E800877F8093E8000E944D1B8091E80049
:103B900080FFFCCF8091E30080688093E30082E0A7
:103BA000111183E08093740295C08058823008F030
:103BB00091C080917702909178028C3D23E092072A
:103BC000A1F583E08A838AE289834FB7F894DE0106
:103BD000139620E03EE051E2E32FF0E050935700CF
:103BE000E49120FF03C0E295EF703F5FEF708E2FEE
:103BF00090E0EA30C0F0C7968D939D932F5F2431FB
:103C000059F74FBF8091E800877F8093E8006AE210
:103C100070E0CE0101960E945C1A8091E8008B77DB
:103C20008093E80057C0C096E7CF60917902709109
:103C30007A02AE014F5F5F4F0E949D19BC01892B34
:103C400009F448C09091E800977F9093E80089813B
:103C50009A810E94BA1AE1CF8038E1F58091E8009C
:103C6000877F8093E800809170028093F10045CFB8
:103C7000811130C090917702923060F58091E80018
:103C8000877F8093E800909370020E944D1B809183
:103C90007002882311F084E005C08091E30087FD65
:103CA000FACF81E0809374020E948D1813C0809136
:103CB0007702813079F481E0933009F080E08093DD
:103CC00072021092E9008091E800877F8093E800FB
:103CD0000E944D1B8091E80083FF0AC08091E8009C
:103CE000877F8093E8008091EB0080628093EB00F7
:103CF000AA960FB6F894DEBF0FBECDBFDF91CF916D
:103D00001F9108950895CF93809174028823A1F0A4
:103D1000C091E900CF709091EC00892F817090FDE7
:103D200080E8C82B1092E9008091E80083FD0E9492
:103D3000301DCF70C093E900CF91089597FB072EF7
:103D400016F4009407D077FD09D00E94B81E07FC36
:103D500005D03EF4909581959F4F0895709561959B
:103D60007F4F0895EE0FFF1F0590F491E02D099409
:103D7000AA1BBB1B51E107C0AA1FBB1FA617B70791
:103D800010F0A61BB70B881F991F5A95A9F78095AD
:103D90009095BC01CD010895FB01DC0104C08D911B
:103DA0000190801921F441505040C8F7881B990BAD
:103DB0000895F999FECF92BD81BDF89A992780B5F3
:103DC0000895A8E1B0E042E050E00C940D1F262FCA
:103DD000F999FECF92BD81BDF89A019700B4021601
:103DE00039F01FBA20BD0FB6F894FA9AF99A0FBEAF
:103DF00008950396272F0E94E81E0E94E71E252F94
:103E00000E94E81E242F0C94E81E0196272F0E9482
:103E1000E81E0C94E71EDC01CB01FC01F999FECFF2
:103E200006C0F2BDE1BDF89A319600B40D92415042
:103E30005040B8F70895F894FFCF3B043B046C045E
:103E40006C04FF041B059B049B042605B205C105F9
:103E5000C105591D811D6A1E811D6A1EB41DD51D17
:063E60006A1E2C1E381E34
:103E6600C8001002280850011E0A1401E31708189A
:103E7600E71764186018E61701E200E900EA00B5E2
:103E860000B600B700CD008301CC008A01920194F0
:103E9600012102230224022502260227022A02B356
:103EA60000B4006F007000818283E200E900EA003E
:103EB600B500B600B700CD008301CC008A0192019F
:103EC60094012102230224022502260227022A0245
:103ED600B300B4006F007000818283F7F6F5F4F149
:103EE600F0C63037949697363534909192936700A2
:00000001FF
