:100000000C9498020C94D0020C94D0020C94D00260
:100010000C94D0020C94D0020C94D0020C94D00218
:100020000C94D0020C94D0020C94C0200C94942117
:100030000C94031B0C94D0020C94D0020C94D002AC
:100040000C94D0020C94D0020C94D0020C94D002E8
:100050000C94D0020C94891B0C94D0020C94D00206
:100060000C94D0020C94D0020C94D0020C94D002C8
:100070000C94D0020C94D0020C94D0020C94D002B8
:100080000C94D0020C94D0020C94D0020C94D002A8
:100090000C94D0020C94D0020C94D0020C94D00298
:1000A0000C94D0020C94D0020C94D00229001E00B3
:1000B0001F0020002100220023002400250026002C
:1000C00027002D002E002A004A002B0014001A00E1
:1000D0000800150017001C0018000C001200130087
:1000E0002F00300031004B003900040016000700DB
:1000F00009000A000B000D000E000F003300340051
:10010000000028004E00E10000001D001B0006005A
:100110001900050011001000360037003800E50016
:1001200052004D00E000E300E2000000000000008B
:100130002C0000000000E6000000015150005100BA
:100140004F0035023A003B003C003D003E003F00BE
:100150004000410042004300440045004C000100C3
:100160000100010001000100010001000100010087
:100170000100010001000100010001000100010077
:100180000100010001000100010001000100010067
:100190000100010001000000010001000100000059
:1001A0000100010001000100010001000100010047
:1001B0000100010001000100010001000100010037
:1001C000000000000000010000000000010000002D
:1001D0000100010001000100010001000100010017
:1001E0000100010001000100010001000100010007
:1001F00001000100010001000100010001000100F7
:1002000001000100010001000100010001000100E6
:1002100001000100010001000100010001000100D6
:1002200001000100010001000100010000000100C7
:1002300001000100000001000100010001000100B7
:1002400001000100010001000100010001000100A6
:10025000010001000100000000000000010000009A
:100260000000010000000100010001000100010088
:100270000100010001000100010001000100010076
:100280000100010001000100010001000100010066
:100290000100010001000100010001000100010056
:1002A0000100010001000100010001000100010046
:1002B0000100010001000100010001000100010036
:1002C0000100000001000100010000000100010028
:1002D0000100010001000100010001000100010016
:1002E0000100010001000100010001000000000008
:1002F00000000100000000000100000001000100FA
:100300000100010000000000000000002A2B28006E
:1003100000000000000000000000000000000029B4
:10032000000000002C1E3420212224342627252EF4
:10033000362D3738271E1F2021222324252633332C
:10034000362E37381F0405060708090A0B0C0D0E58
:100350000F101112131415161718191A1B1C1D2F24
:100360003130232D350405060708090A0B0C0D0E44
:100370000F101112131415161718191A1B1C1D2F04
:100380003130354C0000000000000000000000008B
:10039000000000000000000000000000000000005D
:1003A00000000000000000007E0F00D4FFFFFFC728
:1003B0000000007818034D0069006B0065006E00B6
:1003C00065006B006F00200036003500000012034E
:1003D000740061006B0069007300680069006D00C3
:1003E00000000403090409025B00030100A0FA09EC
:1003F0000400000103010100092111010001224054
:100400000007058103080001090401000203000040
:1004100000092111010001222200070582032000AA
:100420000107050303200001090402000103000085
:1004300000092111010001227B000705840320002F
:100440000112010002000000083479546D0100011E
:100450000200010660FF0961A1010962150026FF83
:10046000009520750881020963150026FF0095207C
:1004700075089102C005010902A10185020901A1C7
:100480000005091901290815002501950875018144
:10049000020501093009311581257F950275088112
:1004A0000609381581257F950175088106050C0A16
:1004B00038021581257F950175088106C0C00501A8
:1004C0000980A101850319012AB700150126B7008B
:1004D000950175108100C0050C0901A10185041961
:1004E000012AA002150126A002950175108100C005
:1004F00005010906A101050719E029E715002501F5
:10050000950875018102950175088101050719009B
:1005100029FF150026FF00950675088100050819BA
:10052000012905950575019102950175039101C099
:1005300011241FBECFEFDAE0DEBFCDBF04B603FE4D
:1005400018C08091710290917202A0917302B091D3
:1005500074028730904BA740B04B59F4109271024F
:10056000109272021092730210927402E0E0F8E3AB
:10057000099511E0A0E0B1E0EAEEF7E402C00590D1
:100580000D92AE39B107D9F722E0AEE9B1E001C072
:100590001D92A137B207E1F70E9487120C94CA237B
:1005A0000C94000081E0089581E008950C94D40239
:1005B00008950C94D8021F93CF93DF9300D000D0FE
:1005C0000F92CDB7DEB749835A836B833091A10177
:1005D00089819A8131111DC06623B9F02223A9F0C7
:1005E0000E945C09182F682F89819A810E9408094E
:1005F00069817A81812F0F900F900F900F900F904B
:10060000DF91CF911F910C946A180E943409182F22
:10061000EFCF0E945C0969817A81EDCFFC01262F22
:10062000408151816281738184810C94DB0281E07D
:100630000895CF93DF93EC0160E00E940E03BE01AA
:10064000DF91CF910C94D902E1E0F0E0DF0102C02C
:10065000AA0FBB1F6A95E2F7BD01DF0102C0AA0F16
:10066000BB1F4A95E2F76A2B01C0EE0F2A95EAF705
:10067000962F9823961302C08E2B0895E0958E2313
:100680000895242F462F682F8091C0010E942403D3
:100690000C94C5080C9428110C942B1108950E94F9
:1006A00061080E944E032FEF84E39CE021508040BC
:1006B0009040E1F700C000000C94AD1B0F931F9316
:1006C000CF93DF938C0161E00E940E03EC01B8012F
:1006D0000E9475158823D9F1B801CE010E94D60277
:1006E0008823A9F1B801CE010E94CB19882379F1A2
:1006F000B801CE010E946516882349F1B801CE01E8
:100700000E943519882319F1F8018281882361F04C
:10071000CA35FDE5DF0721F170F4C115ECE5DE0710
:10072000A1F0CE3DDC45C9F0C801DF91CF911F910A
:100730000F910C94D202CB358DE5D807A1F0CC35C2
:10074000DD4591F70E947C0DEFCF0E944F0380E0C2
:10075000DF91CF911F910F9108950E94350EF7CF31
:100760000E94850DE1CF0E94880DDECF0E94E71A1E
:100770000C949F040E94A2040C94EB1ADF92EF9257
:10078000FF920F931F93CF93DF93E82FF0E0EC5F7E
:10079000FC4FD490282F26952695269530E0F90118
:1007A000EC55FC4F0491877010E0082E02C015959F
:1007B00007950A94E2F701701127F901EC56FC4FF6
:1007C000E490F12C082E02C0F594E7940A94E2F725
:1007D00091E0E922FF24F901EC57FC4FC491D0E0ED
:1007E00002C0D595C7958A95E2F7C170DD2701153E
:1007F000110519F081EE0E94F404E114F10419F0DE
:1008000086EE0E94F4048D2D0E94F305EF2819F066
:1008100086EE0E948605012B19F081EE0E94860566
:10082000CD2B51F08CE2DF91CF911F910F91FF9072
:10083000EF90DF900C94F305DF91CF911F910F9112
:10084000FF90EF90DF900895EF92FF920F931F9328
:10085000CF93DF93EC01162F0AE08881882309F4F7
:1008600054C0813009F04EC08981813099F47E01F5
:1008700022E0E20EF11C8A810E94F305E701219635
:10088000812F815050F3EFE9FFE03197F1F700C07D
:100890000000F7CF823041F47E0182E0E80EF11CC7
:1008A0008A810E94F404EACF833041F47E01E2E0C1
:1008B000EE0EF11C8A810E948605E0CF843011F093
:1008C0002196DDCF2A81229690E080E0AE014F5F35
:1008D0005F4F2053330B2A30310548F0019778F2EF
:1008E000EFE9FFE03197F1F700C00000F7CF089F74
:1008F000B001099F700D1124C901860F971F29812E
:10090000EA01E4CF0E94BE03BACFDF91CF911F91DD
:100910000F91FF90EF90089560E00C9424040895E7
:100920000C948F0481E008950C9492040895CF9361
:10093000C82F0E9490048C2FCF910C94940480E0D7
:100940000C9497040E94271A0C9497040E94271A6B
:100950009091A001981721F08093A0010C94970426
:100960000895CF93DF93CDB7DEB72B970FB6F894EA
:10097000DEBF0FBECDBF4F83588769877A878B87CD
:1009800061110E94CA0C1E821D8285E0FE0137960D
:10099000DE01119601900D928A95E1F78C819D817F
:1009A000892B89F449815A816B817C818D819E815B
:1009B0000E94EB0B2B960FB6F894DEBF0FBECDBF97
:1009C000DF91CF91089589819A8189238F3F51F3D7
:1009D000CE0101960E9417038111E4CFEBCFFC01F9
:1009E000808191810C948909CF93C82F882309F4C1
:1009F0008BC08238C1F40E94271A81FD85C089E32B
:100A00000E94850C0E94EA0C2FEF81EE94E02150A9
:100A100080409040E1F700C0000089E30E948C0C08
:100A2000CF910C94EA0C8338A1F40E94271A80FD20
:100A30006BC083E50E94850C0E94EA0C2FEF81EECB
:100A400094E0215080409040E1F700C0000083E531
:100A5000E5CF8438A1F40E94271A82FD55C087E4AF
:100A60000E94850C0E94EA0C2FEF81EE94E0215049
:100A700080409040E1F700C0000087E4CFCF8CEFCA
:100A80008C0F813A90F46C2F8091020190910301B8
:100A90000E948A1A882329F08C2F0E948C0C0E94B5
:100AA000EA0C8C2F0E94850CBBCF80E28C0F883023
:100AB00048F4C77081E001C0880FCA95EAF70E9428
:100AC000AD0CAECFEBE5EC0FE33040F4F0E0E95BCA
:100AD000FE4F808190E0CF910C944C1AE8E5EC0F2A
:100AE000E73150F4F0E0EE0FFF1FE75EFE4F80812C
:100AF0009181CF910C94621AC03F30F08C2F0E94EC
:100B00000B13CF910C94DE13CF910895882309F431
:100B100052C0823871F40E94271A81FF4CC089E3C9
:100B20000E94850C0E94EA0C89E30E948C0C0C94B4
:100B3000EA0C833859F40E94271A80FF3CC083E5F1
:100B40000E94850C0E94EA0C83E5EFCF843859F4AB
:100B50000E94271A82FF2FC087E40E94850C0E9402
:100B6000EA0C87E4E2CF9CEF980F913AF0F290E222
:100B7000980F983050F4877091E001C0990F8A95D2
:100B8000EAF7892F0E94B30CD2CF9BE5980F9330E0
:100B900020F490E080E00C944C1A98E5980F97317F
:100BA00020F490E080E00C94621A803F20F00E94D4
:100BB00065130C94DE1308951F93CF93DF93182FC2
:100BC000EB010E94F404209731F4812FDF91CF9143
:100BD0001F910C9486058FE99FE00197F1F700C003
:100BE00000002197F0CF70E060E0893311F460E5F8
:100BF00070E00C94DC05882321F00E94AD0C0C946D
:100C0000EA0C0895882321F00E94B30C0C94EA0C9E
:100C10000895BF92CF92DF92EF92FF920F931F93AE
:100C2000CF93DF936C01D62FC72FFC011281F58083
:100C3000F2949FE0F9220E94A30CE82E8823B9F0D9
:100C4000E12E1123A1F08C2F807F803421F080E2EF
:100C50008D0F8830D0F080914B0282FD16C082E06B
:100C60000E944B0D0E94A30C91E0E82EE926BC2EB9
:100C7000B2948FE0B822FBE0FB1508F468C0EB2DBE
:100C8000F0E0E453FC4D0C945A23E12CF0CF0C2FF0
:100C90000F70C07F11F00295007F112399F000239F
:100CA00059F080E28D0F883010F0D11107C0802FED
:100CB0000E94AD0C0E94EA0C8D2F41C0802F0E9433
:100CC000BD0CF8CF8D2F0E948605002309F43FC08C
:100CD00080E28D0F883010F0D11104C0802F0E9467
:100CE000B30C03C0802F0E94C30C0E94EA0C2FC0DB
:100CF0000C2F0F70C07FC03211F00295007FDD23F2
:100D000081F0D13009F469C0112309F473C0FF20C8
:100D100009F469C0F601858180FFCECF8F7085838D
:100D200062C080914B0282FF38C0112359F000232A
:100D300029F0802F0E94AD0C0E94EA0C80E00E94F6
:100D4000F40405C080E00E9486050111C7CFEB2D99
:100D5000E850FF0B349720F40E94271A0E94970452
:100D6000EE2009F44DC10E949F0C80FD49C1F6019F
:100D700012820E94990C0E94D608C6010E94210886
:100D80000E94990CDF91CF911F910F91FF90EF90EE
:100D9000DF90CF90BF900C94E108112389F0F110FF
:100DA00006C00E94CD0C802B0E94FB05D0CF21E015
:100DB000F212F7CF0E94CD0C802B0E94D30CC7CF2C
:100DC000F11006C00E94E00C802F0E940206BFCFE7
:100DD00031E0F31609F4BBCFF5CF112331F085E0F4
:100DE0008F1508F4B4CF802FDFCF94E09F1508F45F
:100DF000AECFEACFFF2041F3D93349F4FFEF27EE1E
:100E000033E0F15020403040E1F700C000008D2F6A
:100E10000E9486059CCF8C2F86958695837069F0FD
:100E2000813009F094CF8D2F9C2F9370111102C047
:100E300090E080E00E94621A8ACF8D2F9C2F9370E1
:100E4000111102C090E080E00E944C1A80CF8D2FDB
:100E5000112329F00E940B130E94DE1378CF0E9409
:100E60006513FACF8C2F837079F5111170CF4D2F48
:100E7000429546954770440F440F8D2F8F70042E76
:100E800001C0880F0A94EAF72D2F2071D4FF07C004
:100E90002FE030E001C0220F4A95EAF72095C69571
:100EA000C695C370822BC23049F058F4C13019F096
:100EB0000E94B7084CCF0E94B20849CF0E94BC08DC
:100EC00046CF0E94B00843CF8695112311F08C2F96
:100ED0008170882309F43BCF4D2F4295469547708A
:100EE000440F440F8D2F8F70042E01C0880F0A9479
:100EF000EAF72D2F2071D4FF07C02FE030E001C0AA
:100F0000220F4A95EAF72095C695C695C370822BA5
:100F1000C23049F058F4C13019F00E94FD0817CFD3
:100F20000E94F80814CF0E94020911CF0E94C50840
:100F30000ECFCF70112329F08C2F0E94D6088D2F51
:100F400033CF8D2F0E9402068C2F0E94E108FFCE26
:100F5000D23F51F160F4D03FB9F0D13F81F011237D
:100F600009F449C0F110A8CE8C2F8F7121C0D33F56
:100F700011F1D43FA1F780914B0282FF26C08C2F44
:100F80008F71112311F314C0112349F084E08F15E0
:100F900008F4DDCE8C2F8F710E94ED08D8CE95E03D
:100FA0009F1508F4D4CEF6CF8C2F8F711111CDCFB1
:100FB0000E94D608CCCE112329F08C2F8F710E946D
:100FC000CE08C5CE0E94CB08C2CE112349F0CF7106
:100FD0008C2F0E94D60863E08C2F0E94300DB7CE74
:100FE00081E00E944B0DE1E0EF1508F0B0CE82E009
:100FF0000E944B0DACCEF110FFCE8C2F8F71A5CF80
:10100000DF91CF911F910F91FF90EF90DF90CF90E4
:10101000BF9008950F931F93CF93DF93EC016881E6
:1010200079818A810E9493098C010E9407090E949C
:10103000AF08B801CE01DF91CF911F910F910C94B1
:101040000906CF93DF93EC018B819C81892B29F0DA
:101050008881998189238F3F59F4DF91CF91089539
:10106000CE010E940A08CE01DF91CF910C941903A2
:10107000CE010E945E038111F3CF0E94A30C88234E
:1010800061F38A81882349F380914B0282FDE5CF89
:1010900082E0DF91CF910C944B0D90E080E00E94B4
:1010A0004C1A90E080E00E94621A0E94CA0C0E94D2
:1010B000EA0C0E9405150C94DE130E94930C0C940C
:1010C0004D080E94BA0C0C945D0892959F70963062
:1010D00091F058F4925F9F70923058F4803F19F06D
:1010E00030F4883E30F481E008959A5FF4CF843F75
:1010F000D1F380E00895883EB0F3813FD1F7F3CF7C
:10110000FC01808191810E9489090C946508CF932C
:10111000DF9300D000D00F92CDB7DEB70F900F90C5
:101120000F900F900F90DF91CF910895CF93DF93A1
:1011300000D000D000D0CDB7DEB726960FB6F89419
:10114000DEBF0FBECDBFDF91CF91089508950C94FF
:10115000A6080E94A7088093C1010C944D08089529
:101160000C94A9089091C101892B0C94A908909125
:10117000C10189230C94A9089091C10189270C947D
:10118000A9080C94A6080C94C1080E94C308809377
:10119000C0010C944D0880E00C94C50891E001C09A
:1011A000990F8A95EAF7892F0C94C50821E030E061
:1011B00001C0220F8A95EAF78091C001822B0C941E
:1011C000C50821E030E001C0220F8A95EAF720959A
:1011D0008091C00182230C94C50821E030E001C059
:1011E000220F8A95EAF78091C00182270C94C508E6
:1011F0009091C001892B0C94C5089091C00189235E
:101200000C94C5089091C00189270C94C5080895D5
:101210002FE0929F800D1124982F977041E001C01C
:10122000440F9A95EAF786958695869593E0899F6F
:10123000F0011124EE55FE4F90E080E070E05191F6
:10124000DF0111979B01082E02C0369527950A945D
:10125000E2F7217021952527242325272C93019639
:101260008330910561F708952FE0929F800D11243E
:10127000982F977086958695869523E0829FF0013A
:101280001124EE55FE4F50E040E080E0219130E027
:10129000092E02C0369527950A94E2F7217033276C
:1012A000042E01C0220F0A94EAF7822B4F5F5F4F92
:1012B0004330510559F70895CF92DF92FF920F9373
:1012C0001F93CF93DF936C010091C0018091C10106
:1012D000082BC7E0D0E010E0FC2EC8010C2E02C0A5
:1012E000959587950A94E2F780FD0CC02197A0F7A9
:1012F000F12C8F2DDF91CF911F910F91FF90DF90F7
:10130000CF900895B6018C2F0E941510019771F3AC
:10131000F0CFCF93DF93EC010E945C09BE01DF9117
:10132000CF910C9415101F93CF93DF93EB01909105
:10133000A101992331F0CB01DF91CF911F910C9442
:101340008909882379F0CB010E945C09182F682F46
:10135000CE010E940809BE01812FDF91CF911F911C
:101360000C941510CB010E943409182FF4CF1F9351
:10137000CF93DF93C091C20116E08091C3018C131B
:1013800004C0DF91CF911F910895D0E01C9FF00120
:101390001D9FF00D1124EC53FE4F4081518162815D
:1013A0007381848195810E9496082196C770E5CF4C
:1013B0004091F4015091F5016091F6017091F701AF
:1013C0008091F8019091F9010C949608FF920F9387
:1013D0001F93CF93DF938091F901807FD1F48091A7
:1013E000F6018823B1F08091C2011091C301609190
:1013F000F4017091F501A091F701B091F801062F69
:101400000723C0910001D091010196E0F92E181335
:1014100006C0DF91CF911F910F91FF90089590E04A
:10142000109711F00F3F19F401968770F0CFF89ED6
:101430009001F99E300D1124F901EC53FE4F4181CA
:101440004713F2CF40814613EFCF42814111ECCFD9
:10145000438154814A1B5B0B4C175D0728F7809131
:10146000F9018F7080618093F901F901E753FE4F14
:1014700080818F708061808384EF91E00E942108D9
:10148000DF91CF911F910F91FF900C94B709AF920C
:10149000BF92CF92DF92EF92FF920F931F93CF9361
:1014A000DF93CDB7DEB761970FB6F894DEBF0FBEFE
:1014B000CDBF8C0185E0F801DE011D9601900D92F3
:1014C0008A95E1F7F801E28084EFC82E81E0D82EFA
:1014D0006091F7017091F8016115710509F45FC120
:1014E0009091F4012091F501892F82238F3F09F417
:1014F00056C140815181A380B480F090F601F5017E
:10150000E61BF70BBF01E0910001F0910101FF2004
:1015100009F4F6C08091F901382F307F6E177F07EC
:1015200008F0AFC0311179C0FE2C251323C09413ED
:1015300021C0E1101FC08F7080618093F9010E946B
:10154000D809C6010E9421088091F901F80185831C
:101550008F2D61960FB6F894DEBF0FBECDBFDF9121
:10156000CF911F910F91FF90EF90DF90CF90BF90A0
:10157000AF900895AB2829F0842F85238F3F09F081
:1015800027C180E0F82FF170DF2E80FF3CC08091F2
:10159000C2012091C30136E0821315C04D875E87DA
:1015A0008D859E850E948909292F22952F702230D2
:1015B000F0F0243018F59F70F1F0F8019581907FDC
:1015C000D1F4D12C1EC090E0389FF001399FF00D6E
:1015D0001124EC53FE4F6181651306C060816413D2
:1015E00003C062816E110FC001968770D5CF9F70C6
:1015F00011F0882331F3805E883018F3C8010E940F
:101600002108FD2CA5CFEE2009F4A2CF8091F9018D
:1016100081608093F901F12C9BCF251306C09413B0
:1016200004C0F801EE2009F487C0C8010E948008B8
:10163000882319F1EE2009F18091F901803270F0D0
:101640002091F4013091F50138872F831986BB86EC
:10165000AA868C87CE0107960E94210886E0F801B1
:10166000A4EFB1E001900D928A95E1F70E94E6099E
:101670000E94D809FF24F3946BCFC8010E9421086F
:10168000F9CF311113C07A2DB98AA88A6E2D8989B4
:101690000E94870884EF91E00E94210886E0F6010D
:1016A00011928A95E9F70E94D809B5CF25130FC08A
:1016B00094130DC0E1100BC0F8018583C8010E948E
:1016C000210886E0F60111928A95E9F741CFC80119
:1016D0000E948008882389F2EE2079F28091F90136
:1016E000803208F4BBCF2091F4013091F5013A83A8
:1016F00029831B82BD82AC828E83CE010196ACCF42
:101700006E177F0708F03EC0FE2CEE2009F4B5CF1F
:1017100025132AC0941328C08091F90180FD1BC0B5
:10172000982F907FC1F0F8018583903F31F0982F7A
:10173000907F905F8F70892B8583C8010E9421085C
:1017400086E0F801A4EFB1E001900D928A95E1F7EF
:101750000E94D809FDCE86E0F801A4EFB1E0019027
:101760000D928A95E1F7F4CEC8010E94800881119C
:1017700075CF8091F90181608093F901C8010E94C1
:101780002108E6CE7A2DB98AA88A6E2D89890E9411
:10179000870886E0F60111928A95E9F7D9CFEE2005
:1017A00009F46BCFC8010E948008F82E882309F441
:1017B00064CF86E0F801A4EFB1E001900D928A9524
:1017C000E1F784EF91E00E94EF040E94E609C0CFA8
:1017D00081E08E25D7CE1F93CF93DF93CDB7DEB7B1
:1017E0002C970FB6F894DEBF0FBECDBF4F8358873E
:1017F00069877A878B879C87CE0107960E94470A64
:10180000882369F08A859B85892B39F04F8158851B
:10181000842F85238F3F09F071C016E05FC086E0FA
:10182000FE013796DE01119601900D928A95E1F73F
:101830008A859B85892B89F38F81988589238F3FA2
:1018400061F32091C30130E0C901019687709927A7
:101850004091C2014817190671F40E946108109264
:10186000C3011092C20186E0E4EFF1E0DF011D92B6
:101870008A95E9F7D2CF96E0929FD001939FB00D61
:101880001124AC53BE4FFE01319601900D929A95F2
:10189000E1F78093C3010E94B709BFCF819FC001C8
:1018A00011248C539E4F0E94470A8823E9F0E0914F
:1018B000C2011E9FF0011124EC53FE4F4081518163
:1018C00062817381848195810E9496088091C20112
:1018D00090E00196877099278093C2018091C201A0
:1018E0009091C3018913DACF2C960FB6F894DEBF1E
:1018F0000FBECDBFDF91CF911F91089569857A8585
:101900008B859C850E94960888CF682F8091020164
:10191000909103010C94C01A682F8091020190915C
:1019200003010C94C21A80910201909103010C945E
:10193000C41A8091020285958595859508958091B8
:1019400002028770089590910202977081E009F475
:1019500080E0089580910D02089590910D02892BE9
:1019600080930D020895809590910D029823909395
:101970000D02089510920D02089590910C02892B8A
:1019800080930C020895809590910C029823909377
:101990000C02089510920C0208958091030208959C
:1019A00008950C94D00C90914B0292FD08C0909138
:1019B0000302981721F0809303020C94D10C089530
:1019C00080910302882329F01092030280E00C9496
:1019D000D10C0895CF93DF93E0910201F0910301C0
:1019E00080910D028083E0910201F09103018081DA
:1019F00090910C02892B808390910302992381F0AE
:101A0000E0910201F09103018081892B8083809114
:101A10000201909103010E94781A81110E94E00C4A
:101A2000C0910201D091030148E050E06AEF71E0FB
:101A3000CE010E947B23892B69F088E0FE01AAEF8A
:101A4000B1E001900D928A95E1F7CE01DF91CF913F
:101A50000C94331ADF91CF91089508950C942D0DB5
:101A600090914B0292FD10C098E0899F9001112443
:101A7000622B609302020E94D60880910202859533
:101A8000859585950C942E0D0C94D6081092020223
:101A900080E00C942E0D9091020280958923809312
:101AA0000202282F277091F4282F082E000C330BE8
:101AB0009217130659F090914B0292FD07C085953D
:101AC000859585950E94E1080C94460D08959091A6
:101AD0004B0292FB222720F9281769F080FB92F92C
:101AE00090934B0280914A0290914B020E94B20D5A
:101AF00082E00C944B0D089580914B0282FB882765
:101B000080F991E089270C94670D81E00C94670DB2
:101B100080E00C94670D6FEF7FEF90E080E00C9415
:101B2000B42390E080E00E949023893E9E4F11F400
:101B30000C94131580E0089582E090E00C948823C3
:101B400083E090E00C948823CF9384E090E00E949F
:101B50008823C82F82E290E00E948823982F8C2F40
:101B6000CF910895CF93C92F682F84E090E00E9411
:101B700096236C2F82E290E0CF910C949623AB01D8
:101B8000BC018FE090E00C94A823AB01BC0183E181
:101B900090E00C94A82360E070E0CB010C94C50D9C
:101BA00060E070E0CB010E94BF0D0C94CB0D69EE9C
:101BB0007EEF90E080E00E94B42360E082E090E05D
:101BC0000E94962360E083E090E00E9496231092AA
:101BD000C10160E084E090E00E94962360E082E230
:101BE00090E00E94962360E085E090E00E949623BA
:101BF00060E086E090E00E9496236FEF87E090E03F
:101C00000E94962340E050E0BA0188E090E00E94F4
:101C1000A82360E08DE090E00E94962340E050E031
:101C2000BA0188E190E00E94A82360E087E190E09B
:101C30000E94962340E050E0BA018CE190E00E94BF
:101C4000A82370E060E080E290E00E94B42340E0CE
:101C500050E0BA0188E190E00E94A82380E00E9451
:101C60002C150E9459150C94D00D0C94D70D682F8B
:101C70008EE090E00C9496230E946E1B60931C02F1
:101C800070931D0280931E0290931F0260931802AE
:101C90007093190280931A0290931B02089585B7DE
:101CA000806885BF85B7806885BF089508950895C9
:101CB0000C94570E08950C945A0E0E944F0E83EF09
:101CC00090E10E941D1A0E94560E0C94580E81E05D
:101CD00008950C94670E089508950E946B0E0C945D
:101CE0006C0E0E940D110C9496040E94591B0E94C8
:101CF00068150E94E1110E94710E0C945B0E7F9298
:101D00008F929F92AF92BF92CF92DF92EF92FF920B
:101D10000F931F93CF93DF93CDB7DEB72A970FB6FC
:101D2000F894DEBF0FBECDBF0E94F611A82E811120
:101D30000E943C0E5EE0852E52E0952E10E000E001
:101D4000702E802F0E942D116C01F401E190F19012
:101D50004F01E816F90609F453C08091200281FD75
:101D60000E943611C7018C259D25B12CEE24E394E9
:101D7000F12C9C012E213F21232BE1F10E94690EC1
:101D80008823A9F0BE827F82CE20DF2081E0CD288B
:101D900009F480E088870E94621B8160782F9A870F
:101DA00089874E815F8168858A850E94B104000F12
:101DB000111FF801E25FFD4F80819181E826F9262D
:101DC000F182E08281E0A11001C080E02A960FB686
:101DD000F894DEBF0FBECDBFDF91CF911F910F9161
:101DE000FF90EF90DF90CF90BF90AF909F908F903B
:101DF0007F900895B394EE0CFF1CFFE0BF12B9CFA3
:101E00000F5F1F4F0530110509F09ACF8FEF8983BF
:101E10008A831B820E94621B8160782F9D838C8342
:101E200049815A816B818D810E94B104CBCF0E9480
:101E30007F0E0E94F9130C94A604CF93DF930E94A7
:101E40001910EC01811521E5920708F042C08115B7
:101E500030E5930708F09DC0883E910530F5803E3F
:101E6000910508F092C0883A910588F4853A910569
:101E700008F084C08130910509F487C0009709F407
:101E800084C0049708F081C0D0E0C0E07EC08F3BE2
:101E90009105D0F7C85AD0E0CC0FDD1FC65BDE4FEE
:101EA0000990D881C02DD46470C08115904250F43F
:101EB000C11581E0D80708F068C0C03FD10520F304
:101EC000D06563C0C11590E4D907F0F2DF70D06A25
:101ED0005CC0811525E5920700F5811534E593076F
:101EE00008F08BC0811543E5940708F073C0C11555
:101EF00082E5D80708F469C0CE018370992721E0F4
:101F000030E002C0220F331F8A95E2F7C695C695CE
:101F100080E2C89FE001112454C0C11599E5D9079A
:101F2000A8F4C11528E5D20708F06CC0C11536E544
:101F3000D30708F0A9CF8C2F0E94B010C82FD0E093
:101F4000DC2FCC27CC27DF71D0621FC0C1154AE53A
:101F5000D40708F45CC0CE0190568115904208F079
:101F600093CF8D2F8F710E94B01090E0982F88270B
:101F700088279F719C012C2BE901E6CFC55AD0E040
:101F8000C858DE4FC881D0E0D064CE01DF91CF9138
:101F90000895E4E096958795EA95E1F783702C2FF4
:101FA00026952695237040E2249F90011124382B1A
:101FB0008C2F8370C1E0D0E002C0CC0FDD1F8A956A
:101FC000E2F7C22BD32BDC68E0CFDC2FCC27C16F2C
:101FD000D06ADBCF8370992721E030E002C0220F66
:101FE000331F8A95E2F7C695C69590E2C99FE00136
:101FF0001124C22BD32BDA68C8CFD82FCC27C46FBB
:10200000D06AC3CFDC2FCC27C06FD06ABECF8C2F55
:102010008F700E94B01034E0D695C7953A95E1F7DD
:10202000CF709C2FEC01D069B0CF0E946A180C943D
:102030001D0F82389105B1F1B0F48133910509F497
:1020400075C048F48932910509F469C08A32910556
:1020500009F473C008958533910509F459C0893393
:10206000910501F10895833E9105A9F138F4803E70
:102070009105F9F0823E910549F10895863E91055A
:10208000A9F1873E9105C9F1843E910519F520918A
:102090004B0221FF1FC080914A0284FD14C087EECD
:1020A00090E0089520914A022370A1F080EE90E024
:1020B000089520914A0220FD47C030914B0230FF25
:1020C00009C024FF44C090E080E004C020914A028F
:1020D00022FDF7CF089520914A0222FD3BC03091A6
:1020E0004B0230FDE3CF24FFF5CFEDCF20914A0224
:1020F00023FFF0CF24FDE7CFD2CF20914A0223FD6A
:102100002CC030914B0231FFEECF84EE90E0089569
:1021100020914A0225FFDECF89E290E008952091C8
:102120004A0225FFD7CF85E390E0089520914A0227
:1021300026FFD0CF8AE290E0089520914A0226FF40
:10214000C9CF81E390E0089589E390E0089583EE9C
:1021500090E0089582EE90E0089586EE90E0089574
:1021600090914A0292FF06C0282F28712830F9F476
:10217000877F846093FF06C0282F28712831F1F4EF
:10218000877E846120914B0220FF06C0382F387172
:102190003830D9F4877F816021FF06C0282F28714D
:1021A0002831D1F4877E816194FD877E0895282FA0
:1021B00024712430F9F68B7F8860DCCF282F2471BE
:1021C000243101F78B7E8861DDCF382F31713130BA
:1021D00019F78E7F8860E0CF282F2171213121F7F8
:1021E0008E7E8861E1CF80E008950C948B0D0E9473
:1021F000F6118FE39CE90197F1F700C000000E94FF
:10220000F61180E00E942D1180FF04C00E94F5109D
:102210000C94AD1B08950C94F7100E94910D811140
:1022200002C00E94350E0E949C0D809320020E94E5
:10223000A40D90934B0280934A020E940B110E94BE
:10224000A00D0E94B0088091C0010C94C3080895AD
:102250000C94271108950C942A11E82FF0E0EE0F4A
:10226000FF1FEA5AFD4F808191810895089580EA09
:102270008A95F1F7089500C008950C943711F894E9
:10228000E82FE295EF70F0E031A1282F2F7081E068
:1022900090E001C0880F2A95EAF7982F9095932334
:1022A00091A392A1892B82A378940895CF93DF9371
:1022B000CAE8D1E089918F3F11F00E943F1181E07F
:1022C000CF38D807B9F7CBE7D1E089918F3F11F02C
:1022D0000E943F1181E0CA38D807B9F7DF91CF914A
:1022E0000895AF92BF92DF92EF92FF920F931F93E8
:1022F000CF93DF938C01D62EC62FD0E0CE01865728
:102300009E4F7C01FC0120812F3F09F44DC0F894C1
:10231000E22FE295EF70F0E031A12F7081E090E0C4
:1023200001C0880F2A95EAF7932F982B91A392A1C9
:102330008095892382A378940E943B11EBE7F1E01A
:102340004AE851E021E030E0B12CA12C61916F3FCF
:10235000A9F1A62FA295AF70B0E090968C9190E075
:102360006F7002C0959587956A95E2F780FD26C04B
:10237000C901A82AB92A220F331F4E175F0731F768
:10238000F70180818F3F11F00E943F1161E0A1149D
:10239000B10409F460E08D2D0E943D11CC0FDD1FCA
:1023A000C00FD11FB982A882DF91CF911F910F91E9
:1023B000FF90EF90DF90BF90AF90089590E080E0A5
:1023C000D8CF0E9456118AE0E6E5F2E0DF01982FAF
:1023D0001D929A95E9F7ECE4F2E0DF011D928A95EF
:1023E000E9F785E00E9441120C944A03FF920F9393
:1023F0001F93CF93DF93CDB7DEB72A970FB6F8942C
:10240000DEBF0FBECDBF8E010F5F1F4F8AE0F80108
:1024100011928A95E9F7F12C6F2DC8010E94711174
:10242000F394F5E0FF12F8CF4AE050E0B8018CE4F5
:1024300092E00E947B23FF24F394009709F4F12C8F
:10244000892B41F08AE0F801ACE4B2E001900D92F2
:102450008A95E1F72F2D45E066E572E08CE492E085
:102460000E9442120E944C038F2D2A960FB6F894B8
:10247000DEBF0FBECDBFDF91CF911F910F91FF90B7
:1024800008950895FF920F931F93CF93DF93F82E33
:10249000092F162FD72FC42F222349F081E08093D4
:1024A00023020E94621B909322028093210280915A
:1024B00023028823A1F080912102909122020E94A0
:1024C0007A1B059760F0EF2DF02FA12FBD2F90E024
:1024D00080E0D0E08C179D0744F010922302DF913A
:1024E000CF911F910F91FF900895219131912D93DC
:1024F0003D930196EFCF0E94951D0E94750E0C949E
:10250000A11D0E94A51D0E94170F0C94BF1D0E94C3
:10251000021B0E947C1D0E945D0E0E947B120E9485
:1025200081120E946D0EFBCF80912A0280FF0DC0A8
:102530006091090170E0660F771F6038710570F5D2
:102540006115710569F1862F089581FF07C06091BB
:10255000090184E0689FB0011124EFCF6091090167
:1025600082FD0AC0809129028823A9F020910801E8
:1025700060910901821710F088E0ECCF869FC001BE
:10258000112433E0880F991F3A95E1F7622F70E02C
:102590000E944623D2CF68E070E0D5CF8FE7089540
:1025A00081E0089580912A0280FF0CC060910501AE
:1025B00070E075956795759567956115710549F199
:1025C000862F089581FF06C06091050170E0759522
:1025D0006795F3CF6091050182FD0BC090912802B1
:1025E0009923A1F06091040180910501961738F0BC
:1025F000682F70E06038710500F38FE70895899FB8
:10260000C001112470E00E944623F4CF61E070E025
:10261000D7CF81E00895803F31F40E9494128195D4
:1026200080932E020895813F19F40E949412F8CFEE
:10263000823F31F40E949412819580932D02089577
:10264000833F19F40E949412F8CF893F29F40E9425
:10265000D21280932F0208958A3F21F40E94D21251
:102660008195F7CF8B3F31F40E94D21281958093F0
:10267000300208958C3F19F40E94D212F8CF9CE0EA
:10268000980F953070F4845F990B21E030E001C021
:10269000220F8A95EAF780912C02822B80932C02DC
:1026A00008958D3F31F480912A02816080932A023F
:1026B00008958E3F21F480912A028260F7CF8F3FE8
:1026C000B9F780912A028460F1CF40912D02803FBA
:1026D00059F480912E0287FF0DC010922E024111F5
:1026E0000BC01092290208C0813F81F480912E0214
:1026F00018169CF3442381F080912F0290913002B0
:10270000892B09F05AC0109228020895823F49F49B
:1027100047FFF0CF10922D0280912E028111ECCF55
:10272000E0CF833F19F41416ACF3E4CF90912F025D
:10273000893F29F41916F4F610922F02DBCF8A3F55
:1027400019F497FFD7CFF8CF909130028B3F29F43F
:1027500097FFD0CF10923002CDCF8C3F19F41916CD
:10276000CCF3C8CF9CE0980F953090F4845F990B20
:1027700021E030E0B90102C0660F771F8A95E2F7C9
:10278000CB01809590912C02892380932C02B2CFAB
:102790008D3F31F480912A028E7F80932A02AACF46
:1027A0008E3F21F480912A028D7FF7CF8F3F09F071
:1027B000A1CF80912A028B7FF0CF08950E94621BE7
:1027C0009C0190912D0280912E02982B21F0309344
:1027D00027022093260290912F0280913002982B9D
:1027E00021F030932502209324028BE292E00C9496
:1027F0003E1AEF92FF920F931F93CF93DF9300D077
:1028000000D000D0CDB7DEB786E0EBE2F2E0DE012B
:10281000119601900D928A95E1F7E0902D02F090CB
:102820002E0200912F021091300210922D02109270
:102830002E0210922F02109230028E2D8F2991F0CD
:1028400080912602909127020E947A1BAC01909100
:102850002902992309F43FC080910A0184171506C3
:1028600008F447C0802F812B91F080912402909131
:1028700025020E947A1BAC0190912802992309F449
:1028800077C0809106018417150608F47FC08091F7
:102890002D0290912E02892B90912F02892B9091DD
:1028A0003002892B11F00E94DE1386E0FE01319682
:1028B000ABE2B2E001900D928A95E1F726960FB651
:1028C000F894DEBF0FBECDBFDF91CF911F910F9166
:1028D000FF90EF90089520910B018AE0289F9001CE
:1028E00011242417350708F0BDCF9F5F909329026C
:1028F00002C09F3FD1F7EE2059F00E9494129FEF43
:102900001E140CF491E0899F802D112480932D02D8
:10291000FF2059F00E9494129FEF1F140CF491E0D5
:10292000899F802D112480932E0230912D02332314
:1029300009F498CF20912E02222309F493CF45EB7E
:102940003403C0011124992359F090932D0245EBD3
:10295000240390011124332339F030932E0282CFC7
:1029600081E080932D02F3CF81E080932E027ACF15
:10297000209107018AE0289F900111242417350730
:1029800008F085CF9F5F9093280202C09F3FD1F748
:10299000002359F00E94D2129FEF10160CF491E020
:1029A000899F802D112480932F02112359F00E94BA
:1029B000D2129FEF11160CF491E0899F802D112403
:1029C0008093300230912F02332309F460CF20919D
:1029D0003002222309F45BCF45EB3403C0011124FC
:1029E000992359F090932F0245EB24039001112471
:1029F000332339F0309330024ACF81E080932F02A5
:102A0000F3CF81E08093300242CF86E0EBE2F2E048
:102A1000DF011D928A95E9F710922902109228028F
:102A200010922A02089583E290E00E948823823265
:102A300089F484E290E00E948823823059F485E290
:102A400090E00E94882391E0813009F090E0892F86
:102A50008170089580E0FCCFCF93C82F6FEF811174
:102A600062E283E290E00E9496236FEFC11162E080
:102A700084E290E00E9496236FEFC11161E085E24D
:102A800090E0CF910C949623089586E290E00E9406
:102A90008823682F70E090E080E008950895CF9338
:102AA000C62F0E944E156C2F86E290E0CF910C94B9
:102AB000962380E00E942C1560E070E0CB010E941C
:102AC0004F150E94E2170E94CE1881E00C942C153D
:102AD0000E9444150E9445150E944E150E94131530
:102AE000811102C00C9459150895CF93FB01C28146
:102AF000CC2309F19C0122513F452031310520F5BD
:102B000082510E94DE18C0E08C2FCF91089581E0A1
:102B10000E94D60843E062E081E00E944103F3CFC7
:102B200081E00E94E10843E062E081E00E9441030D
:102B3000EBCF82E0F6CF8031FFE59F0789F381314B
:102B40009F45B9F3C1E0E0CF8031EFE59E07F9F290
:102B500081319F45C9F682E0DBCF2FEFFC01208356
:102B60000895EF92FF920F931F93CF93DF93EC01A1
:102B7000062FE881E150E33108F05EC0F0E0E85252
:102B8000FC4D0C945A23198289E08A83602FCE0170
:102B9000DF91CF911F910F91FF90EF900C94551CF6
:102BA0008981823069F0833071F08130D9F40E94DC
:102BB0006E1B0E9460236A837B838C839D83E6CF98
:102BC0000E944515F6CF7E0110E0812F0E942D1145
:102BD000F701928383831F5FF2E0EF0EF11C153043
:102BE000A1F7D4CF602FCE010E94AD15CFCF898140
:102BF0008230C1F76A817B818C819D810E94602334
:102C00000E944F15C3CF4B816A8189810E94B417FE
:102C10009827892798279D838C83B8CF2C813D8165
:102C20003227232732274B816A8189810E94CD1761
:102C3000ADCF0E94E217AACF8FEF8883A7CF0E9463
:102C400077188983A3CF0E94791898278927982716
:102C50009A8389839BCF6B8170E089819A81AE01D1
:102C60004C5F5F4F9827892798270E947C188ECF4A
:102C70006B8170E089819A81AE014C5F5F4F98272C
:102C8000892798270E94A31881CF0E94CE187ECF53
:102C90000E94A217D6CF6B8170E089819A81AE0124
:102CA0004C5F5F4F9827892798270E941A186ECF8C
:102CB0006B8170E089819A81AE014C5F5F4F9827EC
:102CC000892798270E94401861CFCF93DF93EC01AA
:102CD000FB018281882309F433C1C330FDE5DF079E
:102CE000C0F5CA3F9CE5D90730F49E0122503C450F
:102CF00024313105B0F50E94A40D90934B028093CE
:102D00004A02C1318CE5D80709F4EEC008F069C069
:102D1000C930ECE5DE0709F4D5C0C8F5C5308CE54F
:102D2000D80709F4C7C000F5C330ECE5DE0709F4A5
:102D3000B9C008F0BBC0C230DC4509F4ADC0809119
:102D40004A0290914B020E94B20D0E94610880E0FD
:102D500008C0C136EDE5DE0771F2C53AFDE5DF07D3
:102D600051F2DF91CF91089580914A028062C7307D
:102D70009CE5D90709F493C080914A028061C8306C
:102D8000DC4508F48CC080914A02806488C0809140
:102D90004A028B7FCD30FCE5DF0709F480C098F450
:102DA00080914A028E7FCB309CE5D90709F477C029
:102DB00080914A028C60CC30DC4508F470C0809170
:102DC0004A028D7F6CC080914A028F7ECF30FCE535
:102DD000DF0709F464C008F47BC080914A028F7D4C
:102DE0005EC0CD3F9CE5D90709F47AC050F5C531E6
:102DF000FCE5DF0709F486C098F480914A02837FDE
:102E0000C3319CE5D90709F44AC008F471C00E9497
:102E1000610890914A02892F97FB87F980583FC03B
:102E2000CB3FFCE5DF0709F449C008F055C08091AD
:102E30004B028160CA3FDC4509F081CF80934B0291
:102E40007ECFC130EDE5DE0709F468C0A8F4CF3FBE
:102E50008CE5D80709F452C080914B028360C115FC
:102E6000DD4560F380914B02982F909591708E7F95
:102E7000892B90FB81F9E2CFC136EDE5DE0709F43D
:102E800051C0C53AFDE5DF0709F453C0C230DD4546
:102E900009F055CF80E043C080914A028160809361
:102EA0004A024DCF80914A028260F9CF80914A0256
:102EB0008460F5CF80914A028860F1CF80914B0207
:102EC0008260BCCF0E94610880914A028068E7CF8F
:102ED00080914A02877FE3CF80914B028E7FAECFF5
:102EE00080914B028D7FAACF80914A028F7BD7CFF2
:102EF0000E94610880914A028F77D1CF80914B0266
:102F00008C7F9CCF80914A0282FB992790F921E027
:102F1000922790FB82F990FB83F9C1CF81E00E9458
:102F2000370E0DCF90914A02892F8F7E94FF8061DA
:102F3000B6CF90914A02892F8E7F90FF8160AFCFEC
:102F400081E00FCF84E0089550E0440F551F9EE1CB
:102F5000699F400D511D112496E9899F400D511D17
:102F60001124CA01879608950F931F93CF93DF937F
:102F70000E94A4178C010E948823C82FD0E0DC2F68
:102F8000CC27C80101960E9488239E01282BC901E5
:102F9000DF91CF911F910F9108950F931F93CF93BE
:102FA000DF93122F032F0E94A417EC01602F0E94C1
:102FB0009623612FCE010196DF91CF911F910F9142
:102FC0000C949623AF92BF92CF92DF92EF92FF9232
:102FD0001F93CF93DF938CEAC82E80E0D82ED0E0E9
:102FE0007601C0E014C0F50125913491412F6C2F7A
:102FF0008D2F0E94CD1782E0A80EB11C1F5F1F30DD
:1030000091F78EE1E80EF11CCF5FC53019F0570142
:1030100010E0E9CFDF5F86E9C80ED11CD43001F79C
:10302000DF91CF911F91FF90EF90DF90CF90BF90F5
:10303000AF900895EF92FF920F931F93CF93DF937A
:10304000EC018A017C01E60EF71ECE018796CE15B3
:10305000DF0539F4DF91CF911F910F91FF90EF9031
:103060000895C83522E0D20740F40E948823F80171
:1030700080830F5F1F4F2196E8CFF8011082F9CFB0
:10308000CF92DF92EF92FF920F931F93CF93DF9334
:103090007C016A018C01060F171FEC01CE01879697
:1030A000C017D10749F4DF91CF911F910F91FF9085
:1030B000EF90DF90CF900895C83522E0D20740F41A
:1030C000FE01EE19FF09EC0DFD1D60810E949623A3
:1030D0002196E4CF462F843038F4753028F46F30D1
:1030E00018F4672F0C94B41790E080E0089580E105
:1030F000089581E891E00895EF92FF920F931F9356
:10310000CF93DF93EC018A017C01E60EF71ECE011E
:1031100081589D4FCE15DF0539F4DF91CF911F9176
:103120000F91FF90EF900895C13821E0D20740F44D
:103130000E948823F80180830F5F1F4F2196E7CFFD
:10314000F8011082F9CFCF92DF92EF92FF920F93A6
:103150001F93CF93DF937C016A018C01060F171F29
:10316000EC01CE0181589D4FC017D10749F4DF9182
:10317000CF911F910F91FF90EF90DF90CF90089526
:10318000C13821E0D20740F4FE01EE19FF09EC0D31
:10319000FD1D60810E9496232196E3CFCF93DF939C
:1031A000CFE7D2E060E0CE010E9496232196C115C0
:1031B00084E0D807B9F7DF91CF910895DF92EF92BD
:1031C000FF920F931F93CF93DF9300D000D0CDB722
:1031D000DEB7F82E8FE08F1540F08FEF93E00E945E
:1031E00088230FE712E08823C1F00F900F900F9013
:1031F0000F90DF91CF911F910F91FF90EF90DF9093
:103200000895011584E0180781F3C8010E948823FE
:10321000811101C0FA940F5F1F4FF110F2CF198294
:103220001A821B821C82DD24D39478018FEFE81A66
:10323000F80AC8010E94882389831A828823A9F288
:103240009FEF980F933078F48A83D9820E5F1F4FD7
:10325000C7010E9488238B83882339F2CE0101960F
:103260000E948C04E2CF8701F9CFCF93DF93EB016B
:1032700086319C4511F50E94AA0C9A81992399F0F8
:103280008A7A91E009F490E090933102811109C0AB
:1032900089E20E94850C0E94EA0C80E0DF91CF91C8
:1032A000089585E3F6CF80913102811104C089E24F
:1032B0000E948C0CF0CF85E3FBCF81E0EFCF0F9322
:1032C0001F93CF93DF93C42FD22FFC0182818823D9
:1032D000C9F0409334020E94621B909333028093A2
:1032E000320280E28C0F883008F050C0C77081E055
:1032F00001C0880FCA95EAF7DF91CF911F910F9116
:103300000C94FB0510913402141335C080913202E5
:10331000909133020E947A1B883C910560F5C0E2CF
:10332000CD0F1D17B9F080E2810F883040F417707F
:1033300081E001C0880F1A95EAF70E940206C830A2
:1033400048F481E09D2F977001C0880F9A95EAF7A5
:103350000E94FB05802F0E94F305C830B8F4D77097
:1033600081E001C0880FDA95EAF7DF91CF911F91D4
:103370000F910C94020680E28C0F883038F4C770ED
:1033800081E001C0880FCA95EAF7EFCFDF91CF91B6
:103390001F910F9108950F939C01CB01233F4CE5A2
:1033A000340759F1A8F4283DFCE53F0701F1293D18
:1033B0004CE53407D1F1273D3C4591F406E221EE7E
:1033C00041EE67ED7CE50E945F1980E00F91089562
:1033D000253FFCE53F07E9F0B0F0263F3C45F9F01A
:1033E000FC018281882339F110923402EFCF07E289
:1033F00025EE45EE68ED7CE5E6CF06E221EE40EEF7
:1034000063EF7CE5E0CF07E225EE44EE64EF7CE578
:10341000DACF06E221EE42EE65EF7CE5D4CF07E29B
:1034200025EE46EE66EF7CE5CECF08E221E045EEE4
:1034300069ED7CE5C8CF81E0C9CF90939F0180936F
:103440009E01089590933A02809339020895E09185
:103450003902F0913A02309721F00190F081E02D8D
:10346000099480E00895E0913902F0913A02309792
:1034700021F00280F381E02D09940895E091390252
:10348000F0913A02309739F022E0DC012C9304806D
:10349000F581E02D0994089520913702309138028A
:1034A0002817390771F09093380280933702E09122
:1034B0003902F0913A02309721F00680F781E02D31
:1034C0000994089520913502309136022817390762
:1034D00071F09093360280933502E0913902F091B9
:1034E0003A02309721F00084F185E02D0994089587
:1034F0009C012E5F3F4FAC01485F5F4F80E0241777
:10350000350709F40895F90191919F019923B9F3C1
:103510008F5FF5CF662349F0FC0132960896219122
:10352000261729F0E817F907D1F780E0089581E020
:1035300008959C01FC0132969FEF80E0419146176F
:1035400051F09F3F19F4411101C0982F8F5F8630D1
:10355000A9F79F3F09F40895290F311D97FD3A956A
:10356000F90162830895FC01329608962191261391
:1035700003C0DF0111971C92E817F907B9F7089506
:103580000C94991A0C94B31A029626E0FC0111923D
:103590002A95E9F7089508950C94CB1A811105C076
:1035A00081E080933B020C94CC1A82E0FACF83E056
:1035B00080933B020C94CC1A0C94CE1A81E0809339
:1035C0003B020C94CC1A0C94DE1A089508950C94C6
:1035D000E61A089508950C94E51ACF930E94E91A0B
:1035E0000E94F6110E94EA1AC0E08C2F0E942D1151
:1035F000892B31F4CF5FC530C1F780E0CF910895BA
:1036000081E0FCCF08951F921FB61F9211248F9363
:103610009F93AF93BF9380913C02811113C080911F
:10362000600290916102A0916202B09163024196A2
:10363000A11DB11D8093600290936102A09362026C
:10364000B0936302BF91AF919F918F911F901FBE66
:103650001F90189580916802843031F10E94B60362
:1036600010923C0288E190E020E40FB6F894A8950F
:10367000809360000FBE2093600083B7817F8460D9
:1036800083BF83B7816083BF7894889583B78E7F2B
:1036900083BF0FB6F894A8958091600088618093ED
:1036A0006000109260000FBE08950E9461080C94A3
:1036B000BA0382E084BD93E095BD9AEF97BD8093F5
:1036C0006E0008952FB7F894809160029091610286
:1036D000A0916202B09163022FBF08952FB7F894B2
:1036E0006091600270916102809162029091630228
:1036F0002FBF08959C014FB7F8948091600290917C
:103700006102A0916202B09163024FBF821B930BD2
:10371000089578941F921FB61F9211248F939F9340
:10372000AF93BF938091600290916102A091620279
:10373000B09163020196A11DB11D80936002909328
:103740006102A0936202B0936302BF91AF919F9117
:103750008F911F901FBE1F90189581E08093E0000D
:1037600080E28093D8001092C9008FE19EE4019717
:10377000F1F700C0000087E090EBDC01809371025C
:1037800090937202A0937302B093740288E19CE05C
:103790000FB6F894A895809360000FBE90936000D8
:1037A000FFCF80914802089508959C0184E08093A2
:1037B000E9009FEF8091E800915085FD06C085EDFE
:1037C0008A95F1F700009111F5CF8091E80085FF0F
:1037D0000CC050E040E066E070E0C9010E94661E47
:1037E0008091E8008E778093E8000895CF93DF936F
:1037F000EC0181E08093E9008FEF9091E800815027
:1038000095FD06C095ED9A95F1F700008111F5CF71
:103810008091E80085FF14C050E040E068E070E06F
:10382000CE010E94661E8091E8008E778093E800AA
:1038300088E0FE01A0E4B2E001900D928A95E1F7E4
:10384000DF91CF91089580933D0270933F02609382
:103850003E02809168028430F9F48093E9008FEF92
:103860009091E800815095FD06C095ED9A95F1F78D
:1038700000008111F5CF8091E80085FF0DC050E078
:1038800040E063E070E08DE392E00E94661E80916C
:10389000E8008E778093E8000895BC0184E00C94E2
:1038A000231CBC0183E00C94231CCF93FC016032E9
:1038B00021F580916802843001F5C091E900CF7054
:1038C0002091EC00922F917020FD90E8C92B82E0AE
:1038D0008093E9008091E80080FF0CC050E040E058
:1038E00060E270E0CF010E94661E8091E8008E7752
:1038F0008093E800CF70C093E900CF910895809144
:103900006702811109C00E9445200E94A220809177
:10391000E20084608093E2000895109267020895A7
:103920000C94DE1A6091640281E0611101C080E0B4
:103930000C94D71A9091680281E0943009F080E0ED
:10394000609164020C94DC1A42E061EC81E00E9418
:10395000C11F42E261EC84E00E94C11F42E261ECBF
:1039600082E00E94C11F42E260EC83E00E94C11F1E
:103970009091680281E0943009F080E060916402E7
:103980000C94CE1A80916A02833009F462C030F43C
:103990008130D9F1823009F49EC008958A3009F44B
:1039A0008AC08B3009F470C0893009F051C0809111
:1039B0006902813209F04CC080916D0290916E02D3
:1039C000009719F0029709F043C08091E800877FC3
:1039D0008093E8008091E80082FF36C09091F30068
:1039E0008091F200029731F48091F100813011F062
:1039F000863021F48091F100809348028091E800A4
:103A00008B778093E8000C94F51F80916902813ACE
:103A1000F9F48091E800877F8093E80080916D023F
:103A200090916E02892B61F468E080E492E070E08E
:103A30000E94041F8091E8008B778093E80008952E
:103A400060E090E080E0F3CF809168028111C2CF06
:103A5000089580916902813AD9F780916D02909121
:103A60006E02892BA9F78091E800877F8093E80098
:103A70008091E80080FFFCCF809118018093F100D5
:103A80008091E8008E77BDCF80916902813201F785
:103A900080916D0290916E02892BD1F68091E800A1
:103AA000877F8093E8000E94F51F80916B028093CE
:103AB00018010C94610880916902813249F6809165
:103AC000E800877F8093E8000E94F51F80916C02D8
:103AD00080934902089580916902813A09F0B8CF34
:103AE0008091E800877F8093E8008091E80080FF64
:103AF000FCCF80914902C2CF84B7877F84BF0FB6C5
:103B0000F894A8958091600088618093600010927D
:103B100060000FBE80E890E00FB6F89480936100DB
:103B2000909361000FBE0C94E31A0E9445200E94FE
:103B3000A220E2EEF0E080818460808378940C948F
:103B40002B238CE091E00C94221A8091680285303E
:103B5000A9F480916802853011F00C94551B0E94E5
:103B60002A1B809166028823A1F30E94ED1A882304
:103B700081F30E94501E0E946108EBCF0895CF93FD
:103B8000DF93CDB7DEB7A0970FB6F894DEBF0FBEB8
:103B9000CDBF80916802843009F583E08093E9000D
:103BA0008091E80082FF1AC08091E80090E085FFD4
:103BB00009C050E040E060E270E0CE0101960E9452
:103BC000B51E91E08091E8008B778093E8009923FF
:103BD00029F060E2CE0101960E94B115A0960FB6C1
:103BE000F894DEBF0FBECDBFDF91CF9108950C9446
:103BF000F91D292F33272330310521F168F42130B5
:103C0000310509F443C02230310509F444C090E085
:103C100080E030E020E026C02132310551F122322F
:103C20003105A9F76330710590F7FB01EE0FFF1F17
:103C3000EE56FE4F2081318161577E4FFB0180811E
:103C400090E010C099278130910581F0009729F00C
:103C50000297E9F6E4EBF3E002C0E2EEF3E08491D0
:103C600090E09F01FA01318320830895EEECF3E0A8
:103C7000F6CF6330710558F6660F771FFB01E856E3
:103C8000FE4F2081318189E090E0ECCF82E190E02D
:103C900021E434E0E7CF8BE590E026EE33E0E2CF9D
:103CA00080E189BD82E189BD09B400FEFDCF80912C
:103CB000D8008F7D8093D8008091E000826080934F
:103CC000E0008091E00081FDFCCF0895AF92BF92AB
:103CD000CF92DF92FF920F931F93CF93DF936C01EC
:103CE000EB018A010E941420F82E811123C00115D6
:103CF000110539F0F80180819181C81BD90BC80EDC
:103D0000D91EB12CA12C2097A9F08091E80085FD47
:103D100022C08091E8008E778093E800011511059C
:103D2000A1F0F80180819181A80EB91EB182A08214
:103D300085E0F82E8F2DDF91CF911F910F91FF908D
:103D4000DF90CF90BF90AF9008950E9414208823F9
:103D5000D1F2F82EEFCFF60181916F018093F1003F
:103D60002197FFEFAF1ABF0ACECFAF92BF92CF928B
:103D7000DF92FF920F931F93CF93DF936C01EB01C0
:103D80008A010E941420F82E811123C0011511050B
:103D900039F0F80180819181C81BD90BC80ED91E5A
:103DA000B12CA12C2097A9F08091E80085FD22C0BC
:103DB0008091E8008B778093E80001151105A1F050
:103DC000F80180819181A80EB91EB182A08285E0A0
:103DD000F82E8F2DDF91CF911F910F91FF90DF90E3
:103DE000CF90BF90AF9008950E9414208823D1F205
:103DF000F82EEFCF8091F100F60181936F012197AA
:103E0000FFEFAF1ABF0ACECFFC0180916F029091F5
:103E1000700286179707A0F06115710529F490913B
:103E2000E8009E779093E80090E06115710551F4E9
:103E3000911108C08091E80082FF34C080E00895AD
:103E4000BC01F2CF809168028823C1F18530C1F1B5
:103E50008091E80083FD30C08091E80082FDEACFC8
:103E60008091E80080FFE1CF8091F3002091F20083
:103E7000382F6115710519F02830310558F091E09F
:103E80002830310509F090E02091E8002E7720934A
:103E9000E800CBCF81918093F100615071092F5FD1
:103EA0003F4FE7CF80916802882341F0853041F091
:103EB0008091E80083FFBECF81E0089582E00895FD
:103EC00083E00895FC0180916F0290917002861743
:103ED0009707A0F06115710529F48091E8008E77AD
:103EE0008093E80090E06115710551F4911108C0CC
:103EF0008091E80082FF35C080E00895BC01F2CFD8
:103F0000809168028823C9F18530C9F18091E80069
:103F100083FD31C08091E80082FDEACF8091E80006
:103F200080FFE1CF8091F3002091F200382F6115DE
:103F3000710519F02830310558F091E0283031052D
:103F400009F090E08091E8008E778093E800CBCF75
:103F500084918093F1003196615071092F5F3F4F3A
:103F6000E6CF80916802882341F0853041F080914E
:103F7000E80083FFBDCF81E0089582E0089583E0EB
:103F80000895982F973028F08F708093E90081E092
:103F900008959093E900242F762F50E0981731F080
:103FA0007091EC002091ED005091F00021FD02C0D5
:103FB0009F5FE8CF3091EB003E7F3093EB00309174
:103FC000ED003D7F3093ED003091EB003160309398
:103FD000EB007093EC002093ED005093F0002091E3
:103FE000EE0027FDE5CF80E008958091690287FF0C
:103FF00013C08091E80082FF06C08091E8008B77B3
:104000008093E80004C0809168028111F2CF089586
:10401000809168028823D9F38091E80080FFF8CF6F
:104020008091E8008E77ECCF2091E4003091E5009C
:1040300095E6A9012091EC00822F817020FF06C037
:104040008091E80080FF06C080E008952091E8009C
:1040500022FD1AC080916802882389F0853089F09A
:104060008091EB0085FD0FC02091E4003091E500C8
:1040700042175307F9F29150E1F684E0089582E087
:10408000089583E0089581E008950E94B3200E947E
:10409000BB20E0EEF0E0808181608083E8EDF0E01D
:1040A00080818F77808319BCA7EDB0E08C918E7FE3
:1040B0008C9380818F7E80831092670208950F9386
:1040C0001F93CF93DF930E94B3200E94BB20C8EDC3
:1040D000D0E088818F778883888180688883888111
:1040E0008F7D888319BC109268021092640210922E
:1040F00066021092650200EE10E0F80180818B7F6D
:10410000808388818160888342E060E080E00E9453
:10411000C11FE1EEF0E080818E7F8083E2EEF0E06F
:10412000808181608083808188608083F8018081C4
:104130008E7F8083888180618883DF91CF911F91FA
:104140000F910895E8EDF0E080818F7E8083E7EDA8
:10415000F0E080818160808384E082BF81E0809391
:1041600067020C945F20E8EDF0E080818E7F808311
:104170001092E20008951092DA001092E100089582
:104180001F920F920FB60F9211242F933F934F93CC
:104190005F936F937F938F939F93AF93BF93EF93AF
:1041A000FF938091E10082FF0BC08091E20082FFCB
:1041B00007C08091E1008B7F8093E1000E942A2359
:1041C0008091DA0080FF19C08091D80080FF15C06F
:1041D0008091DA008E7F8093DA008091D90080FF91
:1041E00096C080E189BD82E189BD09B400FEFDCFA2
:1041F00081E0809368020E947F1C8091E10080FF33
:1042000019C08091E20080FF15C08091E2008E7F8E
:104210008093E2008091E20080618093E2008091CF
:10422000D80080628093D80019BC85E08093680232
:104230000E94921C8091E10084FF2BC08091E200DB
:1042400084FF27C080E189BD82E189BD89B5982FAF
:10425000917080FFFBCF8091D8008F7D8093D80034
:104260008091E1008F7E8093E1008091E2008F7E5B
:104270008093E2008091E20081608093E20080916F
:104280006402882309F449C084E0809368020E9494
:104290009A1C8091E10083FF29C08091E20083FF96
:1042A00025C08091E100877F8093E10082E08093C8
:1042B0006802109264028091E1008E7F8093E10099
:1042C0008091E2008E7F8093E2008091E200806125
:1042D0008093E20042E060E080E00E94C11F809194
:1042E000F00088608093F0000E94901CFF91EF9195
:1042F000BF91AF919F918F917F916F915F914F91FE
:104300003F912F910F900FBE0F901F90189519BCE1
:10431000109268020E948D1C70CF8091E30087FD8F
:1043200093E090936802B3CF1F920F920FB60F9253
:1043300011242F933F934F935F936F937F938F93AA
:104340009F93AF93BF93CF93DF93EF93FF93D0915E
:10435000E900DF708091EC00C82FC17080FDC0E8DB
:104360001092E9008091F000877F8093F0007894AC
:104370000E94D8211092E9008091F000886080931B
:10438000F000CD2BCF70C093E900FF91EF91DF914A
:10439000CF91BF91AF919F918F917F916F915F91DD
:1043A0004F913F912F910F900FBE0F901F90189536
:1043B0001F93CF93DF93CDB7DEB7AA970FB6F894CC
:1043C000DEBF0FBECDBF89E692E02091F100FC0177
:1043D0002193CF01F2E081379F07B9F70E94C21CF9
:1043E0008091E80083FF1EC18091690290916A026A
:1043F0009A3008F017C1E92FF0E0E551FC4D0C941C
:104400005A23803899F0823809F00CC180916D02EE
:104410008F70873008F006C18093E9008091EB002F
:1044200085FB882780F91092E90006C0809165021B
:1044300090916602911182609091E800977F90932D
:10444000E8008093F1001092F1008091E8008E77EF
:10445000E5C0882309F4D3C0823009F0E3C080911D
:104460006B028111D6C080916D028F702FEF280FE3
:10447000263008F0D7C08093E9002091EB0020FFA0
:10448000C8C0933031F48091EB0080628093EB00E0
:10449000C0C09091EB0090619093EB0021E030E080
:1044A00001C0220F8A95EAF72093EA001092EA00F1
:1044B0008091EB008860EACF8111B4C010916B024B
:1044C0001F778091E3008078812B8093E3008091B7
:1044D000E800877F8093E8000E94F51F8091E80044
:1044E00080FFFCCF8091E30080688093E30082E04E
:1044F000111183E08093680295C08058823008F0E3
:1045000091C080916B0290916C028C3D23E09207E8
:10451000A1F583E08A838AE289834FB7F894DE01AC
:10452000139620E03EE051E2E32FF0E05093570075
:10453000E49120FF03C0E295EF703F5FEF708E2F94
:1045400090E0EA30C0F0C7968D939D932F5F2431A1
:1045500059F74FBF8091E800877F8093E8006AE2B7
:1045600070E0CE0101960E94041F8091E8008B77D5
:104570008093E80057C0C096E7CF60916D027091BC
:104580006E02AE014F5F5F4F0E94F71DBC01892B89
:1045900009F448C09091E800977F9093E8008981E2
:1045A0009A810E94621FE1CF8038E1F58091E80096
:1045B000877F8093E800809164028093F10045CF6B
:1045C000811130C090916B02923060F58091E800CB
:1045D000877F8093E800909364020E94F51F80918A
:1045E0006402882311F084E005C08091E30087FD18
:1045F000FACF81E0809368020E94A41C13C08091CE
:104600006B02813079F481E0933009F080E080938F
:1046100066021092E9008091E800877F8093E800AD
:104620000E94F51F8091E80083FF0AC08091E80096
:10463000877F8093E8008091EB0080628093EB009D
:10464000AA960FB6F894DEBF0FBECDBFDF91CF9113
:104650001F9108950895CF93809168028823A1F057
:10466000C091E900CF709091EC00892F817090FD8E
:1046700080E8C82B1092E9008091E80083FD0E9439
:10468000D821CF70C093E900CF91089597FB072EF2
:1046900016F4009407D077FD09D00E94672307FC29
:1046A00005D03EF4909581959F4F08957095619542
:1046B0007F4F0895EE0FFF1F0590F491E02D0994B0
:1046C0006927962769277827872778270895AA1BBF
:1046D000BB1B51E107C0AA1FBB1FA617B70710F0ED
:1046E000A61BB70B881F991F5A95A9F7809590951F
:1046F000BC01CD010895FB01DC0104C08D91019046
:10470000801921F441505040C8F7881B990B089537
:10471000F999FECF92BD81BDF89A992780B5089589
:10472000A8E1B0E042E050E00C94BC23262FF999B8
:10473000FECF92BD81BDF89A019700B4021639F000
:104740001FBA20BD0FB6F894FA9AF99A0FBE0895D1
:104750000396272F0E9497230E949623252F0E94BD
:104760009723242F0C9497230196272F0E94972399
:104770000C949623DC01CB01FC01F999FECF06C015
:10478000F2BDE1BDF89A319600B40D92415050400F
:10479000B8F70895F894FFCF4706470678067806DD
:1047A0000B072707A706A70632079907A807A80738
:1047B000C315D015F71503160E1619161C161C1660
:1047C0001C161C161C161F1623162B1638164516FB
:1047D00048164B1658160122292212232922122389
:0A47E0005C227D221223D422E02285
:1047EA00C8000402280850011E0A1401D11BF61B36
:1047FA00D51B511C4D1CD41B01E200E900EA00B58F
:10480A0000B600B700CD008301CC008A0192019462
:10481A00012102230224022502260227022A02B3C8
:10482A0000B4006F007000818283E200E900EA00B0
:10483A00B500B600B700CD008301CC008A01920111
:10484A0094012102230224022502260227022A02B7
:10485A00B300B4006F007000818283F7F6F5F4F1BB
:10486A00F0C63037949697363534909192936740D4
:0E487A00227BF00453047504F803110431048A
:00000001FF
